{
  "_format": "hh-sol-artifact-1",
  "contractName": "BetContract",
  "sourceName": "contracts/core/BetContract.sol",
  "abi": [
    {
      "inputs": [
        {
          "internalType": "uint256",
          "name": "_betId",
          "type": "uint256"
        },
        {
          "internalType": "uint256",
          "name": "_totalShares",
          "type": "uint256"
        },
        {
          "internalType": "uint256",
          "name": "_initialYesPrice",
          "type": "uint256"
        },
        {
          "internalType": "uint256",
          "name": "_initialNoPrice",
          "type": "uint256"
        },
        {
          "internalType": "address",
          "name": "_betToken",
          "type": "address"
        }
      ],
      "stateMutability": "nonpayable",
      "type": "constructor"
    },
    {
      "anonymous": false,
      "inputs": [
        {
          "indexed": true,
          "internalType": "address",
          "name": "previousOwner",
          "type": "address"
        },
        {
          "indexed": true,
          "internalType": "address",
          "name": "newOwner",
          "type": "address"
        }
      ],
      "name": "OwnershipTransferred",
      "type": "event"
    },
    {
      "inputs": [
        {
          "internalType": "uint256",
          "name": "",
          "type": "uint256"
        }
      ],
      "name": "Addresses",
      "outputs": [
        {
          "internalType": "address",
          "name": "",
          "type": "address"
        }
      ],
      "stateMutability": "view",
      "type": "function"
    },
    {
      "inputs": [
        {
          "internalType": "address",
          "name": "_user",
          "type": "address"
        }
      ],
      "name": "_isBetting",
      "outputs": [
        {
          "internalType": "bool",
          "name": "",
          "type": "bool"
        }
      ],
      "stateMutability": "view",
      "type": "function"
    },
    {
      "inputs": [
        {
          "internalType": "address",
          "name": "to",
          "type": "address"
        }
      ],
      "name": "_transferShares",
      "outputs": [],
      "stateMutability": "nonpayable",
      "type": "function"
    },
    {
      "inputs": [
        {
          "internalType": "address",
          "name": "",
          "type": "address"
        }
      ],
      "name": "amountInvested",
      "outputs": [
        {
          "internalType": "uint256",
          "name": "",
          "type": "uint256"
        }
      ],
      "stateMutability": "view",
      "type": "function"
    },
    {
      "inputs": [],
      "name": "betId",
      "outputs": [
        {
          "internalType": "uint256",
          "name": "",
          "type": "uint256"
        }
      ],
      "stateMutability": "view",
      "type": "function"
    },
    {
      "inputs": [
        {
          "internalType": "address",
          "name": "",
          "type": "address"
        }
      ],
      "name": "betPlaced",
      "outputs": [
        {
          "internalType": "bool",
          "name": "",
          "type": "bool"
        }
      ],
      "stateMutability": "view",
      "type": "function"
    },
    {
      "inputs": [
        {
          "internalType": "address",
          "name": "",
          "type": "address"
        }
      ],
      "name": "betSettled",
      "outputs": [
        {
          "internalType": "bool",
          "name": "",
          "type": "bool"
        }
      ],
      "stateMutability": "view",
      "type": "function"
    },
    {
      "inputs": [],
      "name": "betToken",
      "outputs": [
        {
          "internalType": "contract IERC20",
          "name": "",
          "type": "address"
        }
      ],
      "stateMutability": "view",
      "type": "function"
    },
    {
      "inputs": [
        {
          "internalType": "address",
          "name": "",
          "type": "address"
        }
      ],
      "name": "chosenOption",
      "outputs": [
        {
          "internalType": "enum BetContract.Option",
          "name": "",
          "type": "uint8"
        }
      ],
      "stateMutability": "view",
      "type": "function"
    },
    {
      "inputs": [],
      "name": "noPrice",
      "outputs": [
        {
          "internalType": "uint256",
          "name": "",
          "type": "uint256"
        }
      ],
      "stateMutability": "view",
      "type": "function"
    },
    {
      "inputs": [],
      "name": "noToken",
      "outputs": [
        {
          "internalType": "address",
          "name": "",
          "type": "address"
        }
      ],
      "stateMutability": "view",
      "type": "function"
    },
    {
      "inputs": [],
      "name": "noVotes",
      "outputs": [
        {
          "internalType": "uint256",
          "name": "",
          "type": "uint256"
        }
      ],
      "stateMutability": "view",
      "type": "function"
    },
    {
      "inputs": [],
      "name": "owner",
      "outputs": [
        {
          "internalType": "address",
          "name": "",
          "type": "address"
        }
      ],
      "stateMutability": "view",
      "type": "function"
    },
    {
      "inputs": [
        {
          "internalType": "enum BetContract.Option",
          "name": "_option",
          "type": "uint8"
        },
        {
          "internalType": "uint256",
          "name": "_shares",
          "type": "uint256"
        }
      ],
      "name": "placeBet",
      "outputs": [],
      "stateMutability": "payable",
      "type": "function"
    },
    {
      "inputs": [],
      "name": "redeemBet",
      "outputs": [],
      "stateMutability": "nonpayable",
      "type": "function"
    },
    {
      "inputs": [],
      "name": "renounceOwnership",
      "outputs": [],
      "stateMutability": "nonpayable",
      "type": "function"
    },
    {
      "inputs": [
        {
          "internalType": "enum BetContract.Option",
          "name": "_winningOption",
          "type": "uint8"
        }
      ],
      "name": "settleBet",
      "outputs": [],
      "stateMutability": "nonpayable",
      "type": "function"
    },
    {
      "inputs": [],
      "name": "settled",
      "outputs": [
        {
          "internalType": "bool",
          "name": "",
          "type": "bool"
        }
      ],
      "stateMutability": "view",
      "type": "function"
    },
    {
      "inputs": [],
      "name": "totalShares",
      "outputs": [
        {
          "internalType": "uint256",
          "name": "",
          "type": "uint256"
        }
      ],
      "stateMutability": "view",
      "type": "function"
    },
    {
      "inputs": [
        {
          "internalType": "address",
          "name": "",
          "type": "address"
        }
      ],
      "name": "totalSharesBought",
      "outputs": [
        {
          "internalType": "uint256",
          "name": "",
          "type": "uint256"
        }
      ],
      "stateMutability": "view",
      "type": "function"
    },
    {
      "inputs": [
        {
          "internalType": "address",
          "name": "newOwner",
          "type": "address"
        }
      ],
      "name": "transferOwnership",
      "outputs": [],
      "stateMutability": "nonpayable",
      "type": "function"
    },
    {
      "inputs": [],
      "name": "yesPrice",
      "outputs": [
        {
          "internalType": "uint256",
          "name": "",
          "type": "uint256"
        }
      ],
      "stateMutability": "view",
      "type": "function"
    },
    {
      "inputs": [],
      "name": "yesToken",
      "outputs": [
        {
          "internalType": "address",
          "name": "",
          "type": "address"
        }
      ],
      "stateMutability": "view",
      "type": "function"
    },
    {
      "inputs": [],
      "name": "yesVotes",
      "outputs": [
        {
          "internalType": "uint256",
          "name": "",
          "type": "uint256"
        }
      ],
      "stateMutability": "view",
      "type": "function"
    }
  ],
  "bytecode": "0x60806040523480156200001157600080fd5b50604051620033cc380380620033cc833981016040819052620000349162000218565b6200003f33620001ba565b600185905560028490556003839055600482905560408051602081018790528082019190915260096060820152682ca2a9afaa27a5a2a760b91b608082015260009060a00160408051601f19818403018152828252602083018990528282019190915260086060830152672727afaa27a5a2a760c11b6080830152915060009060a0016040516020818303038152906040529050816064604051620000e4906200020a565b620000f1929190620002bd565b604051809103906000f0801580156200010e573d6000803e3d6000fd5b50600560006101000a8154816001600160a01b0302191690836001600160a01b0316021790555080606460405162000146906200020a565b6200015392919062000301565b604051809103906000f08015801562000170573d6000803e3d6000fd5b50600680546001600160a01b0319166001600160a01b039283161790556009805462010000600160b01b031916620100009590921694909402179092555062000344945050505050565b600080546001600160a01b038381166001600160a01b0319831681178455604051919092169283917f8be0079c531659141344cd1fd0a4f28419497f9722a3daafe3b4186f6b6457e09190a35050565b611b0b80620018c183390190565b600080600080600060a086880312156200023157600080fd5b855160208701516040880151606089015160808a0151939850919650945092506001600160a01b03811681146200026757600080fd5b809150509295509295909350565b6000815180845260005b818110156200029d576020818501810151868301820152016200027f565b506000602082860101526020601f19601f83011685010191505092915050565b606081526000620002d2606083018562000275565b828103602084015260068152652ca2a9aa25a760d11b6020820152604081019150508260408301529392505050565b60608152600062000316606083018562000275565b828103602084015260058152642727aa25a760d91b6020820152604081019150508260408301529392505050565b61156d80620003546000396000f3fe60806040526004361061018b5760003560e01c80638f775839116100d6578063c217573d1161007f578063f0d9bb2011610059578063f0d9bb201461048b578063f2fde38b146104ab578063fb286c65146104cb57600080fd5b8063c217573d1461041b578063c83235851461044b578063dcb3b30e1461047857600080fd5b8063b021f567116100b0578063b021f567146103cf578063b066bc79146103ef578063b5b47f421461040557600080fd5b80638f7758391461036057806395b9c0b11461037f578063a65a5bc9146103af57600080fd5b80634fa8094a1161013857806378691f161161011257806378691f16146102fc5780637bb4d8ac146103225780638da5cb5b1461034257600080fd5b80634fa8094a1461029457806350dfdbfb146102d1578063715018a6146102e757600080fd5b806327bce91b1161016957806327bce91b1461022d5780633a98ef39146102515780633c3d3af61461026757600080fd5b806311a9f10a1461019057806314d7ecbc146101cd57806317a591f2146101e4575b600080fd5b34801561019c57600080fd5b506006546101b0906001600160a01b031681565b6040516001600160a01b0390911681526020015b60405180910390f35b3480156101d957600080fd5b506101e26104e1565b005b3480156101f057600080fd5b5061021d6101ff3660046113b4565b6001600160a01b03166000908152600c602052604090205460ff1690565b60405190151581526020016101c4565b34801561023957600080fd5b5061024360015481565b6040519081526020016101c4565b34801561025d57600080fd5b5061024360025481565b34801561027357600080fd5b506102436102823660046113b4565b600d6020526000908152604090205481565b3480156102a057600080fd5b506102c46102af3660046113b4565b600a6020526000908152604090205460ff1681565b6040516101c491906113fa565b3480156102dd57600080fd5b5061024360035481565b3480156102f357600080fd5b506101e26107e6565b34801561030857600080fd5b506009546101b0906201000090046001600160a01b031681565b34801561032e57600080fd5b506101e261033d366004611436565b6107fa565b34801561034e57600080fd5b506000546001600160a01b03166101b0565b34801561036c57600080fd5b5060095461021d90610100900460ff1681565b34801561038b57600080fd5b5061021d61039a3660046113b4565b600c6020526000908152604090205460ff1681565b3480156103bb57600080fd5b506101e26103ca3660046113b4565b61090c565b3480156103db57600080fd5b506101b06103ea366004611451565b610b3d565b3480156103fb57600080fd5b5061024360045481565b34801561041157600080fd5b5061024360085481565b34801561042757600080fd5b5061021d6104363660046113b4565b600b6020526000908152604090205460ff1681565b34801561045757600080fd5b506102436104663660046113b4565b600e6020526000908152604090205481565b6101e261048636600461146a565b610b67565b34801561049757600080fd5b506005546101b0906001600160a01b031681565b3480156104b757600080fd5b506101e26104c63660046113b4565b6111d9565b3480156104d757600080fd5b5061024360075481565b600954610100900460ff1661053d5760405162461bcd60e51b815260206004820152601260248201527f426574206973206e6f7420736174746c6564000000000000000000000000000060448201526064015b60405180910390fd5b336000908152600a602052604090205460095460ff91821691166001811115610568576105686113e4565b81600181111561057a5761057a6113e4565b146105c75760405162461bcd60e51b815260206004820152601f60248201527f596f7520617265206e6f74206f6e207468652077696e6e696e67207465616d006044820152606401610534565b336000908152600b602052604090205460ff16156106275760405162461bcd60e51b815260206004820152601360248201527f42657420736574746c656420666f7220796f75000000000000000000000000006044820152606401610534565b336000908152600d6020908152604080832054600b90925291829020805460ff1916600117905560095491517f095ea7b30000000000000000000000000000000000000000000000000000000081523060048201526024810182905290916201000090046001600160a01b03169063095ea7b3906044016020604051808303816000875af11580156106bd573d6000803e3d6000fd5b505050506040513d601f19601f820116820180604052508101906106e19190611494565b61072d5760405162461bcd60e51b815260206004820152600f60248201527f417070726f76616c206661696c656400000000000000000000000000000000006044820152606401610534565b6009546201000090046001600160a01b03166323b872dd30336107518560026114cc565b6040517fffffffff0000000000000000000000000000000000000000000000000000000060e086901b1681526001600160a01b03938416600482015292909116602483015260448201526064016020604051808303816000875af11580156107bd573d6000803e3d6000fd5b505050506040513d601f19601f820116820180604052508101906107e19190611494565b505050565b6107ee611269565b6107f860006112c3565b565b610802611269565b6000816001811115610816576108166113e4565b148061083357506001816001811115610831576108316113e4565b145b61087f5760405162461bcd60e51b815260206004820152600e60248201527f496e76616c6964206f7074696f6e0000000000000000000000000000000000006044820152606401610534565b600954610100900460ff16156108d75760405162461bcd60e51b815260206004820152601660248201527f42657420697320616c726561647920736574746c6564000000000000000000006044820152606401610534565b6009805482919060ff1916600183818111156108f5576108f56113e4565b0217905550506009805461ff001916610100179055565b336000908152600c602052604090205460ff1661096b5760405162461bcd60e51b815260206004820152601760248201527f4e6f7420706c6163656420706c616365642061206265740000000000000000006044820152606401610534565b336000908152600a6020908152604080832054600e835281842054600d9093529083205460ff909116928360018111156109a7576109a76113e4565b146109bd576006546001600160a01b03166109ca565b6005546001600160a01b03165b6040517f740371cc0000000000000000000000000000000000000000000000000000000081526001600160a01b038681166004830152336024830152919091169063740371cc90604401600060405180830381600087803b158015610a2e57600080fd5b505af1158015610a42573d6000803e3d6000fd5b5050336000908152600c60208181526040808420805460ff19908116909155600a808452828620805483169055600e84528286208690556001600160a01b038c168652938352818520805482166001908117909155939092529092208054889550909350909116908381811115610abb57610abb6113e4565b02179055506001600160a01b039093166000818152600d6020908152604080832096909655600e905293842091909155600f805460018101825593527f8d1108e10bcb7c27dddfc02ed9d693a074039d026cf4ea4240b40f7d581ac802909201805473ffffffffffffffffffffffffffffffffffffffff191690921790915550565b600f8181548110610b4d57600080fd5b6000918252602090912001546001600160a01b0316905081565b6000826001811115610b7b57610b7b6113e4565b1480610b9857506001826001811115610b9657610b966113e4565b145b610be45760405162461bcd60e51b815260206004820152600e60248201527f496e76616c6964206f7074696f6e0000000000000000000000000000000000006044820152606401610534565b600954610100900460ff1615610c3c5760405162461bcd60e51b815260206004820152600d60248201527f42657420697320636c6f736564000000000000000000000000000000000000006044820152606401610534565b336000908152600c602052604090205460ff1615610c9c5760405162461bcd60e51b815260206004820152601460248201527f416c726561647920706c616365642061206265740000000000000000000000006044820152606401610534565b6002546010541115610d165760405162461bcd60e51b815260206004820152603860248201527f526561636865642042657474696e67206c696d697420666f722074686973206260448201527f657420666f72206769766520736861726520616d6f756e7400000000000000006064820152608401610534565b600080836001811115610d2b57610d2b6113e4565b14610d3857600454610d3c565b6003545b90506000610d4a83836114cc565b6009546040517f70a082310000000000000000000000000000000000000000000000000000000081523360048201529192508291620100009091046001600160a01b0316906370a0823190602401602060405180830381865afa158015610db5573d6000803e3d6000fd5b505050506040513d601f19601f82011682018060405250810190610dd991906114e9565b1015610e275760405162461bcd60e51b815260206004820152601660248201527f4d53472056414c5545203e3d20626574207072696365000000000000000000006044820152606401610534565b6009546040517fdd62ed3e00000000000000000000000000000000000000000000000000000000815233600482015230602482015282916201000090046001600160a01b03169063dd62ed3e90604401602060405180830381865afa158015610e94573d6000803e3d6000fd5b505050506040513d601f19601f82011682018060405250810190610eb891906114e9565b1015610f065760405162461bcd60e51b815260206004820152600c60248201527f4e6f20416c6c6f77616e636500000000000000000000000000000000000000006044820152606401610534565b6009546040517f23b872dd00000000000000000000000000000000000000000000000000000000815233600482015230602482015260448101839052620100009091046001600160a01b0316906323b872dd906064016020604051808303816000875af1158015610f7b573d6000803e3d6000fd5b505050506040513d601f19601f82011682018060405250810190610f9f9190611494565b610feb5760405162461bcd60e51b815260206004820152601560248201527f546f6b656e207472616e73666572206661696c656400000000000000000000006044820152606401610534565b6000846001811115610fff57610fff6113e4565b14611015576006546001600160a01b0316611022565b6005546001600160a01b03165b6040517fa9059cbb000000000000000000000000000000000000000000000000000000008152336004820152602481018590526001600160a01b03919091169063a9059cbb906044016020604051808303816000875af115801561108a573d6000803e3d6000fd5b505050506040513d601f19601f820116820180604052508101906110ae9190611494565b6110fa5760405162461bcd60e51b815260206004820152601c60248201527f546f6b656e20536861726573207472616e73666572206661696c6564000000006044820152606401610534565b336000908152600a60205260409020805485919060ff191660018381811115611125576111256113e4565b0217905550336000908152600c60205260408120805460ff1916600117905560108054859290611156908490611502565b9091555050336000908152600e6020526040812084905584600181111561117f5761117f6113e4565b036111a15782600760008282546111969190611502565b909155506111b99050565b82600860008282546111b39190611502565b90915550505b336000908152600d602052604090208290556111d3611320565b50505050565b6111e1611269565b6001600160a01b03811661125d5760405162461bcd60e51b815260206004820152602660248201527f4f776e61626c653a206e6577206f776e657220697320746865207a65726f206160448201527f64647265737300000000000000000000000000000000000000000000000000006064820152608401610534565b611266816112c3565b50565b6000546001600160a01b031633146107f85760405162461bcd60e51b815260206004820181905260248201527f4f776e61626c653a2063616c6c6572206973206e6f7420746865206f776e65726044820152606401610534565b600080546001600160a01b0383811673ffffffffffffffffffffffffffffffffffffffff19831681178455604051919092169283917f8be0079c531659141344cd1fd0a4f28419497f9722a3daafe3b4186f6b6457e09190a35050565b60006008546007546113329190611502565b9050801561126657600754156113765761134d8160026114cc565b6003548260075461135e91906114cc565b61136891906114cc565b6113729190611515565b6003555b60085415611266576113898160026114cc565b6004548260085461139a91906114cc565b6113a491906114cc565b6113ae9190611515565b60045550565b6000602082840312156113c657600080fd5b81356001600160a01b03811681146113dd57600080fd5b9392505050565b634e487b7160e01b600052602160045260246000fd5b602081016002831061141c57634e487b7160e01b600052602160045260246000fd5b91905290565b80356002811061143157600080fd5b919050565b60006020828403121561144857600080fd5b6113dd82611422565b60006020828403121561146357600080fd5b5035919050565b6000806040838503121561147d57600080fd5b61148683611422565b946020939093013593505050565b6000602082840312156114a657600080fd5b815180151581146113dd57600080fd5b634e487b7160e01b600052601160045260246000fd5b80820281158282048414176114e3576114e36114b6565b92915050565b6000602082840312156114fb57600080fd5b5051919050565b808201808211156114e3576114e36114b6565b60008261153257634e487b7160e01b600052601260045260246000fd5b50049056fea264697066735822122088e100d12ecd939d7ca5c02665a4cbc75f707646443bb046f3360eeaa71e640264736f6c6343000813003360806040523480156200001157600080fd5b5060405162001b0b38038062001b0b833981016040819052620000349162000566565b8282600362000044838262000667565b50600462000053828262000667565b506200006591506000905033620000a8565b6200008060008051602062001aeb83398151915233620000a8565b6200009f336200009983670de0b6b3a764000062000749565b62000133565b50505062000857565b620000b482826200015f565b6200012f5760008281526005602090815260408083206001600160a01b03851684529091529020805460ff19166001179055620000ee3390565b6001600160a01b0316816001600160a01b0316837f2f8788117e7eff1d82e926ec794901d17c78024a50270940304540a733656f0d60405160405180910390a45b5050565b60008051602062001aeb8339815191526200014e816200018c565b6200015a83836200019b565b505050565b60008281526005602090815260408083206001600160a01b038516845290915290205460ff165b92915050565b62000198813362000262565b50565b6001600160a01b038216620001f75760405162461bcd60e51b815260206004820152601f60248201527f45524332303a206d696e7420746f20746865207a65726f20616464726573730060448201526064015b60405180910390fd5b80600260008282546200020b919062000763565b90915550506001600160a01b038216600081815260208181526040808320805486019055518481527fddf252ad1be2c89b69c2b068fc378daa952ba7f163c4a11628f55a4df523b3ef910160405180910390a35050565b6200026e82826200015f565b6200012f576200027e81620002c6565b6200028b836020620002d9565b6040516020016200029e92919062000779565b60408051601f198184030181529082905262461bcd60e51b8252620001ee91600401620007f2565b6060620001866001600160a01b03831660145b60606000620002ea83600262000749565b620002f790600262000763565b6001600160401b0381111562000311576200031162000499565b6040519080825280601f01601f1916602001820160405280156200033c576020820181803683370190505b509050600360fc1b816000815181106200035a576200035a62000827565b60200101906001600160f81b031916908160001a905350600f60fb1b816001815181106200038c576200038c62000827565b60200101906001600160f81b031916908160001a9053506000620003b284600262000749565b620003bf90600162000763565b90505b600181111562000441576f181899199a1a9b1b9c1cb0b131b232b360811b85600f1660108110620003f757620003f762000827565b1a60f81b82828151811062000410576200041062000827565b60200101906001600160f81b031916908160001a90535060049490941c9362000439816200083d565b9050620003c2565b508315620004925760405162461bcd60e51b815260206004820181905260248201527f537472696e67733a20686578206c656e67746820696e73756666696369656e746044820152606401620001ee565b9392505050565b634e487b7160e01b600052604160045260246000fd5b60005b83811015620004cc578181015183820152602001620004b2565b50506000910152565b600082601f830112620004e757600080fd5b81516001600160401b038082111562000504576200050462000499565b604051601f8301601f19908116603f011681019082821181831017156200052f576200052f62000499565b816040528381528660208588010111156200054957600080fd5b6200055c846020830160208901620004af565b9695505050505050565b6000806000606084860312156200057c57600080fd5b83516001600160401b03808211156200059457600080fd5b620005a287838801620004d5565b94506020860151915080821115620005b957600080fd5b50620005c886828701620004d5565b925050604084015190509250925092565b600181811c90821680620005ee57607f821691505b6020821081036200060f57634e487b7160e01b600052602260045260246000fd5b50919050565b601f8211156200015a57600081815260208120601f850160051c810160208610156200063e5750805b601f850160051c820191505b818110156200065f578281556001016200064a565b505050505050565b81516001600160401b0381111562000683576200068362000499565b6200069b81620006948454620005d9565b8462000615565b602080601f831160018114620006d35760008415620006ba5750858301515b600019600386901b1c1916600185901b1785556200065f565b600085815260208120601f198616915b828110156200070457888601518255948401946001909101908401620006e3565b5085821015620007235787850151600019600388901b60f8161c191681555b5050505050600190811b01905550565b634e487b7160e01b600052601160045260246000fd5b808202811582820484141762000186576200018662000733565b8082018082111562000186576200018662000733565b7f416363657373436f6e74726f6c3a206163636f756e7420000000000000000000815260008351620007b3816017850160208801620004af565b7001034b99036b4b9b9b4b733903937b6329607d1b6017918401918201528351620007e6816028840160208801620004af565b01602801949350505050565b602081526000825180602084015262000813816040850160208701620004af565b601f01601f19169190910160400192915050565b634e487b7160e01b600052603260045260246000fd5b6000816200084f576200084f62000733565b506000190190565b61128480620008676000396000f3fe608060405234801561001057600080fd5b50600436106101775760003560e01c806340c10f19116100d8578063a217fddf1161008c578063d539139311610066578063d53913931461031c578063d547741f14610343578063dd62ed3e1461035657600080fd5b8063a217fddf146102ee578063a457c2d7146102f6578063a9059cbb1461030957600080fd5b8063740371cc116100bd578063740371cc1461029a57806391d14854146102ad57806395d89b41146102e657600080fd5b806340c10f191461025e57806370a082311461027157600080fd5b8063248a9ca31161012f578063313ce56711610114578063313ce5671461022957806336568abe14610238578063395093511461024b57600080fd5b8063248a9ca3146101f15780632f2ff15d1461021457600080fd5b8063095ea7b311610160578063095ea7b3146101b957806318160ddd146101cc57806323b872dd146101de57600080fd5b806301ffc9a71461017c57806306fdde03146101a4575b600080fd5b61018f61018a366004610f6b565b61038f565b60405190151581526020015b60405180910390f35b6101ac610428565b60405161019b9190610fd1565b61018f6101c7366004611020565b6104ba565b6002545b60405190815260200161019b565b61018f6101ec36600461104a565b6104d2565b6101d06101ff366004611086565b60009081526005602052604090206001015490565b61022761022236600461109f565b6104f6565b005b6040516012815260200161019b565b61022761024636600461109f565b610520565b61018f610259366004611020565b6105b1565b61022761026c366004611020565b6105f0565b6101d061027f3660046110cb565b6001600160a01b031660009081526020819052604090205490565b6102276102a83660046110e6565b610624565b61018f6102bb36600461109f565b60009182526005602090815260408084206001600160a01b0393909316845291905290205460ff1690565b6101ac61064e565b6101d0600081565b61018f610304366004611020565b61065d565b61018f610317366004611020565b610707565b6101d07f9f2df0fed2c77648de5860a4cc508cd0818c85b8b8a1ab4ceeef8d981c8956a681565b61022761035136600461109f565b610715565b6101d06103643660046110e6565b6001600160a01b03918216600090815260016020908152604080832093909416825291909152205490565b60007fffffffff0000000000000000000000000000000000000000000000000000000082167f7965db0b00000000000000000000000000000000000000000000000000000000148061042257507f01ffc9a7000000000000000000000000000000000000000000000000000000007fffffffff000000000000000000000000000000000000000000000000000000008316145b92915050565b60606003805461043790611110565b80601f016020809104026020016040519081016040528092919081815260200182805461046390611110565b80156104b05780601f10610485576101008083540402835291602001916104b0565b820191906000526020600020905b81548152906001019060200180831161049357829003601f168201915b5050505050905090565b6000336104c881858561073a565b5060019392505050565b6000336104e0858285610892565b6104eb85858561091e565b506001949350505050565b60008281526005602052604090206001015461051181610b0b565b61051b8383610b18565b505050565b6001600160a01b03811633146105a35760405162461bcd60e51b815260206004820152602f60248201527f416363657373436f6e74726f6c3a2063616e206f6e6c792072656e6f756e636560448201527f20726f6c657320666f722073656c66000000000000000000000000000000000060648201526084015b60405180910390fd5b6105ad8282610bba565b5050565b3360008181526001602090815260408083206001600160a01b03871684529091528120549091906104c890829086906105eb908790611160565b61073a565b7f9f2df0fed2c77648de5860a4cc508cd0818c85b8b8a1ab4ceeef8d981c8956a661061a81610b0b565b61051b8383610c3d565b6001600160a01b0381166000908152602081905260409020546106488284836104d2565b50505050565b60606004805461043790611110565b3360008181526001602090815260408083206001600160a01b0387168452909152812054909190838110156106fa5760405162461bcd60e51b815260206004820152602560248201527f45524332303a2064656372656173656420616c6c6f77616e63652062656c6f7760448201527f207a65726f000000000000000000000000000000000000000000000000000000606482015260840161059a565b6104eb828686840361073a565b6000336104c881858561091e565b60008281526005602052604090206001015461073081610b0b565b61051b8383610bba565b6001600160a01b0383166107b55760405162461bcd60e51b8152602060048201526024808201527f45524332303a20617070726f76652066726f6d20746865207a65726f2061646460448201527f7265737300000000000000000000000000000000000000000000000000000000606482015260840161059a565b6001600160a01b0382166108315760405162461bcd60e51b815260206004820152602260248201527f45524332303a20617070726f766520746f20746865207a65726f20616464726560448201527f7373000000000000000000000000000000000000000000000000000000000000606482015260840161059a565b6001600160a01b0383811660008181526001602090815260408083209487168084529482529182902085905590518481527f8c5be1e5ebec7d5bd14f71427d1e84f3dd0314c0f7b2291e5b200ac8c7c3b925910160405180910390a3505050565b6001600160a01b03838116600090815260016020908152604080832093861683529290522054600019811461064857818110156109115760405162461bcd60e51b815260206004820152601d60248201527f45524332303a20696e73756666696369656e7420616c6c6f77616e6365000000604482015260640161059a565b610648848484840361073a565b6001600160a01b03831661099a5760405162461bcd60e51b815260206004820152602560248201527f45524332303a207472616e736665722066726f6d20746865207a65726f20616460448201527f6472657373000000000000000000000000000000000000000000000000000000606482015260840161059a565b6001600160a01b038216610a165760405162461bcd60e51b815260206004820152602360248201527f45524332303a207472616e7366657220746f20746865207a65726f206164647260448201527f6573730000000000000000000000000000000000000000000000000000000000606482015260840161059a565b6001600160a01b03831660009081526020819052604090205481811015610aa55760405162461bcd60e51b815260206004820152602660248201527f45524332303a207472616e7366657220616d6f756e742065786365656473206260448201527f616c616e63650000000000000000000000000000000000000000000000000000606482015260840161059a565b6001600160a01b03848116600081815260208181526040808320878703905593871680835291849020805487019055925185815290927fddf252ad1be2c89b69c2b068fc378daa952ba7f163c4a11628f55a4df523b3ef910160405180910390a3610648565b610b158133610cfc565b50565b60008281526005602090815260408083206001600160a01b038516845290915290205460ff166105ad5760008281526005602090815260408083206001600160a01b03851684529091529020805460ff19166001179055610b763390565b6001600160a01b0316816001600160a01b0316837f2f8788117e7eff1d82e926ec794901d17c78024a50270940304540a733656f0d60405160405180910390a45050565b60008281526005602090815260408083206001600160a01b038516845290915290205460ff16156105ad5760008281526005602090815260408083206001600160a01b0385168085529252808320805460ff1916905551339285917ff6391f5c32d9c69d2a47ea670b442974b53935d1edc7fd64eb21e047a839171b9190a45050565b6001600160a01b038216610c935760405162461bcd60e51b815260206004820152601f60248201527f45524332303a206d696e7420746f20746865207a65726f206164647265737300604482015260640161059a565b8060026000828254610ca59190611160565b90915550506001600160a01b038216600081815260208181526040808320805486019055518481527fddf252ad1be2c89b69c2b068fc378daa952ba7f163c4a11628f55a4df523b3ef910160405180910390a35050565b60008281526005602090815260408083206001600160a01b038516845290915290205460ff166105ad57610d2f81610d71565b610d3a836020610d83565b604051602001610d4b929190611173565b60408051601f198184030181529082905262461bcd60e51b825261059a91600401610fd1565b60606104226001600160a01b03831660145b60606000610d928360026111f4565b610d9d906002611160565b67ffffffffffffffff811115610db557610db561120b565b6040519080825280601f01601f191660200182016040528015610ddf576020820181803683370190505b5090507f300000000000000000000000000000000000000000000000000000000000000081600081518110610e1657610e16611221565b60200101906001600160f81b031916908160001a9053507f780000000000000000000000000000000000000000000000000000000000000081600181518110610e6157610e61611221565b60200101906001600160f81b031916908160001a9053506000610e858460026111f4565b610e90906001611160565b90505b6001811115610f15577f303132333435363738396162636465660000000000000000000000000000000085600f1660108110610ed157610ed1611221565b1a60f81b828281518110610ee757610ee7611221565b60200101906001600160f81b031916908160001a90535060049490941c93610f0e81611237565b9050610e93565b508315610f645760405162461bcd60e51b815260206004820181905260248201527f537472696e67733a20686578206c656e67746820696e73756666696369656e74604482015260640161059a565b9392505050565b600060208284031215610f7d57600080fd5b81357fffffffff0000000000000000000000000000000000000000000000000000000081168114610f6457600080fd5b60005b83811015610fc8578181015183820152602001610fb0565b50506000910152565b6020815260008251806020840152610ff0816040850160208701610fad565b601f01601f19169190910160400192915050565b80356001600160a01b038116811461101b57600080fd5b919050565b6000806040838503121561103357600080fd5b61103c83611004565b946020939093013593505050565b60008060006060848603121561105f57600080fd5b61106884611004565b925061107660208501611004565b9150604084013590509250925092565b60006020828403121561109857600080fd5b5035919050565b600080604083850312156110b257600080fd5b823591506110c260208401611004565b90509250929050565b6000602082840312156110dd57600080fd5b610f6482611004565b600080604083850312156110f957600080fd5b61110283611004565b91506110c260208401611004565b600181811c9082168061112457607f821691505b60208210810361114457634e487b7160e01b600052602260045260246000fd5b50919050565b634e487b7160e01b600052601160045260246000fd5b808201808211156104225761042261114a565b7f416363657373436f6e74726f6c3a206163636f756e74200000000000000000008152600083516111ab816017850160208801610fad565b7f206973206d697373696e6720726f6c652000000000000000000000000000000060179184019182015283516111e8816028840160208801610fad565b01602801949350505050565b80820281158282048414176104225761042261114a565b634e487b7160e01b600052604160045260246000fd5b634e487b7160e01b600052603260045260246000fd5b6000816112465761124661114a565b50600019019056fea2646970667358221220f880eac256893cfba46819bfa10df34058bebc838e1a804c0c90b5727390616d64736f6c634300081300339f2df0fed2c77648de5860a4cc508cd0818c85b8b8a1ab4ceeef8d981c8956a6",
  "linkReferences": {},
  "deployedLinkReferences": {}
}