{"contracts/BetFactory.sol":{"BetFactory":{"abi":[{"inputs":[],"stateMutability":"nonpayable","type":"constructor"},{"inputs":[{"internalType":"uint256","name":"_betId","type":"uint256"},{"internalType":"uint256","name":"_totalShares","type":"uint256"},{"internalType":"uint256","name":"_initialYesPrice","type":"uint256"},{"internalType":"uint256","name":"_initialNoPrice","type":"uint256"},{"internalType":"address","name":"_betToken","type":"address"}],"name":"createNewBet","outputs":[],"stateMutability":"nonpayable","type":"function"},{"inputs":[{"internalType":"uint256","name":"","type":"uint256"}],"name":"deployedContracts","outputs":[{"internalType":"address","name":"","type":"address"}],"stateMutability":"view","type":"function"},{"inputs":[],"name":"owner","outputs":[{"internalType":"address","name":"","type":"address"}],"stateMutability":"view","type":"function"},{"inputs":[],"name":"totalBetsDeployed","outputs":[{"internalType":"uint256","name":"","type":"uint256"}],"stateMutability":"view","type":"function"},{"inputs":[{"internalType":"address","name":"newOwner","type":"address"},{"internalType":"address","name":"_betContract","type":"address"}],"name":"transferOwnershipExt","outputs":[],"stateMutability":"nonpayable","type":"function"}],"evm":{"bytecode":{"linkReferences":{},"object":"608060405234801561001057600080fd5b50600280546001600160a01b031916331790556137f9806100326000396000f3fe608060405234801561001057600080fd5b50600436106100675760003560e01c80639ad1ee10116100505780639ad1ee10146100b35780639e4e145d146100c6578063b2410ded146100db57600080fd5b8063161fa31e1461006c5780638da5cb5b14610088575b600080fd5b61007560015481565b6040519081526020015b60405180910390f35b60025461009b906001600160a01b031681565b6040516001600160a01b03909116815260200161007f565b61009b6100c1366004610306565b6100ee565b6100d96100d436600461033b565b610118565b005b6100d96100e936600461036e565b6101db565b600081815481106100fe57600080fd5b6000918252602090912001546001600160a01b0316905081565b6002546001600160a01b031633146101635760405162461bcd60e51b815260206004820152600960248201526837b7363ca7bbb732b960b91b60448201526064015b60405180910390fd5b6040517ff2fde38b0000000000000000000000000000000000000000000000000000000081526001600160a01b03838116600483015282169063f2fde38b90602401600060405180830381600087803b1580156101bf57600080fd5b505af11580156101d3573d6000803e3d6000fd5b505050505050565b6002546001600160a01b031633146102215760405162461bcd60e51b815260206004820152600960248201526837b7363ca7bbb732b960b91b604482015260640161015a565b60008585858585604051610234906102f9565b9485526020850193909352604084019190915260608301526001600160a01b0316608082015260a001604051809103906000f080158015610279573d6000803e3d6000fd5b5060008054600180820183558280527f290decd9548b62a8d60345a988386fc84ba6bc95484008f6362f93160ef3e56390910180547fffffffffffffffffffffffff0000000000000000000000000000000000000000166001600160a01b0385161790558054929350906102ec836103b7565b9190505550505050505050565b6133cc806103f883390190565b60006020828403121561031857600080fd5b5035919050565b80356001600160a01b038116811461033657600080fd5b919050565b6000806040838503121561034e57600080fd5b6103578361031f565b91506103656020840161031f565b90509250929050565b600080600080600060a0868803121561038657600080fd5b853594506020860135935060408601359250606086013591506103ab6080870161031f565b90509295509295909350565b6000600182016103f0577f4e487b7100000000000000000000000000000000000000000000000000000000600052601160045260246000fd5b506001019056fe60806040523480156200001157600080fd5b50604051620033cc380380620033cc833981016040819052620000349162000218565b6200003f33620001ba565b600185905560028490556003839055600482905560408051602081018790528082019190915260096060820152682ca2a9afaa27a5a2a760b91b608082015260009060a00160408051601f19818403018152828252602083018990528282019190915260086060830152672727afaa27a5a2a760c11b6080830152915060009060a0016040516020818303038152906040529050816064604051620000e4906200020a565b620000f1929190620002bd565b604051809103906000f0801580156200010e573d6000803e3d6000fd5b50600560006101000a8154816001600160a01b0302191690836001600160a01b0316021790555080606460405162000146906200020a565b6200015392919062000301565b604051809103906000f08015801562000170573d6000803e3d6000fd5b50600680546001600160a01b0319166001600160a01b039283161790556009805462010000600160b01b031916620100009590921694909402179092555062000344945050505050565b600080546001600160a01b038381166001600160a01b0319831681178455604051919092169283917f8be0079c531659141344cd1fd0a4f28419497f9722a3daafe3b4186f6b6457e09190a35050565b611b0b80620018c183390190565b600080600080600060a086880312156200023157600080fd5b855160208701516040880151606089015160808a0151939850919650945092506001600160a01b03811681146200026757600080fd5b809150509295509295909350565b6000815180845260005b818110156200029d576020818501810151868301820152016200027f565b506000602082860101526020601f19601f83011685010191505092915050565b606081526000620002d2606083018562000275565b828103602084015260068152652ca2a9aa25a760d11b6020820152604081019150508260408301529392505050565b60608152600062000316606083018562000275565b828103602084015260058152642727aa25a760d91b6020820152604081019150508260408301529392505050565b61156d80620003546000396000f3fe60806040526004361061018b5760003560e01c80638f775839116100d6578063c217573d1161007f578063f0d9bb2011610059578063f0d9bb201461048b578063f2fde38b146104ab578063fb286c65146104cb57600080fd5b8063c217573d1461041b578063c83235851461044b578063dcb3b30e1461047857600080fd5b8063b021f567116100b0578063b021f567146103cf578063b066bc79146103ef578063b5b47f421461040557600080fd5b80638f7758391461036057806395b9c0b11461037f578063a65a5bc9146103af57600080fd5b80634fa8094a1161013857806378691f161161011257806378691f16146102fc5780637bb4d8ac146103225780638da5cb5b1461034257600080fd5b80634fa8094a1461029457806350dfdbfb146102d1578063715018a6146102e757600080fd5b806327bce91b1161016957806327bce91b1461022d5780633a98ef39146102515780633c3d3af61461026757600080fd5b806311a9f10a1461019057806314d7ecbc146101cd57806317a591f2146101e4575b600080fd5b34801561019c57600080fd5b506006546101b0906001600160a01b031681565b6040516001600160a01b0390911681526020015b60405180910390f35b3480156101d957600080fd5b506101e26104e1565b005b3480156101f057600080fd5b5061021d6101ff3660046113b4565b6001600160a01b03166000908152600c602052604090205460ff1690565b60405190151581526020016101c4565b34801561023957600080fd5b5061024360015481565b6040519081526020016101c4565b34801561025d57600080fd5b5061024360025481565b34801561027357600080fd5b506102436102823660046113b4565b600d6020526000908152604090205481565b3480156102a057600080fd5b506102c46102af3660046113b4565b600a6020526000908152604090205460ff1681565b6040516101c491906113fa565b3480156102dd57600080fd5b5061024360035481565b3480156102f357600080fd5b506101e26107e6565b34801561030857600080fd5b506009546101b0906201000090046001600160a01b031681565b34801561032e57600080fd5b506101e261033d366004611436565b6107fa565b34801561034e57600080fd5b506000546001600160a01b03166101b0565b34801561036c57600080fd5b5060095461021d90610100900460ff1681565b34801561038b57600080fd5b5061021d61039a3660046113b4565b600c6020526000908152604090205460ff1681565b3480156103bb57600080fd5b506101e26103ca3660046113b4565b61090c565b3480156103db57600080fd5b506101b06103ea366004611451565b610b3d565b3480156103fb57600080fd5b5061024360045481565b34801561041157600080fd5b5061024360085481565b34801561042757600080fd5b5061021d6104363660046113b4565b600b6020526000908152604090205460ff1681565b34801561045757600080fd5b506102436104663660046113b4565b600e6020526000908152604090205481565b6101e261048636600461146a565b610b67565b34801561049757600080fd5b506005546101b0906001600160a01b031681565b3480156104b757600080fd5b506101e26104c63660046113b4565b6111d9565b3480156104d757600080fd5b5061024360075481565b600954610100900460ff1661053d5760405162461bcd60e51b815260206004820152601260248201527f426574206973206e6f7420736174746c6564000000000000000000000000000060448201526064015b60405180910390fd5b336000908152600a602052604090205460095460ff91821691166001811115610568576105686113e4565b81600181111561057a5761057a6113e4565b146105c75760405162461bcd60e51b815260206004820152601f60248201527f596f7520617265206e6f74206f6e207468652077696e6e696e67207465616d006044820152606401610534565b336000908152600b602052604090205460ff16156106275760405162461bcd60e51b815260206004820152601360248201527f42657420736574746c656420666f7220796f75000000000000000000000000006044820152606401610534565b336000908152600d6020908152604080832054600b90925291829020805460ff1916600117905560095491517f095ea7b30000000000000000000000000000000000000000000000000000000081523060048201526024810182905290916201000090046001600160a01b03169063095ea7b3906044016020604051808303816000875af11580156106bd573d6000803e3d6000fd5b505050506040513d601f19601f820116820180604052508101906106e19190611494565b61072d5760405162461bcd60e51b815260206004820152600f60248201527f417070726f76616c206661696c656400000000000000000000000000000000006044820152606401610534565b6009546201000090046001600160a01b03166323b872dd30336107518560026114cc565b6040517fffffffff0000000000000000000000000000000000000000000000000000000060e086901b1681526001600160a01b03938416600482015292909116602483015260448201526064016020604051808303816000875af11580156107bd573d6000803e3d6000fd5b505050506040513d601f19601f820116820180604052508101906107e19190611494565b505050565b6107ee611269565b6107f860006112c3565b565b610802611269565b6000816001811115610816576108166113e4565b148061083357506001816001811115610831576108316113e4565b145b61087f5760405162461bcd60e51b815260206004820152600e60248201527f496e76616c6964206f7074696f6e0000000000000000000000000000000000006044820152606401610534565b600954610100900460ff16156108d75760405162461bcd60e51b815260206004820152601660248201527f42657420697320616c726561647920736574746c6564000000000000000000006044820152606401610534565b6009805482919060ff1916600183818111156108f5576108f56113e4565b0217905550506009805461ff001916610100179055565b336000908152600c602052604090205460ff1661096b5760405162461bcd60e51b815260206004820152601760248201527f4e6f7420706c6163656420706c616365642061206265740000000000000000006044820152606401610534565b336000908152600a6020908152604080832054600e835281842054600d9093529083205460ff909116928360018111156109a7576109a76113e4565b146109bd576006546001600160a01b03166109ca565b6005546001600160a01b03165b6040517f740371cc0000000000000000000000000000000000000000000000000000000081526001600160a01b038681166004830152336024830152919091169063740371cc90604401600060405180830381600087803b158015610a2e57600080fd5b505af1158015610a42573d6000803e3d6000fd5b5050336000908152600c60208181526040808420805460ff19908116909155600a808452828620805483169055600e84528286208690556001600160a01b038c168652938352818520805482166001908117909155939092529092208054889550909350909116908381811115610abb57610abb6113e4565b02179055506001600160a01b039093166000818152600d6020908152604080832096909655600e905293842091909155600f805460018101825593527f8d1108e10bcb7c27dddfc02ed9d693a074039d026cf4ea4240b40f7d581ac802909201805473ffffffffffffffffffffffffffffffffffffffff191690921790915550565b600f8181548110610b4d57600080fd5b6000918252602090912001546001600160a01b0316905081565b6000826001811115610b7b57610b7b6113e4565b1480610b9857506001826001811115610b9657610b966113e4565b145b610be45760405162461bcd60e51b815260206004820152600e60248201527f496e76616c6964206f7074696f6e0000000000000000000000000000000000006044820152606401610534565b600954610100900460ff1615610c3c5760405162461bcd60e51b815260206004820152600d60248201527f42657420697320636c6f736564000000000000000000000000000000000000006044820152606401610534565b336000908152600c602052604090205460ff1615610c9c5760405162461bcd60e51b815260206004820152601460248201527f416c726561647920706c616365642061206265740000000000000000000000006044820152606401610534565b6002546010541115610d165760405162461bcd60e51b815260206004820152603860248201527f526561636865642042657474696e67206c696d697420666f722074686973206260448201527f657420666f72206769766520736861726520616d6f756e7400000000000000006064820152608401610534565b600080836001811115610d2b57610d2b6113e4565b14610d3857600454610d3c565b6003545b90506000610d4a83836114cc565b6009546040517f70a082310000000000000000000000000000000000000000000000000000000081523360048201529192508291620100009091046001600160a01b0316906370a0823190602401602060405180830381865afa158015610db5573d6000803e3d6000fd5b505050506040513d601f19601f82011682018060405250810190610dd991906114e9565b1015610e275760405162461bcd60e51b815260206004820152601660248201527f4d53472056414c5545203e3d20626574207072696365000000000000000000006044820152606401610534565b6009546040517fdd62ed3e00000000000000000000000000000000000000000000000000000000815233600482015230602482015282916201000090046001600160a01b03169063dd62ed3e90604401602060405180830381865afa158015610e94573d6000803e3d6000fd5b505050506040513d601f19601f82011682018060405250810190610eb891906114e9565b1015610f065760405162461bcd60e51b815260206004820152600c60248201527f4e6f20416c6c6f77616e636500000000000000000000000000000000000000006044820152606401610534565b6009546040517f23b872dd00000000000000000000000000000000000000000000000000000000815233600482015230602482015260448101839052620100009091046001600160a01b0316906323b872dd906064016020604051808303816000875af1158015610f7b573d6000803e3d6000fd5b505050506040513d601f19601f82011682018060405250810190610f9f9190611494565b610feb5760405162461bcd60e51b815260206004820152601560248201527f546f6b656e207472616e73666572206661696c656400000000000000000000006044820152606401610534565b6000846001811115610fff57610fff6113e4565b14611015576006546001600160a01b0316611022565b6005546001600160a01b03165b6040517fa9059cbb000000000000000000000000000000000000000000000000000000008152336004820152602481018590526001600160a01b03919091169063a9059cbb906044016020604051808303816000875af115801561108a573d6000803e3d6000fd5b505050506040513d601f19601f820116820180604052508101906110ae9190611494565b6110fa5760405162461bcd60e51b815260206004820152601c60248201527f546f6b656e20536861726573207472616e73666572206661696c6564000000006044820152606401610534565b336000908152600a60205260409020805485919060ff191660018381811115611125576111256113e4565b0217905550336000908152600c60205260408120805460ff1916600117905560108054859290611156908490611502565b9091555050336000908152600e6020526040812084905584600181111561117f5761117f6113e4565b036111a15782600760008282546111969190611502565b909155506111b99050565b82600860008282546111b39190611502565b90915550505b336000908152600d602052604090208290556111d3611320565b50505050565b6111e1611269565b6001600160a01b03811661125d5760405162461bcd60e51b815260206004820152602660248201527f4f776e61626c653a206e6577206f776e657220697320746865207a65726f206160448201527f64647265737300000000000000000000000000000000000000000000000000006064820152608401610534565b611266816112c3565b50565b6000546001600160a01b031633146107f85760405162461bcd60e51b815260206004820181905260248201527f4f776e61626c653a2063616c6c6572206973206e6f7420746865206f776e65726044820152606401610534565b600080546001600160a01b0383811673ffffffffffffffffffffffffffffffffffffffff19831681178455604051919092169283917f8be0079c531659141344cd1fd0a4f28419497f9722a3daafe3b4186f6b6457e09190a35050565b60006008546007546113329190611502565b9050801561126657600754156113765761134d8160026114cc565b6003548260075461135e91906114cc565b61136891906114cc565b6113729190611515565b6003555b60085415611266576113898160026114cc565b6004548260085461139a91906114cc565b6113a491906114cc565b6113ae9190611515565b60045550565b6000602082840312156113c657600080fd5b81356001600160a01b03811681146113dd57600080fd5b9392505050565b634e487b7160e01b600052602160045260246000fd5b602081016002831061141c57634e487b7160e01b600052602160045260246000fd5b91905290565b80356002811061143157600080fd5b919050565b60006020828403121561144857600080fd5b6113dd82611422565b60006020828403121561146357600080fd5b5035919050565b6000806040838503121561147d57600080fd5b61148683611422565b946020939093013593505050565b6000602082840312156114a657600080fd5b815180151581146113dd57600080fd5b634e487b7160e01b600052601160045260246000fd5b80820281158282048414176114e3576114e36114b6565b92915050565b6000602082840312156114fb57600080fd5b5051919050565b808201808211156114e3576114e36114b6565b60008261153257634e487b7160e01b600052601260045260246000fd5b50049056fea264697066735822122088e100d12ecd939d7ca5c02665a4cbc75f707646443bb046f3360eeaa71e640264736f6c6343000813003360806040523480156200001157600080fd5b5060405162001b0b38038062001b0b833981016040819052620000349162000566565b8282600362000044838262000667565b50600462000053828262000667565b506200006591506000905033620000a8565b6200008060008051602062001aeb83398151915233620000a8565b6200009f336200009983670de0b6b3a764000062000749565b62000133565b50505062000857565b620000b482826200015f565b6200012f5760008281526005602090815260408083206001600160a01b03851684529091529020805460ff19166001179055620000ee3390565b6001600160a01b0316816001600160a01b0316837f2f8788117e7eff1d82e926ec794901d17c78024a50270940304540a733656f0d60405160405180910390a45b5050565b60008051602062001aeb8339815191526200014e816200018c565b6200015a83836200019b565b505050565b60008281526005602090815260408083206001600160a01b038516845290915290205460ff165b92915050565b62000198813362000262565b50565b6001600160a01b038216620001f75760405162461bcd60e51b815260206004820152601f60248201527f45524332303a206d696e7420746f20746865207a65726f20616464726573730060448201526064015b60405180910390fd5b80600260008282546200020b919062000763565b90915550506001600160a01b038216600081815260208181526040808320805486019055518481527fddf252ad1be2c89b69c2b068fc378daa952ba7f163c4a11628f55a4df523b3ef910160405180910390a35050565b6200026e82826200015f565b6200012f576200027e81620002c6565b6200028b836020620002d9565b6040516020016200029e92919062000779565b60408051601f198184030181529082905262461bcd60e51b8252620001ee91600401620007f2565b6060620001866001600160a01b03831660145b60606000620002ea83600262000749565b620002f790600262000763565b6001600160401b0381111562000311576200031162000499565b6040519080825280601f01601f1916602001820160405280156200033c576020820181803683370190505b509050600360fc1b816000815181106200035a576200035a62000827565b60200101906001600160f81b031916908160001a905350600f60fb1b816001815181106200038c576200038c62000827565b60200101906001600160f81b031916908160001a9053506000620003b284600262000749565b620003bf90600162000763565b90505b600181111562000441576f181899199a1a9b1b9c1cb0b131b232b360811b85600f1660108110620003f757620003f762000827565b1a60f81b82828151811062000410576200041062000827565b60200101906001600160f81b031916908160001a90535060049490941c9362000439816200083d565b9050620003c2565b508315620004925760405162461bcd60e51b815260206004820181905260248201527f537472696e67733a20686578206c656e67746820696e73756666696369656e746044820152606401620001ee565b9392505050565b634e487b7160e01b600052604160045260246000fd5b60005b83811015620004cc578181015183820152602001620004b2565b50506000910152565b600082601f830112620004e757600080fd5b81516001600160401b038082111562000504576200050462000499565b604051601f8301601f19908116603f011681019082821181831017156200052f576200052f62000499565b816040528381528660208588010111156200054957600080fd5b6200055c846020830160208901620004af565b9695505050505050565b6000806000606084860312156200057c57600080fd5b83516001600160401b03808211156200059457600080fd5b620005a287838801620004d5565b94506020860151915080821115620005b957600080fd5b50620005c886828701620004d5565b925050604084015190509250925092565b600181811c90821680620005ee57607f821691505b6020821081036200060f57634e487b7160e01b600052602260045260246000fd5b50919050565b601f8211156200015a57600081815260208120601f850160051c810160208610156200063e5750805b601f850160051c820191505b818110156200065f578281556001016200064a565b505050505050565b81516001600160401b0381111562000683576200068362000499565b6200069b81620006948454620005d9565b8462000615565b602080601f831160018114620006d35760008415620006ba5750858301515b600019600386901b1c1916600185901b1785556200065f565b600085815260208120601f198616915b828110156200070457888601518255948401946001909101908401620006e3565b5085821015620007235787850151600019600388901b60f8161c191681555b5050505050600190811b01905550565b634e487b7160e01b600052601160045260246000fd5b808202811582820484141762000186576200018662000733565b8082018082111562000186576200018662000733565b7f416363657373436f6e74726f6c3a206163636f756e7420000000000000000000815260008351620007b3816017850160208801620004af565b7001034b99036b4b9b9b4b733903937b6329607d1b6017918401918201528351620007e6816028840160208801620004af565b01602801949350505050565b602081526000825180602084015262000813816040850160208701620004af565b601f01601f19169190910160400192915050565b634e487b7160e01b600052603260045260246000fd5b6000816200084f576200084f62000733565b506000190190565b61128480620008676000396000f3fe608060405234801561001057600080fd5b50600436106101775760003560e01c806340c10f19116100d8578063a217fddf1161008c578063d539139311610066578063d53913931461031c578063d547741f14610343578063dd62ed3e1461035657600080fd5b8063a217fddf146102ee578063a457c2d7146102f6578063a9059cbb1461030957600080fd5b8063740371cc116100bd578063740371cc1461029a57806391d14854146102ad57806395d89b41146102e657600080fd5b806340c10f191461025e57806370a082311461027157600080fd5b8063248a9ca31161012f578063313ce56711610114578063313ce5671461022957806336568abe14610238578063395093511461024b57600080fd5b8063248a9ca3146101f15780632f2ff15d1461021457600080fd5b8063095ea7b311610160578063095ea7b3146101b957806318160ddd146101cc57806323b872dd146101de57600080fd5b806301ffc9a71461017c57806306fdde03146101a4575b600080fd5b61018f61018a366004610f6b565b61038f565b60405190151581526020015b60405180910390f35b6101ac610428565b60405161019b9190610fd1565b61018f6101c7366004611020565b6104ba565b6002545b60405190815260200161019b565b61018f6101ec36600461104a565b6104d2565b6101d06101ff366004611086565b60009081526005602052604090206001015490565b61022761022236600461109f565b6104f6565b005b6040516012815260200161019b565b61022761024636600461109f565b610520565b61018f610259366004611020565b6105b1565b61022761026c366004611020565b6105f0565b6101d061027f3660046110cb565b6001600160a01b031660009081526020819052604090205490565b6102276102a83660046110e6565b610624565b61018f6102bb36600461109f565b60009182526005602090815260408084206001600160a01b0393909316845291905290205460ff1690565b6101ac61064e565b6101d0600081565b61018f610304366004611020565b61065d565b61018f610317366004611020565b610707565b6101d07f9f2df0fed2c77648de5860a4cc508cd0818c85b8b8a1ab4ceeef8d981c8956a681565b61022761035136600461109f565b610715565b6101d06103643660046110e6565b6001600160a01b03918216600090815260016020908152604080832093909416825291909152205490565b60007fffffffff0000000000000000000000000000000000000000000000000000000082167f7965db0b00000000000000000000000000000000000000000000000000000000148061042257507f01ffc9a7000000000000000000000000000000000000000000000000000000007fffffffff000000000000000000000000000000000000000000000000000000008316145b92915050565b60606003805461043790611110565b80601f016020809104026020016040519081016040528092919081815260200182805461046390611110565b80156104b05780601f10610485576101008083540402835291602001916104b0565b820191906000526020600020905b81548152906001019060200180831161049357829003601f168201915b5050505050905090565b6000336104c881858561073a565b5060019392505050565b6000336104e0858285610892565b6104eb85858561091e565b506001949350505050565b60008281526005602052604090206001015461051181610b0b565b61051b8383610b18565b505050565b6001600160a01b03811633146105a35760405162461bcd60e51b815260206004820152602f60248201527f416363657373436f6e74726f6c3a2063616e206f6e6c792072656e6f756e636560448201527f20726f6c657320666f722073656c66000000000000000000000000000000000060648201526084015b60405180910390fd5b6105ad8282610bba565b5050565b3360008181526001602090815260408083206001600160a01b03871684529091528120549091906104c890829086906105eb908790611160565b61073a565b7f9f2df0fed2c77648de5860a4cc508cd0818c85b8b8a1ab4ceeef8d981c8956a661061a81610b0b565b61051b8383610c3d565b6001600160a01b0381166000908152602081905260409020546106488284836104d2565b50505050565b60606004805461043790611110565b3360008181526001602090815260408083206001600160a01b0387168452909152812054909190838110156106fa5760405162461bcd60e51b815260206004820152602560248201527f45524332303a2064656372656173656420616c6c6f77616e63652062656c6f7760448201527f207a65726f000000000000000000000000000000000000000000000000000000606482015260840161059a565b6104eb828686840361073a565b6000336104c881858561091e565b60008281526005602052604090206001015461073081610b0b565b61051b8383610bba565b6001600160a01b0383166107b55760405162461bcd60e51b8152602060048201526024808201527f45524332303a20617070726f76652066726f6d20746865207a65726f2061646460448201527f7265737300000000000000000000000000000000000000000000000000000000606482015260840161059a565b6001600160a01b0382166108315760405162461bcd60e51b815260206004820152602260248201527f45524332303a20617070726f766520746f20746865207a65726f20616464726560448201527f7373000000000000000000000000000000000000000000000000000000000000606482015260840161059a565b6001600160a01b0383811660008181526001602090815260408083209487168084529482529182902085905590518481527f8c5be1e5ebec7d5bd14f71427d1e84f3dd0314c0f7b2291e5b200ac8c7c3b925910160405180910390a3505050565b6001600160a01b03838116600090815260016020908152604080832093861683529290522054600019811461064857818110156109115760405162461bcd60e51b815260206004820152601d60248201527f45524332303a20696e73756666696369656e7420616c6c6f77616e6365000000604482015260640161059a565b610648848484840361073a565b6001600160a01b03831661099a5760405162461bcd60e51b815260206004820152602560248201527f45524332303a207472616e736665722066726f6d20746865207a65726f20616460448201527f6472657373000000000000000000000000000000000000000000000000000000606482015260840161059a565b6001600160a01b038216610a165760405162461bcd60e51b815260206004820152602360248201527f45524332303a207472616e7366657220746f20746865207a65726f206164647260448201527f6573730000000000000000000000000000000000000000000000000000000000606482015260840161059a565b6001600160a01b03831660009081526020819052604090205481811015610aa55760405162461bcd60e51b815260206004820152602660248201527f45524332303a207472616e7366657220616d6f756e742065786365656473206260448201527f616c616e63650000000000000000000000000000000000000000000000000000606482015260840161059a565b6001600160a01b03848116600081815260208181526040808320878703905593871680835291849020805487019055925185815290927fddf252ad1be2c89b69c2b068fc378daa952ba7f163c4a11628f55a4df523b3ef910160405180910390a3610648565b610b158133610cfc565b50565b60008281526005602090815260408083206001600160a01b038516845290915290205460ff166105ad5760008281526005602090815260408083206001600160a01b03851684529091529020805460ff19166001179055610b763390565b6001600160a01b0316816001600160a01b0316837f2f8788117e7eff1d82e926ec794901d17c78024a50270940304540a733656f0d60405160405180910390a45050565b60008281526005602090815260408083206001600160a01b038516845290915290205460ff16156105ad5760008281526005602090815260408083206001600160a01b0385168085529252808320805460ff1916905551339285917ff6391f5c32d9c69d2a47ea670b442974b53935d1edc7fd64eb21e047a839171b9190a45050565b6001600160a01b038216610c935760405162461bcd60e51b815260206004820152601f60248201527f45524332303a206d696e7420746f20746865207a65726f206164647265737300604482015260640161059a565b8060026000828254610ca59190611160565b90915550506001600160a01b038216600081815260208181526040808320805486019055518481527fddf252ad1be2c89b69c2b068fc378daa952ba7f163c4a11628f55a4df523b3ef910160405180910390a35050565b60008281526005602090815260408083206001600160a01b038516845290915290205460ff166105ad57610d2f81610d71565b610d3a836020610d83565b604051602001610d4b929190611173565b60408051601f198184030181529082905262461bcd60e51b825261059a91600401610fd1565b60606104226001600160a01b03831660145b60606000610d928360026111f4565b610d9d906002611160565b67ffffffffffffffff811115610db557610db561120b565b6040519080825280601f01601f191660200182016040528015610ddf576020820181803683370190505b5090507f300000000000000000000000000000000000000000000000000000000000000081600081518110610e1657610e16611221565b60200101906001600160f81b031916908160001a9053507f780000000000000000000000000000000000000000000000000000000000000081600181518110610e6157610e61611221565b60200101906001600160f81b031916908160001a9053506000610e858460026111f4565b610e90906001611160565b90505b6001811115610f15577f303132333435363738396162636465660000000000000000000000000000000085600f1660108110610ed157610ed1611221565b1a60f81b828281518110610ee757610ee7611221565b60200101906001600160f81b031916908160001a90535060049490941c93610f0e81611237565b9050610e93565b508315610f645760405162461bcd60e51b815260206004820181905260248201527f537472696e67733a20686578206c656e67746820696e73756666696369656e74604482015260640161059a565b9392505050565b600060208284031215610f7d57600080fd5b81357fffffffff0000000000000000000000000000000000000000000000000000000081168114610f6457600080fd5b60005b83811015610fc8578181015183820152602001610fb0565b50506000910152565b6020815260008251806020840152610ff0816040850160208701610fad565b601f01601f19169190910160400192915050565b80356001600160a01b038116811461101b57600080fd5b919050565b6000806040838503121561103357600080fd5b61103c83611004565b946020939093013593505050565b60008060006060848603121561105f57600080fd5b61106884611004565b925061107660208501611004565b9150604084013590509250925092565b60006020828403121561109857600080fd5b5035919050565b600080604083850312156110b257600080fd5b823591506110c260208401611004565b90509250929050565b6000602082840312156110dd57600080fd5b610f6482611004565b600080604083850312156110f957600080fd5b61110283611004565b91506110c260208401611004565b600181811c9082168061112457607f821691505b60208210810361114457634e487b7160e01b600052602260045260246000fd5b50919050565b634e487b7160e01b600052601160045260246000fd5b808201808211156104225761042261114a565b7f416363657373436f6e74726f6c3a206163636f756e74200000000000000000008152600083516111ab816017850160208801610fad565b7f206973206d697373696e6720726f6c652000000000000000000000000000000060179184019182015283516111e8816028840160208801610fad565b01602801949350505050565b80820281158282048414176104225761042261114a565b634e487b7160e01b600052604160045260246000fd5b634e487b7160e01b600052603260045260246000fd5b6000816112465761124661114a565b50600019019056fea2646970667358221220f880eac256893cfba46819bfa10df34058bebc838e1a804c0c90b5727390616d64736f6c634300081300339f2df0fed2c77648de5860a4cc508cd0818c85b8b8a1ab4ceeef8d981c8956a6a26469706673582212202f6a868e52da60e1396168d42e8869d4cc70b5bab2727d15a05e1f429474c79964736f6c63430008130033","opcodes":"PUSH1 0x80 PUSH1 0x40 MSTORE CALLVALUE DUP1 ISZERO PUSH2 0x10 JUMPI PUSH1 0x0 DUP1 REVERT JUMPDEST POP PUSH1 0x2 DUP1 SLOAD PUSH1 0x1 PUSH1 0x1 PUSH1 0xA0 SHL SUB NOT AND CALLER OR SWAP1 SSTORE PUSH2 0x37F9 DUP1 PUSH2 0x32 PUSH1 0x0 CODECOPY PUSH1 0x0 RETURN INVALID PUSH1 0x80 PUSH1 0x40 MSTORE CALLVALUE DUP1 ISZERO PUSH2 0x10 JUMPI PUSH1 0x0 DUP1 REVERT JUMPDEST POP PUSH1 0x4 CALLDATASIZE LT PUSH2 0x67 JUMPI PUSH1 0x0 CALLDATALOAD PUSH1 0xE0 SHR DUP1 PUSH4 0x9AD1EE10 GT PUSH2 0x50 JUMPI DUP1 PUSH4 0x9AD1EE10 EQ PUSH2 0xB3 JUMPI DUP1 PUSH4 0x9E4E145D EQ PUSH2 0xC6 JUMPI DUP1 PUSH4 0xB2410DED EQ PUSH2 0xDB JUMPI PUSH1 0x0 DUP1 REVERT JUMPDEST DUP1 PUSH4 0x161FA31E EQ PUSH2 0x6C JUMPI DUP1 PUSH4 0x8DA5CB5B EQ PUSH2 0x88 JUMPI JUMPDEST PUSH1 0x0 DUP1 REVERT JUMPDEST PUSH2 0x75 PUSH1 0x1 SLOAD DUP2 JUMP JUMPDEST PUSH1 0x40 MLOAD SWAP1 DUP2 MSTORE PUSH1 0x20 ADD JUMPDEST PUSH1 0x40 MLOAD DUP1 SWAP2 SUB SWAP1 RETURN JUMPDEST PUSH1 0x2 SLOAD PUSH2 0x9B SWAP1 PUSH1 0x1 PUSH1 0x1 PUSH1 0xA0 SHL SUB AND DUP2 JUMP JUMPDEST PUSH1 0x40 MLOAD PUSH1 0x1 PUSH1 0x1 PUSH1 0xA0 SHL SUB SWAP1 SWAP2 AND DUP2 MSTORE PUSH1 0x20 ADD PUSH2 0x7F JUMP JUMPDEST PUSH2 0x9B PUSH2 0xC1 CALLDATASIZE PUSH1 0x4 PUSH2 0x306 JUMP JUMPDEST PUSH2 0xEE JUMP JUMPDEST PUSH2 0xD9 PUSH2 0xD4 CALLDATASIZE PUSH1 0x4 PUSH2 0x33B JUMP JUMPDEST PUSH2 0x118 JUMP JUMPDEST STOP JUMPDEST PUSH2 0xD9 PUSH2 0xE9 CALLDATASIZE PUSH1 0x4 PUSH2 0x36E JUMP JUMPDEST PUSH2 0x1DB JUMP JUMPDEST PUSH1 0x0 DUP2 DUP2 SLOAD DUP2 LT PUSH2 0xFE JUMPI PUSH1 0x0 DUP1 REVERT JUMPDEST PUSH1 0x0 SWAP2 DUP3 MSTORE PUSH1 0x20 SWAP1 SWAP2 KECCAK256 ADD SLOAD PUSH1 0x1 PUSH1 0x1 PUSH1 0xA0 SHL SUB AND SWAP1 POP DUP2 JUMP JUMPDEST PUSH1 0x2 SLOAD PUSH1 0x1 PUSH1 0x1 PUSH1 0xA0 SHL SUB AND CALLER EQ PUSH2 0x163 JUMPI PUSH1 0x40 MLOAD PUSH3 0x461BCD PUSH1 0xE5 SHL DUP2 MSTORE PUSH1 0x20 PUSH1 0x4 DUP3 ADD MSTORE PUSH1 0x9 PUSH1 0x24 DUP3 ADD MSTORE PUSH9 0x37B7363CA7BBB732B9 PUSH1 0xB9 SHL PUSH1 0x44 DUP3 ADD MSTORE PUSH1 0x64 ADD JUMPDEST PUSH1 0x40 MLOAD DUP1 SWAP2 SUB SWAP1 REVERT JUMPDEST PUSH1 0x40 MLOAD PUSH32 0xF2FDE38B00000000000000000000000000000000000000000000000000000000 DUP2 MSTORE PUSH1 0x1 PUSH1 0x1 PUSH1 0xA0 SHL SUB DUP4 DUP2 AND PUSH1 0x4 DUP4 ADD MSTORE DUP3 AND SWAP1 PUSH4 0xF2FDE38B SWAP1 PUSH1 0x24 ADD PUSH1 0x0 PUSH1 0x40 MLOAD DUP1 DUP4 SUB DUP2 PUSH1 0x0 DUP8 DUP1 EXTCODESIZE ISZERO DUP1 ISZERO PUSH2 0x1BF JUMPI PUSH1 0x0 DUP1 REVERT JUMPDEST POP GAS CALL ISZERO DUP1 ISZERO PUSH2 0x1D3 JUMPI RETURNDATASIZE PUSH1 0x0 DUP1 RETURNDATACOPY RETURNDATASIZE PUSH1 0x0 REVERT JUMPDEST POP POP POP POP POP POP JUMP JUMPDEST PUSH1 0x2 SLOAD PUSH1 0x1 PUSH1 0x1 PUSH1 0xA0 SHL SUB AND CALLER EQ PUSH2 0x221 JUMPI PUSH1 0x40 MLOAD PUSH3 0x461BCD PUSH1 0xE5 SHL DUP2 MSTORE PUSH1 0x20 PUSH1 0x4 DUP3 ADD MSTORE PUSH1 0x9 PUSH1 0x24 DUP3 ADD MSTORE PUSH9 0x37B7363CA7BBB732B9 PUSH1 0xB9 SHL PUSH1 0x44 DUP3 ADD MSTORE PUSH1 0x64 ADD PUSH2 0x15A JUMP JUMPDEST PUSH1 0x0 DUP6 DUP6 DUP6 DUP6 DUP6 PUSH1 0x40 MLOAD PUSH2 0x234 SWAP1 PUSH2 0x2F9 JUMP JUMPDEST SWAP5 DUP6 MSTORE PUSH1 0x20 DUP6 ADD SWAP4 SWAP1 SWAP4 MSTORE PUSH1 0x40 DUP5 ADD SWAP2 SWAP1 SWAP2 MSTORE PUSH1 0x60 DUP4 ADD MSTORE PUSH1 0x1 PUSH1 0x1 PUSH1 0xA0 SHL SUB AND PUSH1 0x80 DUP3 ADD MSTORE PUSH1 0xA0 ADD PUSH1 0x40 MLOAD DUP1 SWAP2 SUB SWAP1 PUSH1 0x0 CREATE DUP1 ISZERO DUP1 ISZERO PUSH2 0x279 JUMPI RETURNDATASIZE PUSH1 0x0 DUP1 RETURNDATACOPY RETURNDATASIZE PUSH1 0x0 REVERT JUMPDEST POP PUSH1 0x0 DUP1 SLOAD PUSH1 0x1 DUP1 DUP3 ADD DUP4 SSTORE DUP3 DUP1 MSTORE PUSH32 0x290DECD9548B62A8D60345A988386FC84BA6BC95484008F6362F93160EF3E563 SWAP1 SWAP2 ADD DUP1 SLOAD PUSH32 0xFFFFFFFFFFFFFFFFFFFFFFFF0000000000000000000000000000000000000000 AND PUSH1 0x1 PUSH1 0x1 PUSH1 0xA0 SHL SUB DUP6 AND OR SWAP1 SSTORE DUP1 SLOAD SWAP3 SWAP4 POP SWAP1 PUSH2 0x2EC DUP4 PUSH2 0x3B7 JUMP JUMPDEST SWAP2 SWAP1 POP SSTORE POP POP POP POP POP POP POP JUMP JUMPDEST PUSH2 0x33CC DUP1 PUSH2 0x3F8 DUP4 CODECOPY ADD SWAP1 JUMP JUMPDEST PUSH1 0x0 PUSH1 0x20 DUP3 DUP5 SUB SLT ISZERO PUSH2 0x318 JUMPI PUSH1 0x0 DUP1 REVERT JUMPDEST POP CALLDATALOAD SWAP2 SWAP1 POP JUMP JUMPDEST DUP1 CALLDATALOAD PUSH1 0x1 PUSH1 0x1 PUSH1 0xA0 SHL SUB DUP2 AND DUP2 EQ PUSH2 0x336 JUMPI PUSH1 0x0 DUP1 REVERT JUMPDEST SWAP2 SWAP1 POP JUMP JUMPDEST PUSH1 0x0 DUP1 PUSH1 0x40 DUP4 DUP6 SUB SLT ISZERO PUSH2 0x34E JUMPI PUSH1 0x0 DUP1 REVERT JUMPDEST PUSH2 0x357 DUP4 PUSH2 0x31F JUMP JUMPDEST SWAP2 POP PUSH2 0x365 PUSH1 0x20 DUP5 ADD PUSH2 0x31F JUMP JUMPDEST SWAP1 POP SWAP3 POP SWAP3 SWAP1 POP JUMP JUMPDEST PUSH1 0x0 DUP1 PUSH1 0x0 DUP1 PUSH1 0x0 PUSH1 0xA0 DUP7 DUP9 SUB SLT ISZERO PUSH2 0x386 JUMPI PUSH1 0x0 DUP1 REVERT JUMPDEST DUP6 CALLDATALOAD SWAP5 POP PUSH1 0x20 DUP7 ADD CALLDATALOAD SWAP4 POP PUSH1 0x40 DUP7 ADD CALLDATALOAD SWAP3 POP PUSH1 0x60 DUP7 ADD CALLDATALOAD SWAP2 POP PUSH2 0x3AB PUSH1 0x80 DUP8 ADD PUSH2 0x31F JUMP JUMPDEST SWAP1 POP SWAP3 SWAP6 POP SWAP3 SWAP6 SWAP1 SWAP4 POP JUMP JUMPDEST PUSH1 0x0 PUSH1 0x1 DUP3 ADD PUSH2 0x3F0 JUMPI PUSH32 0x4E487B7100000000000000000000000000000000000000000000000000000000 PUSH1 0x0 MSTORE PUSH1 0x11 PUSH1 0x4 MSTORE PUSH1 0x24 PUSH1 0x0 REVERT JUMPDEST POP PUSH1 0x1 ADD SWAP1 JUMP INVALID PUSH1 0x80 PUSH1 0x40 MSTORE CALLVALUE DUP1 ISZERO PUSH3 0x11 JUMPI PUSH1 0x0 DUP1 REVERT JUMPDEST POP PUSH1 0x40 MLOAD PUSH3 0x33CC CODESIZE SUB DUP1 PUSH3 0x33CC DUP4 CODECOPY DUP2 ADD PUSH1 0x40 DUP2 SWAP1 MSTORE PUSH3 0x34 SWAP2 PUSH3 0x218 JUMP JUMPDEST PUSH3 0x3F CALLER PUSH3 0x1BA JUMP JUMPDEST PUSH1 0x1 DUP6 SWAP1 SSTORE PUSH1 0x2 DUP5 SWAP1 SSTORE PUSH1 0x3 DUP4 SWAP1 SSTORE PUSH1 0x4 DUP3 SWAP1 SSTORE PUSH1 0x40 DUP1 MLOAD PUSH1 0x20 DUP2 ADD DUP8 SWAP1 MSTORE DUP1 DUP3 ADD SWAP2 SWAP1 SWAP2 MSTORE PUSH1 0x9 PUSH1 0x60 DUP3 ADD MSTORE PUSH9 0x2CA2A9AFAA27A5A2A7 PUSH1 0xB9 SHL PUSH1 0x80 DUP3 ADD MSTORE PUSH1 0x0 SWAP1 PUSH1 0xA0 ADD PUSH1 0x40 DUP1 MLOAD PUSH1 0x1F NOT DUP2 DUP5 SUB ADD DUP2 MSTORE DUP3 DUP3 MSTORE PUSH1 0x20 DUP4 ADD DUP10 SWAP1 MSTORE DUP3 DUP3 ADD SWAP2 SWAP1 SWAP2 MSTORE PUSH1 0x8 PUSH1 0x60 DUP4 ADD MSTORE PUSH8 0x2727AFAA27A5A2A7 PUSH1 0xC1 SHL PUSH1 0x80 DUP4 ADD MSTORE SWAP2 POP PUSH1 0x0 SWAP1 PUSH1 0xA0 ADD PUSH1 0x40 MLOAD PUSH1 0x20 DUP2 DUP4 SUB SUB DUP2 MSTORE SWAP1 PUSH1 0x40 MSTORE SWAP1 POP DUP2 PUSH1 0x64 PUSH1 0x40 MLOAD PUSH3 0xE4 SWAP1 PUSH3 0x20A JUMP JUMPDEST PUSH3 0xF1 SWAP3 SWAP2 SWAP1 PUSH3 0x2BD JUMP JUMPDEST PUSH1 0x40 MLOAD DUP1 SWAP2 SUB SWAP1 PUSH1 0x0 CREATE DUP1 ISZERO DUP1 ISZERO PUSH3 0x10E JUMPI RETURNDATASIZE PUSH1 0x0 DUP1 RETURNDATACOPY RETURNDATASIZE PUSH1 0x0 REVERT JUMPDEST POP PUSH1 0x5 PUSH1 0x0 PUSH2 0x100 EXP DUP2 SLOAD DUP2 PUSH1 0x1 PUSH1 0x1 PUSH1 0xA0 SHL SUB MUL NOT AND SWAP1 DUP4 PUSH1 0x1 PUSH1 0x1 PUSH1 0xA0 SHL SUB AND MUL OR SWAP1 SSTORE POP DUP1 PUSH1 0x64 PUSH1 0x40 MLOAD PUSH3 0x146 SWAP1 PUSH3 0x20A JUMP JUMPDEST PUSH3 0x153 SWAP3 SWAP2 SWAP1 PUSH3 0x301 JUMP JUMPDEST PUSH1 0x40 MLOAD DUP1 SWAP2 SUB SWAP1 PUSH1 0x0 CREATE DUP1 ISZERO DUP1 ISZERO PUSH3 0x170 JUMPI RETURNDATASIZE PUSH1 0x0 DUP1 RETURNDATACOPY RETURNDATASIZE PUSH1 0x0 REVERT JUMPDEST POP PUSH1 0x6 DUP1 SLOAD PUSH1 0x1 PUSH1 0x1 PUSH1 0xA0 SHL SUB NOT AND PUSH1 0x1 PUSH1 0x1 PUSH1 0xA0 SHL SUB SWAP3 DUP4 AND OR SWAP1 SSTORE PUSH1 0x9 DUP1 SLOAD PUSH3 0x10000 PUSH1 0x1 PUSH1 0xB0 SHL SUB NOT AND PUSH3 0x10000 SWAP6 SWAP1 SWAP3 AND SWAP5 SWAP1 SWAP5 MUL OR SWAP1 SWAP3 SSTORE POP PUSH3 0x344 SWAP5 POP POP POP POP POP JUMP JUMPDEST PUSH1 0x0 DUP1 SLOAD PUSH1 0x1 PUSH1 0x1 PUSH1 0xA0 SHL SUB DUP4 DUP2 AND PUSH1 0x1 PUSH1 0x1 PUSH1 0xA0 SHL SUB NOT DUP4 AND DUP2 OR DUP5 SSTORE PUSH1 0x40 MLOAD SWAP2 SWAP1 SWAP3 AND SWAP3 DUP4 SWAP2 PUSH32 0x8BE0079C531659141344CD1FD0A4F28419497F9722A3DAAFE3B4186F6B6457E0 SWAP2 SWAP1 LOG3 POP POP JUMP JUMPDEST PUSH2 0x1B0B DUP1 PUSH3 0x18C1 DUP4 CODECOPY ADD SWAP1 JUMP JUMPDEST PUSH1 0x0 DUP1 PUSH1 0x0 DUP1 PUSH1 0x0 PUSH1 0xA0 DUP7 DUP9 SUB SLT ISZERO PUSH3 0x231 JUMPI PUSH1 0x0 DUP1 REVERT JUMPDEST DUP6 MLOAD PUSH1 0x20 DUP8 ADD MLOAD PUSH1 0x40 DUP9 ADD MLOAD PUSH1 0x60 DUP10 ADD MLOAD PUSH1 0x80 DUP11 ADD MLOAD SWAP4 SWAP9 POP SWAP2 SWAP7 POP SWAP5 POP SWAP3 POP PUSH1 0x1 PUSH1 0x1 PUSH1 0xA0 SHL SUB DUP2 AND DUP2 EQ PUSH3 0x267 JUMPI PUSH1 0x0 DUP1 REVERT JUMPDEST DUP1 SWAP2 POP POP SWAP3 SWAP6 POP SWAP3 SWAP6 SWAP1 SWAP4 POP JUMP JUMPDEST PUSH1 0x0 DUP2 MLOAD DUP1 DUP5 MSTORE PUSH1 0x0 JUMPDEST DUP2 DUP2 LT ISZERO PUSH3 0x29D JUMPI PUSH1 0x20 DUP2 DUP6 ADD DUP2 ADD MLOAD DUP7 DUP4 ADD DUP3 ADD MSTORE ADD PUSH3 0x27F JUMP JUMPDEST POP PUSH1 0x0 PUSH1 0x20 DUP3 DUP7 ADD ADD MSTORE PUSH1 0x20 PUSH1 0x1F NOT PUSH1 0x1F DUP4 ADD AND DUP6 ADD ADD SWAP2 POP POP SWAP3 SWAP2 POP POP JUMP JUMPDEST PUSH1 0x60 DUP2 MSTORE PUSH1 0x0 PUSH3 0x2D2 PUSH1 0x60 DUP4 ADD DUP6 PUSH3 0x275 JUMP JUMPDEST DUP3 DUP2 SUB PUSH1 0x20 DUP5 ADD MSTORE PUSH1 0x6 DUP2 MSTORE PUSH6 0x2CA2A9AA25A7 PUSH1 0xD1 SHL PUSH1 0x20 DUP3 ADD MSTORE PUSH1 0x40 DUP2 ADD SWAP2 POP POP DUP3 PUSH1 0x40 DUP4 ADD MSTORE SWAP4 SWAP3 POP POP POP JUMP JUMPDEST PUSH1 0x60 DUP2 MSTORE PUSH1 0x0 PUSH3 0x316 PUSH1 0x60 DUP4 ADD DUP6 PUSH3 0x275 JUMP JUMPDEST DUP3 DUP2 SUB PUSH1 0x20 DUP5 ADD MSTORE PUSH1 0x5 DUP2 MSTORE PUSH5 0x2727AA25A7 PUSH1 0xD9 SHL PUSH1 0x20 DUP3 ADD MSTORE PUSH1 0x40 DUP2 ADD SWAP2 POP POP DUP3 PUSH1 0x40 DUP4 ADD MSTORE SWAP4 SWAP3 POP POP POP JUMP JUMPDEST PUSH2 0x156D DUP1 PUSH3 0x354 PUSH1 0x0 CODECOPY PUSH1 0x0 RETURN INVALID PUSH1 0x80 PUSH1 0x40 MSTORE PUSH1 0x4 CALLDATASIZE LT PUSH2 0x18B JUMPI PUSH1 0x0 CALLDATALOAD PUSH1 0xE0 SHR DUP1 PUSH4 0x8F775839 GT PUSH2 0xD6 JUMPI DUP1 PUSH4 0xC217573D GT PUSH2 0x7F JUMPI DUP1 PUSH4 0xF0D9BB20 GT PUSH2 0x59 JUMPI DUP1 PUSH4 0xF0D9BB20 EQ PUSH2 0x48B JUMPI DUP1 PUSH4 0xF2FDE38B EQ PUSH2 0x4AB JUMPI DUP1 PUSH4 0xFB286C65 EQ PUSH2 0x4CB JUMPI PUSH1 0x0 DUP1 REVERT JUMPDEST DUP1 PUSH4 0xC217573D EQ PUSH2 0x41B JUMPI DUP1 PUSH4 0xC8323585 EQ PUSH2 0x44B JUMPI DUP1 PUSH4 0xDCB3B30E EQ PUSH2 0x478 JUMPI PUSH1 0x0 DUP1 REVERT JUMPDEST DUP1 PUSH4 0xB021F567 GT PUSH2 0xB0 JUMPI DUP1 PUSH4 0xB021F567 EQ PUSH2 0x3CF JUMPI DUP1 PUSH4 0xB066BC79 EQ PUSH2 0x3EF JUMPI DUP1 PUSH4 0xB5B47F42 EQ PUSH2 0x405 JUMPI PUSH1 0x0 DUP1 REVERT JUMPDEST DUP1 PUSH4 0x8F775839 EQ PUSH2 0x360 JUMPI DUP1 PUSH4 0x95B9C0B1 EQ PUSH2 0x37F JUMPI DUP1 PUSH4 0xA65A5BC9 EQ PUSH2 0x3AF JUMPI PUSH1 0x0 DUP1 REVERT JUMPDEST DUP1 PUSH4 0x4FA8094A GT PUSH2 0x138 JUMPI DUP1 PUSH4 0x78691F16 GT PUSH2 0x112 JUMPI DUP1 PUSH4 0x78691F16 EQ PUSH2 0x2FC JUMPI DUP1 PUSH4 0x7BB4D8AC EQ PUSH2 0x322 JUMPI DUP1 PUSH4 0x8DA5CB5B EQ PUSH2 0x342 JUMPI PUSH1 0x0 DUP1 REVERT JUMPDEST DUP1 PUSH4 0x4FA8094A EQ PUSH2 0x294 JUMPI DUP1 PUSH4 0x50DFDBFB EQ PUSH2 0x2D1 JUMPI DUP1 PUSH4 0x715018A6 EQ PUSH2 0x2E7 JUMPI PUSH1 0x0 DUP1 REVERT JUMPDEST DUP1 PUSH4 0x27BCE91B GT PUSH2 0x169 JUMPI DUP1 PUSH4 0x27BCE91B EQ PUSH2 0x22D JUMPI DUP1 PUSH4 0x3A98EF39 EQ PUSH2 0x251 JUMPI DUP1 PUSH4 0x3C3D3AF6 EQ PUSH2 0x267 JUMPI PUSH1 0x0 DUP1 REVERT JUMPDEST DUP1 PUSH4 0x11A9F10A EQ PUSH2 0x190 JUMPI DUP1 PUSH4 0x14D7ECBC EQ PUSH2 0x1CD JUMPI DUP1 PUSH4 0x17A591F2 EQ PUSH2 0x1E4 JUMPI JUMPDEST PUSH1 0x0 DUP1 REVERT JUMPDEST CALLVALUE DUP1 ISZERO PUSH2 0x19C JUMPI PUSH1 0x0 DUP1 REVERT JUMPDEST POP PUSH1 0x6 SLOAD PUSH2 0x1B0 SWAP1 PUSH1 0x1 PUSH1 0x1 PUSH1 0xA0 SHL SUB AND DUP2 JUMP JUMPDEST PUSH1 0x40 MLOAD PUSH1 0x1 PUSH1 0x1 PUSH1 0xA0 SHL SUB SWAP1 SWAP2 AND DUP2 MSTORE PUSH1 0x20 ADD JUMPDEST PUSH1 0x40 MLOAD DUP1 SWAP2 SUB SWAP1 RETURN JUMPDEST CALLVALUE DUP1 ISZERO PUSH2 0x1D9 JUMPI PUSH1 0x0 DUP1 REVERT JUMPDEST POP PUSH2 0x1E2 PUSH2 0x4E1 JUMP JUMPDEST STOP JUMPDEST CALLVALUE DUP1 ISZERO PUSH2 0x1F0 JUMPI PUSH1 0x0 DUP1 REVERT JUMPDEST POP PUSH2 0x21D PUSH2 0x1FF CALLDATASIZE PUSH1 0x4 PUSH2 0x13B4 JUMP JUMPDEST PUSH1 0x1 PUSH1 0x1 PUSH1 0xA0 SHL SUB AND PUSH1 0x0 SWAP1 DUP2 MSTORE PUSH1 0xC PUSH1 0x20 MSTORE PUSH1 0x40 SWAP1 KECCAK256 SLOAD PUSH1 0xFF AND SWAP1 JUMP JUMPDEST PUSH1 0x40 MLOAD SWAP1 ISZERO ISZERO DUP2 MSTORE PUSH1 0x20 ADD PUSH2 0x1C4 JUMP JUMPDEST CALLVALUE DUP1 ISZERO PUSH2 0x239 JUMPI PUSH1 0x0 DUP1 REVERT JUMPDEST POP PUSH2 0x243 PUSH1 0x1 SLOAD DUP2 JUMP JUMPDEST PUSH1 0x40 MLOAD SWAP1 DUP2 MSTORE PUSH1 0x20 ADD PUSH2 0x1C4 JUMP JUMPDEST CALLVALUE DUP1 ISZERO PUSH2 0x25D JUMPI PUSH1 0x0 DUP1 REVERT JUMPDEST POP PUSH2 0x243 PUSH1 0x2 SLOAD DUP2 JUMP JUMPDEST CALLVALUE DUP1 ISZERO PUSH2 0x273 JUMPI PUSH1 0x0 DUP1 REVERT JUMPDEST POP PUSH2 0x243 PUSH2 0x282 CALLDATASIZE PUSH1 0x4 PUSH2 0x13B4 JUMP JUMPDEST PUSH1 0xD PUSH1 0x20 MSTORE PUSH1 0x0 SWAP1 DUP2 MSTORE PUSH1 0x40 SWAP1 KECCAK256 SLOAD DUP2 JUMP JUMPDEST CALLVALUE DUP1 ISZERO PUSH2 0x2A0 JUMPI PUSH1 0x0 DUP1 REVERT JUMPDEST POP PUSH2 0x2C4 PUSH2 0x2AF CALLDATASIZE PUSH1 0x4 PUSH2 0x13B4 JUMP JUMPDEST PUSH1 0xA PUSH1 0x20 MSTORE PUSH1 0x0 SWAP1 DUP2 MSTORE PUSH1 0x40 SWAP1 KECCAK256 SLOAD PUSH1 0xFF AND DUP2 JUMP JUMPDEST PUSH1 0x40 MLOAD PUSH2 0x1C4 SWAP2 SWAP1 PUSH2 0x13FA JUMP JUMPDEST CALLVALUE DUP1 ISZERO PUSH2 0x2DD JUMPI PUSH1 0x0 DUP1 REVERT JUMPDEST POP PUSH2 0x243 PUSH1 0x3 SLOAD DUP2 JUMP JUMPDEST CALLVALUE DUP1 ISZERO PUSH2 0x2F3 JUMPI PUSH1 0x0 DUP1 REVERT JUMPDEST POP PUSH2 0x1E2 PUSH2 0x7E6 JUMP JUMPDEST CALLVALUE DUP1 ISZERO PUSH2 0x308 JUMPI PUSH1 0x0 DUP1 REVERT JUMPDEST POP PUSH1 0x9 SLOAD PUSH2 0x1B0 SWAP1 PUSH3 0x10000 SWAP1 DIV PUSH1 0x1 PUSH1 0x1 PUSH1 0xA0 SHL SUB AND DUP2 JUMP JUMPDEST CALLVALUE DUP1 ISZERO PUSH2 0x32E JUMPI PUSH1 0x0 DUP1 REVERT JUMPDEST POP PUSH2 0x1E2 PUSH2 0x33D CALLDATASIZE PUSH1 0x4 PUSH2 0x1436 JUMP JUMPDEST PUSH2 0x7FA JUMP JUMPDEST CALLVALUE DUP1 ISZERO PUSH2 0x34E JUMPI PUSH1 0x0 DUP1 REVERT JUMPDEST POP PUSH1 0x0 SLOAD PUSH1 0x1 PUSH1 0x1 PUSH1 0xA0 SHL SUB AND PUSH2 0x1B0 JUMP JUMPDEST CALLVALUE DUP1 ISZERO PUSH2 0x36C JUMPI PUSH1 0x0 DUP1 REVERT JUMPDEST POP PUSH1 0x9 SLOAD PUSH2 0x21D SWAP1 PUSH2 0x100 SWAP1 DIV PUSH1 0xFF AND DUP2 JUMP JUMPDEST CALLVALUE DUP1 ISZERO PUSH2 0x38B JUMPI PUSH1 0x0 DUP1 REVERT JUMPDEST POP PUSH2 0x21D PUSH2 0x39A CALLDATASIZE PUSH1 0x4 PUSH2 0x13B4 JUMP JUMPDEST PUSH1 0xC PUSH1 0x20 MSTORE PUSH1 0x0 SWAP1 DUP2 MSTORE PUSH1 0x40 SWAP1 KECCAK256 SLOAD PUSH1 0xFF AND DUP2 JUMP JUMPDEST CALLVALUE DUP1 ISZERO PUSH2 0x3BB JUMPI PUSH1 0x0 DUP1 REVERT JUMPDEST POP PUSH2 0x1E2 PUSH2 0x3CA CALLDATASIZE PUSH1 0x4 PUSH2 0x13B4 JUMP JUMPDEST PUSH2 0x90C JUMP JUMPDEST CALLVALUE DUP1 ISZERO PUSH2 0x3DB JUMPI PUSH1 0x0 DUP1 REVERT JUMPDEST POP PUSH2 0x1B0 PUSH2 0x3EA CALLDATASIZE PUSH1 0x4 PUSH2 0x1451 JUMP JUMPDEST PUSH2 0xB3D JUMP JUMPDEST CALLVALUE DUP1 ISZERO PUSH2 0x3FB JUMPI PUSH1 0x0 DUP1 REVERT JUMPDEST POP PUSH2 0x243 PUSH1 0x4 SLOAD DUP2 JUMP JUMPDEST CALLVALUE DUP1 ISZERO PUSH2 0x411 JUMPI PUSH1 0x0 DUP1 REVERT JUMPDEST POP PUSH2 0x243 PUSH1 0x8 SLOAD DUP2 JUMP JUMPDEST CALLVALUE DUP1 ISZERO PUSH2 0x427 JUMPI PUSH1 0x0 DUP1 REVERT JUMPDEST POP PUSH2 0x21D PUSH2 0x436 CALLDATASIZE PUSH1 0x4 PUSH2 0x13B4 JUMP JUMPDEST PUSH1 0xB PUSH1 0x20 MSTORE PUSH1 0x0 SWAP1 DUP2 MSTORE PUSH1 0x40 SWAP1 KECCAK256 SLOAD PUSH1 0xFF AND DUP2 JUMP JUMPDEST CALLVALUE DUP1 ISZERO PUSH2 0x457 JUMPI PUSH1 0x0 DUP1 REVERT JUMPDEST POP PUSH2 0x243 PUSH2 0x466 CALLDATASIZE PUSH1 0x4 PUSH2 0x13B4 JUMP JUMPDEST PUSH1 0xE PUSH1 0x20 MSTORE PUSH1 0x0 SWAP1 DUP2 MSTORE PUSH1 0x40 SWAP1 KECCAK256 SLOAD DUP2 JUMP JUMPDEST PUSH2 0x1E2 PUSH2 0x486 CALLDATASIZE PUSH1 0x4 PUSH2 0x146A JUMP JUMPDEST PUSH2 0xB67 JUMP JUMPDEST CALLVALUE DUP1 ISZERO PUSH2 0x497 JUMPI PUSH1 0x0 DUP1 REVERT JUMPDEST POP PUSH1 0x5 SLOAD PUSH2 0x1B0 SWAP1 PUSH1 0x1 PUSH1 0x1 PUSH1 0xA0 SHL SUB AND DUP2 JUMP JUMPDEST CALLVALUE DUP1 ISZERO PUSH2 0x4B7 JUMPI PUSH1 0x0 DUP1 REVERT JUMPDEST POP PUSH2 0x1E2 PUSH2 0x4C6 CALLDATASIZE PUSH1 0x4 PUSH2 0x13B4 JUMP JUMPDEST PUSH2 0x11D9 JUMP JUMPDEST CALLVALUE DUP1 ISZERO PUSH2 0x4D7 JUMPI PUSH1 0x0 DUP1 REVERT JUMPDEST POP PUSH2 0x243 PUSH1 0x7 SLOAD DUP2 JUMP JUMPDEST PUSH1 0x9 SLOAD PUSH2 0x100 SWAP1 DIV PUSH1 0xFF AND PUSH2 0x53D JUMPI PUSH1 0x40 MLOAD PUSH3 0x461BCD PUSH1 0xE5 SHL DUP2 MSTORE PUSH1 0x20 PUSH1 0x4 DUP3 ADD MSTORE PUSH1 0x12 PUSH1 0x24 DUP3 ADD MSTORE PUSH32 0x426574206973206E6F7420736174746C65640000000000000000000000000000 PUSH1 0x44 DUP3 ADD MSTORE PUSH1 0x64 ADD JUMPDEST PUSH1 0x40 MLOAD DUP1 SWAP2 SUB SWAP1 REVERT JUMPDEST CALLER PUSH1 0x0 SWAP1 DUP2 MSTORE PUSH1 0xA PUSH1 0x20 MSTORE PUSH1 0x40 SWAP1 KECCAK256 SLOAD PUSH1 0x9 SLOAD PUSH1 0xFF SWAP2 DUP3 AND SWAP2 AND PUSH1 0x1 DUP2 GT ISZERO PUSH2 0x568 JUMPI PUSH2 0x568 PUSH2 0x13E4 JUMP JUMPDEST DUP2 PUSH1 0x1 DUP2 GT ISZERO PUSH2 0x57A JUMPI PUSH2 0x57A PUSH2 0x13E4 JUMP JUMPDEST EQ PUSH2 0x5C7 JUMPI PUSH1 0x40 MLOAD PUSH3 0x461BCD PUSH1 0xE5 SHL DUP2 MSTORE PUSH1 0x20 PUSH1 0x4 DUP3 ADD MSTORE PUSH1 0x1F PUSH1 0x24 DUP3 ADD MSTORE PUSH32 0x596F7520617265206E6F74206F6E207468652077696E6E696E67207465616D00 PUSH1 0x44 DUP3 ADD MSTORE PUSH1 0x64 ADD PUSH2 0x534 JUMP JUMPDEST CALLER PUSH1 0x0 SWAP1 DUP2 MSTORE PUSH1 0xB PUSH1 0x20 MSTORE PUSH1 0x40 SWAP1 KECCAK256 SLOAD PUSH1 0xFF AND ISZERO PUSH2 0x627 JUMPI PUSH1 0x40 MLOAD PUSH3 0x461BCD PUSH1 0xE5 SHL DUP2 MSTORE PUSH1 0x20 PUSH1 0x4 DUP3 ADD MSTORE PUSH1 0x13 PUSH1 0x24 DUP3 ADD MSTORE PUSH32 0x42657420736574746C656420666F7220796F7500000000000000000000000000 PUSH1 0x44 DUP3 ADD MSTORE PUSH1 0x64 ADD PUSH2 0x534 JUMP JUMPDEST CALLER PUSH1 0x0 SWAP1 DUP2 MSTORE PUSH1 0xD PUSH1 0x20 SWAP1 DUP2 MSTORE PUSH1 0x40 DUP1 DUP4 KECCAK256 SLOAD PUSH1 0xB SWAP1 SWAP3 MSTORE SWAP2 DUP3 SWAP1 KECCAK256 DUP1 SLOAD PUSH1 0xFF NOT AND PUSH1 0x1 OR SWAP1 SSTORE PUSH1 0x9 SLOAD SWAP2 MLOAD PUSH32 0x95EA7B300000000000000000000000000000000000000000000000000000000 DUP2 MSTORE ADDRESS PUSH1 0x4 DUP3 ADD MSTORE PUSH1 0x24 DUP2 ADD DUP3 SWAP1 MSTORE SWAP1 SWAP2 PUSH3 0x10000 SWAP1 DIV PUSH1 0x1 PUSH1 0x1 PUSH1 0xA0 SHL SUB AND SWAP1 PUSH4 0x95EA7B3 SWAP1 PUSH1 0x44 ADD PUSH1 0x20 PUSH1 0x40 MLOAD DUP1 DUP4 SUB DUP2 PUSH1 0x0 DUP8 GAS CALL ISZERO DUP1 ISZERO PUSH2 0x6BD JUMPI RETURNDATASIZE PUSH1 0x0 DUP1 RETURNDATACOPY RETURNDATASIZE PUSH1 0x0 REVERT JUMPDEST POP POP POP POP PUSH1 0x40 MLOAD RETURNDATASIZE PUSH1 0x1F NOT PUSH1 0x1F DUP3 ADD AND DUP3 ADD DUP1 PUSH1 0x40 MSTORE POP DUP2 ADD SWAP1 PUSH2 0x6E1 SWAP2 SWAP1 PUSH2 0x1494 JUMP JUMPDEST PUSH2 0x72D JUMPI PUSH1 0x40 MLOAD PUSH3 0x461BCD PUSH1 0xE5 SHL DUP2 MSTORE PUSH1 0x20 PUSH1 0x4 DUP3 ADD MSTORE PUSH1 0xF PUSH1 0x24 DUP3 ADD MSTORE PUSH32 0x417070726F76616C206661696C65640000000000000000000000000000000000 PUSH1 0x44 DUP3 ADD MSTORE PUSH1 0x64 ADD PUSH2 0x534 JUMP JUMPDEST PUSH1 0x9 SLOAD PUSH3 0x10000 SWAP1 DIV PUSH1 0x1 PUSH1 0x1 PUSH1 0xA0 SHL SUB AND PUSH4 0x23B872DD ADDRESS CALLER PUSH2 0x751 DUP6 PUSH1 0x2 PUSH2 0x14CC JUMP JUMPDEST PUSH1 0x40 MLOAD PUSH32 0xFFFFFFFF00000000000000000000000000000000000000000000000000000000 PUSH1 0xE0 DUP7 SWAP1 SHL AND DUP2 MSTORE PUSH1 0x1 PUSH1 0x1 PUSH1 0xA0 SHL SUB SWAP4 DUP5 AND PUSH1 0x4 DUP3 ADD MSTORE SWAP3 SWAP1 SWAP2 AND PUSH1 0x24 DUP4 ADD MSTORE PUSH1 0x44 DUP3 ADD MSTORE PUSH1 0x64 ADD PUSH1 0x20 PUSH1 0x40 MLOAD DUP1 DUP4 SUB DUP2 PUSH1 0x0 DUP8 GAS CALL ISZERO DUP1 ISZERO PUSH2 0x7BD JUMPI RETURNDATASIZE PUSH1 0x0 DUP1 RETURNDATACOPY RETURNDATASIZE PUSH1 0x0 REVERT JUMPDEST POP POP POP POP PUSH1 0x40 MLOAD RETURNDATASIZE PUSH1 0x1F NOT PUSH1 0x1F DUP3 ADD AND DUP3 ADD DUP1 PUSH1 0x40 MSTORE POP DUP2 ADD SWAP1 PUSH2 0x7E1 SWAP2 SWAP1 PUSH2 0x1494 JUMP JUMPDEST POP POP POP JUMP JUMPDEST PUSH2 0x7EE PUSH2 0x1269 JUMP JUMPDEST PUSH2 0x7F8 PUSH1 0x0 PUSH2 0x12C3 JUMP JUMPDEST JUMP JUMPDEST PUSH2 0x802 PUSH2 0x1269 JUMP JUMPDEST PUSH1 0x0 DUP2 PUSH1 0x1 DUP2 GT ISZERO PUSH2 0x816 JUMPI PUSH2 0x816 PUSH2 0x13E4 JUMP JUMPDEST EQ DUP1 PUSH2 0x833 JUMPI POP PUSH1 0x1 DUP2 PUSH1 0x1 DUP2 GT ISZERO PUSH2 0x831 JUMPI PUSH2 0x831 PUSH2 0x13E4 JUMP JUMPDEST EQ JUMPDEST PUSH2 0x87F JUMPI PUSH1 0x40 MLOAD PUSH3 0x461BCD PUSH1 0xE5 SHL DUP2 MSTORE PUSH1 0x20 PUSH1 0x4 DUP3 ADD MSTORE PUSH1 0xE PUSH1 0x24 DUP3 ADD MSTORE PUSH32 0x496E76616C6964206F7074696F6E000000000000000000000000000000000000 PUSH1 0x44 DUP3 ADD MSTORE PUSH1 0x64 ADD PUSH2 0x534 JUMP JUMPDEST PUSH1 0x9 SLOAD PUSH2 0x100 SWAP1 DIV PUSH1 0xFF AND ISZERO PUSH2 0x8D7 JUMPI PUSH1 0x40 MLOAD PUSH3 0x461BCD PUSH1 0xE5 SHL DUP2 MSTORE PUSH1 0x20 PUSH1 0x4 DUP3 ADD MSTORE PUSH1 0x16 PUSH1 0x24 DUP3 ADD MSTORE PUSH32 0x42657420697320616C726561647920736574746C656400000000000000000000 PUSH1 0x44 DUP3 ADD MSTORE PUSH1 0x64 ADD PUSH2 0x534 JUMP JUMPDEST PUSH1 0x9 DUP1 SLOAD DUP3 SWAP2 SWAP1 PUSH1 0xFF NOT AND PUSH1 0x1 DUP4 DUP2 DUP2 GT ISZERO PUSH2 0x8F5 JUMPI PUSH2 0x8F5 PUSH2 0x13E4 JUMP JUMPDEST MUL OR SWAP1 SSTORE POP POP PUSH1 0x9 DUP1 SLOAD PUSH2 0xFF00 NOT AND PUSH2 0x100 OR SWAP1 SSTORE JUMP JUMPDEST CALLER PUSH1 0x0 SWAP1 DUP2 MSTORE PUSH1 0xC PUSH1 0x20 MSTORE PUSH1 0x40 SWAP1 KECCAK256 SLOAD PUSH1 0xFF AND PUSH2 0x96B JUMPI PUSH1 0x40 MLOAD PUSH3 0x461BCD PUSH1 0xE5 SHL DUP2 MSTORE PUSH1 0x20 PUSH1 0x4 DUP3 ADD MSTORE PUSH1 0x17 PUSH1 0x24 DUP3 ADD MSTORE PUSH32 0x4E6F7420706C6163656420706C61636564206120626574000000000000000000 PUSH1 0x44 DUP3 ADD MSTORE PUSH1 0x64 ADD PUSH2 0x534 JUMP JUMPDEST CALLER PUSH1 0x0 SWAP1 DUP2 MSTORE PUSH1 0xA PUSH1 0x20 SWAP1 DUP2 MSTORE PUSH1 0x40 DUP1 DUP4 KECCAK256 SLOAD PUSH1 0xE DUP4 MSTORE DUP2 DUP5 KECCAK256 SLOAD PUSH1 0xD SWAP1 SWAP4 MSTORE SWAP1 DUP4 KECCAK256 SLOAD PUSH1 0xFF SWAP1 SWAP2 AND SWAP3 DUP4 PUSH1 0x1 DUP2 GT ISZERO PUSH2 0x9A7 JUMPI PUSH2 0x9A7 PUSH2 0x13E4 JUMP JUMPDEST EQ PUSH2 0x9BD JUMPI PUSH1 0x6 SLOAD PUSH1 0x1 PUSH1 0x1 PUSH1 0xA0 SHL SUB AND PUSH2 0x9CA JUMP JUMPDEST PUSH1 0x5 SLOAD PUSH1 0x1 PUSH1 0x1 PUSH1 0xA0 SHL SUB AND JUMPDEST PUSH1 0x40 MLOAD PUSH32 0x740371CC00000000000000000000000000000000000000000000000000000000 DUP2 MSTORE PUSH1 0x1 PUSH1 0x1 PUSH1 0xA0 SHL SUB DUP7 DUP2 AND PUSH1 0x4 DUP4 ADD MSTORE CALLER PUSH1 0x24 DUP4 ADD MSTORE SWAP2 SWAP1 SWAP2 AND SWAP1 PUSH4 0x740371CC SWAP1 PUSH1 0x44 ADD PUSH1 0x0 PUSH1 0x40 MLOAD DUP1 DUP4 SUB DUP2 PUSH1 0x0 DUP8 DUP1 EXTCODESIZE ISZERO DUP1 ISZERO PUSH2 0xA2E JUMPI PUSH1 0x0 DUP1 REVERT JUMPDEST POP GAS CALL ISZERO DUP1 ISZERO PUSH2 0xA42 JUMPI RETURNDATASIZE PUSH1 0x0 DUP1 RETURNDATACOPY RETURNDATASIZE PUSH1 0x0 REVERT JUMPDEST POP POP CALLER PUSH1 0x0 SWAP1 DUP2 MSTORE PUSH1 0xC PUSH1 0x20 DUP2 DUP2 MSTORE PUSH1 0x40 DUP1 DUP5 KECCAK256 DUP1 SLOAD PUSH1 0xFF NOT SWAP1 DUP2 AND SWAP1 SWAP2 SSTORE PUSH1 0xA DUP1 DUP5 MSTORE DUP3 DUP7 KECCAK256 DUP1 SLOAD DUP4 AND SWAP1 SSTORE PUSH1 0xE DUP5 MSTORE DUP3 DUP7 KECCAK256 DUP7 SWAP1 SSTORE PUSH1 0x1 PUSH1 0x1 PUSH1 0xA0 SHL SUB DUP13 AND DUP7 MSTORE SWAP4 DUP4 MSTORE DUP2 DUP6 KECCAK256 DUP1 SLOAD DUP3 AND PUSH1 0x1 SWAP1 DUP2 OR SWAP1 SWAP2 SSTORE SWAP4 SWAP1 SWAP3 MSTORE SWAP1 SWAP3 KECCAK256 DUP1 SLOAD DUP9 SWAP6 POP SWAP1 SWAP4 POP SWAP1 SWAP2 AND SWAP1 DUP4 DUP2 DUP2 GT ISZERO PUSH2 0xABB JUMPI PUSH2 0xABB PUSH2 0x13E4 JUMP JUMPDEST MUL OR SWAP1 SSTORE POP PUSH1 0x1 PUSH1 0x1 PUSH1 0xA0 SHL SUB SWAP1 SWAP4 AND PUSH1 0x0 DUP2 DUP2 MSTORE PUSH1 0xD PUSH1 0x20 SWAP1 DUP2 MSTORE PUSH1 0x40 DUP1 DUP4 KECCAK256 SWAP7 SWAP1 SWAP7 SSTORE PUSH1 0xE SWAP1 MSTORE SWAP4 DUP5 KECCAK256 SWAP2 SWAP1 SWAP2 SSTORE PUSH1 0xF DUP1 SLOAD PUSH1 0x1 DUP2 ADD DUP3 SSTORE SWAP4 MSTORE PUSH32 0x8D1108E10BCB7C27DDDFC02ED9D693A074039D026CF4EA4240B40F7D581AC802 SWAP1 SWAP3 ADD DUP1 SLOAD PUSH20 0xFFFFFFFFFFFFFFFFFFFFFFFFFFFFFFFFFFFFFFFF NOT AND SWAP1 SWAP3 OR SWAP1 SWAP2 SSTORE POP JUMP JUMPDEST PUSH1 0xF DUP2 DUP2 SLOAD DUP2 LT PUSH2 0xB4D JUMPI PUSH1 0x0 DUP1 REVERT JUMPDEST PUSH1 0x0 SWAP2 DUP3 MSTORE PUSH1 0x20 SWAP1 SWAP2 KECCAK256 ADD SLOAD PUSH1 0x1 PUSH1 0x1 PUSH1 0xA0 SHL SUB AND SWAP1 POP DUP2 JUMP JUMPDEST PUSH1 0x0 DUP3 PUSH1 0x1 DUP2 GT ISZERO PUSH2 0xB7B JUMPI PUSH2 0xB7B PUSH2 0x13E4 JUMP JUMPDEST EQ DUP1 PUSH2 0xB98 JUMPI POP PUSH1 0x1 DUP3 PUSH1 0x1 DUP2 GT ISZERO PUSH2 0xB96 JUMPI PUSH2 0xB96 PUSH2 0x13E4 JUMP JUMPDEST EQ JUMPDEST PUSH2 0xBE4 JUMPI PUSH1 0x40 MLOAD PUSH3 0x461BCD PUSH1 0xE5 SHL DUP2 MSTORE PUSH1 0x20 PUSH1 0x4 DUP3 ADD MSTORE PUSH1 0xE PUSH1 0x24 DUP3 ADD MSTORE PUSH32 0x496E76616C6964206F7074696F6E000000000000000000000000000000000000 PUSH1 0x44 DUP3 ADD MSTORE PUSH1 0x64 ADD PUSH2 0x534 JUMP JUMPDEST PUSH1 0x9 SLOAD PUSH2 0x100 SWAP1 DIV PUSH1 0xFF AND ISZERO PUSH2 0xC3C JUMPI PUSH1 0x40 MLOAD PUSH3 0x461BCD PUSH1 0xE5 SHL DUP2 MSTORE PUSH1 0x20 PUSH1 0x4 DUP3 ADD MSTORE PUSH1 0xD PUSH1 0x24 DUP3 ADD MSTORE PUSH32 0x42657420697320636C6F73656400000000000000000000000000000000000000 PUSH1 0x44 DUP3 ADD MSTORE PUSH1 0x64 ADD PUSH2 0x534 JUMP JUMPDEST CALLER PUSH1 0x0 SWAP1 DUP2 MSTORE PUSH1 0xC PUSH1 0x20 MSTORE PUSH1 0x40 SWAP1 KECCAK256 SLOAD PUSH1 0xFF AND ISZERO PUSH2 0xC9C JUMPI PUSH1 0x40 MLOAD PUSH3 0x461BCD PUSH1 0xE5 SHL DUP2 MSTORE PUSH1 0x20 PUSH1 0x4 DUP3 ADD MSTORE PUSH1 0x14 PUSH1 0x24 DUP3 ADD MSTORE PUSH32 0x416C726561647920706C61636564206120626574000000000000000000000000 PUSH1 0x44 DUP3 ADD MSTORE PUSH1 0x64 ADD PUSH2 0x534 JUMP JUMPDEST PUSH1 0x2 SLOAD PUSH1 0x10 SLOAD GT ISZERO PUSH2 0xD16 JUMPI PUSH1 0x40 MLOAD PUSH3 0x461BCD PUSH1 0xE5 SHL DUP2 MSTORE PUSH1 0x20 PUSH1 0x4 DUP3 ADD MSTORE PUSH1 0x38 PUSH1 0x24 DUP3 ADD MSTORE PUSH32 0x526561636865642042657474696E67206C696D697420666F7220746869732062 PUSH1 0x44 DUP3 ADD MSTORE PUSH32 0x657420666F72206769766520736861726520616D6F756E740000000000000000 PUSH1 0x64 DUP3 ADD MSTORE PUSH1 0x84 ADD PUSH2 0x534 JUMP JUMPDEST PUSH1 0x0 DUP1 DUP4 PUSH1 0x1 DUP2 GT ISZERO PUSH2 0xD2B JUMPI PUSH2 0xD2B PUSH2 0x13E4 JUMP JUMPDEST EQ PUSH2 0xD38 JUMPI PUSH1 0x4 SLOAD PUSH2 0xD3C JUMP JUMPDEST PUSH1 0x3 SLOAD JUMPDEST SWAP1 POP PUSH1 0x0 PUSH2 0xD4A DUP4 DUP4 PUSH2 0x14CC JUMP JUMPDEST PUSH1 0x9 SLOAD PUSH1 0x40 MLOAD PUSH32 0x70A0823100000000000000000000000000000000000000000000000000000000 DUP2 MSTORE CALLER PUSH1 0x4 DUP3 ADD MSTORE SWAP2 SWAP3 POP DUP3 SWAP2 PUSH3 0x10000 SWAP1 SWAP2 DIV PUSH1 0x1 PUSH1 0x1 PUSH1 0xA0 SHL SUB AND SWAP1 PUSH4 0x70A08231 SWAP1 PUSH1 0x24 ADD PUSH1 0x20 PUSH1 0x40 MLOAD DUP1 DUP4 SUB DUP2 DUP7 GAS STATICCALL ISZERO DUP1 ISZERO PUSH2 0xDB5 JUMPI RETURNDATASIZE PUSH1 0x0 DUP1 RETURNDATACOPY RETURNDATASIZE PUSH1 0x0 REVERT JUMPDEST POP POP POP POP PUSH1 0x40 MLOAD RETURNDATASIZE PUSH1 0x1F NOT PUSH1 0x1F DUP3 ADD AND DUP3 ADD DUP1 PUSH1 0x40 MSTORE POP DUP2 ADD SWAP1 PUSH2 0xDD9 SWAP2 SWAP1 PUSH2 0x14E9 JUMP JUMPDEST LT ISZERO PUSH2 0xE27 JUMPI PUSH1 0x40 MLOAD PUSH3 0x461BCD PUSH1 0xE5 SHL DUP2 MSTORE PUSH1 0x20 PUSH1 0x4 DUP3 ADD MSTORE PUSH1 0x16 PUSH1 0x24 DUP3 ADD MSTORE PUSH32 0x4D53472056414C5545203E3D2062657420707269636500000000000000000000 PUSH1 0x44 DUP3 ADD MSTORE PUSH1 0x64 ADD PUSH2 0x534 JUMP JUMPDEST PUSH1 0x9 SLOAD PUSH1 0x40 MLOAD PUSH32 0xDD62ED3E00000000000000000000000000000000000000000000000000000000 DUP2 MSTORE CALLER PUSH1 0x4 DUP3 ADD MSTORE ADDRESS PUSH1 0x24 DUP3 ADD MSTORE DUP3 SWAP2 PUSH3 0x10000 SWAP1 DIV PUSH1 0x1 PUSH1 0x1 PUSH1 0xA0 SHL SUB AND SWAP1 PUSH4 0xDD62ED3E SWAP1 PUSH1 0x44 ADD PUSH1 0x20 PUSH1 0x40 MLOAD DUP1 DUP4 SUB DUP2 DUP7 GAS STATICCALL ISZERO DUP1 ISZERO PUSH2 0xE94 JUMPI RETURNDATASIZE PUSH1 0x0 DUP1 RETURNDATACOPY RETURNDATASIZE PUSH1 0x0 REVERT JUMPDEST POP POP POP POP PUSH1 0x40 MLOAD RETURNDATASIZE PUSH1 0x1F NOT PUSH1 0x1F DUP3 ADD AND DUP3 ADD DUP1 PUSH1 0x40 MSTORE POP DUP2 ADD SWAP1 PUSH2 0xEB8 SWAP2 SWAP1 PUSH2 0x14E9 JUMP JUMPDEST LT ISZERO PUSH2 0xF06 JUMPI PUSH1 0x40 MLOAD PUSH3 0x461BCD PUSH1 0xE5 SHL DUP2 MSTORE PUSH1 0x20 PUSH1 0x4 DUP3 ADD MSTORE PUSH1 0xC PUSH1 0x24 DUP3 ADD MSTORE PUSH32 0x4E6F20416C6C6F77616E63650000000000000000000000000000000000000000 PUSH1 0x44 DUP3 ADD MSTORE PUSH1 0x64 ADD PUSH2 0x534 JUMP JUMPDEST PUSH1 0x9 SLOAD PUSH1 0x40 MLOAD PUSH32 0x23B872DD00000000000000000000000000000000000000000000000000000000 DUP2 MSTORE CALLER PUSH1 0x4 DUP3 ADD MSTORE ADDRESS PUSH1 0x24 DUP3 ADD MSTORE PUSH1 0x44 DUP2 ADD DUP4 SWAP1 MSTORE PUSH3 0x10000 SWAP1 SWAP2 DIV PUSH1 0x1 PUSH1 0x1 PUSH1 0xA0 SHL SUB AND SWAP1 PUSH4 0x23B872DD SWAP1 PUSH1 0x64 ADD PUSH1 0x20 PUSH1 0x40 MLOAD DUP1 DUP4 SUB DUP2 PUSH1 0x0 DUP8 GAS CALL ISZERO DUP1 ISZERO PUSH2 0xF7B JUMPI RETURNDATASIZE PUSH1 0x0 DUP1 RETURNDATACOPY RETURNDATASIZE PUSH1 0x0 REVERT JUMPDEST POP POP POP POP PUSH1 0x40 MLOAD RETURNDATASIZE PUSH1 0x1F NOT PUSH1 0x1F DUP3 ADD AND DUP3 ADD DUP1 PUSH1 0x40 MSTORE POP DUP2 ADD SWAP1 PUSH2 0xF9F SWAP2 SWAP1 PUSH2 0x1494 JUMP JUMPDEST PUSH2 0xFEB JUMPI PUSH1 0x40 MLOAD PUSH3 0x461BCD PUSH1 0xE5 SHL DUP2 MSTORE PUSH1 0x20 PUSH1 0x4 DUP3 ADD MSTORE PUSH1 0x15 PUSH1 0x24 DUP3 ADD MSTORE PUSH32 0x546F6B656E207472616E73666572206661696C65640000000000000000000000 PUSH1 0x44 DUP3 ADD MSTORE PUSH1 0x64 ADD PUSH2 0x534 JUMP JUMPDEST PUSH1 0x0 DUP5 PUSH1 0x1 DUP2 GT ISZERO PUSH2 0xFFF JUMPI PUSH2 0xFFF PUSH2 0x13E4 JUMP JUMPDEST EQ PUSH2 0x1015 JUMPI PUSH1 0x6 SLOAD PUSH1 0x1 PUSH1 0x1 PUSH1 0xA0 SHL SUB AND PUSH2 0x1022 JUMP JUMPDEST PUSH1 0x5 SLOAD PUSH1 0x1 PUSH1 0x1 PUSH1 0xA0 SHL SUB AND JUMPDEST PUSH1 0x40 MLOAD PUSH32 0xA9059CBB00000000000000000000000000000000000000000000000000000000 DUP2 MSTORE CALLER PUSH1 0x4 DUP3 ADD MSTORE PUSH1 0x24 DUP2 ADD DUP6 SWAP1 MSTORE PUSH1 0x1 PUSH1 0x1 PUSH1 0xA0 SHL SUB SWAP2 SWAP1 SWAP2 AND SWAP1 PUSH4 0xA9059CBB SWAP1 PUSH1 0x44 ADD PUSH1 0x20 PUSH1 0x40 MLOAD DUP1 DUP4 SUB DUP2 PUSH1 0x0 DUP8 GAS CALL ISZERO DUP1 ISZERO PUSH2 0x108A JUMPI RETURNDATASIZE PUSH1 0x0 DUP1 RETURNDATACOPY RETURNDATASIZE PUSH1 0x0 REVERT JUMPDEST POP POP POP POP PUSH1 0x40 MLOAD RETURNDATASIZE PUSH1 0x1F NOT PUSH1 0x1F DUP3 ADD AND DUP3 ADD DUP1 PUSH1 0x40 MSTORE POP DUP2 ADD SWAP1 PUSH2 0x10AE SWAP2 SWAP1 PUSH2 0x1494 JUMP JUMPDEST PUSH2 0x10FA JUMPI PUSH1 0x40 MLOAD PUSH3 0x461BCD PUSH1 0xE5 SHL DUP2 MSTORE PUSH1 0x20 PUSH1 0x4 DUP3 ADD MSTORE PUSH1 0x1C PUSH1 0x24 DUP3 ADD MSTORE PUSH32 0x546F6B656E20536861726573207472616E73666572206661696C656400000000 PUSH1 0x44 DUP3 ADD MSTORE PUSH1 0x64 ADD PUSH2 0x534 JUMP JUMPDEST CALLER PUSH1 0x0 SWAP1 DUP2 MSTORE PUSH1 0xA PUSH1 0x20 MSTORE PUSH1 0x40 SWAP1 KECCAK256 DUP1 SLOAD DUP6 SWAP2 SWAP1 PUSH1 0xFF NOT AND PUSH1 0x1 DUP4 DUP2 DUP2 GT ISZERO PUSH2 0x1125 JUMPI PUSH2 0x1125 PUSH2 0x13E4 JUMP JUMPDEST MUL OR SWAP1 SSTORE POP CALLER PUSH1 0x0 SWAP1 DUP2 MSTORE PUSH1 0xC PUSH1 0x20 MSTORE PUSH1 0x40 DUP2 KECCAK256 DUP1 SLOAD PUSH1 0xFF NOT AND PUSH1 0x1 OR SWAP1 SSTORE PUSH1 0x10 DUP1 SLOAD DUP6 SWAP3 SWAP1 PUSH2 0x1156 SWAP1 DUP5 SWAP1 PUSH2 0x1502 JUMP JUMPDEST SWAP1 SWAP2 SSTORE POP POP CALLER PUSH1 0x0 SWAP1 DUP2 MSTORE PUSH1 0xE PUSH1 0x20 MSTORE PUSH1 0x40 DUP2 KECCAK256 DUP5 SWAP1 SSTORE DUP5 PUSH1 0x1 DUP2 GT ISZERO PUSH2 0x117F JUMPI PUSH2 0x117F PUSH2 0x13E4 JUMP JUMPDEST SUB PUSH2 0x11A1 JUMPI DUP3 PUSH1 0x7 PUSH1 0x0 DUP3 DUP3 SLOAD PUSH2 0x1196 SWAP2 SWAP1 PUSH2 0x1502 JUMP JUMPDEST SWAP1 SWAP2 SSTORE POP PUSH2 0x11B9 SWAP1 POP JUMP JUMPDEST DUP3 PUSH1 0x8 PUSH1 0x0 DUP3 DUP3 SLOAD PUSH2 0x11B3 SWAP2 SWAP1 PUSH2 0x1502 JUMP JUMPDEST SWAP1 SWAP2 SSTORE POP POP JUMPDEST CALLER PUSH1 0x0 SWAP1 DUP2 MSTORE PUSH1 0xD PUSH1 0x20 MSTORE PUSH1 0x40 SWAP1 KECCAK256 DUP3 SWAP1 SSTORE PUSH2 0x11D3 PUSH2 0x1320 JUMP JUMPDEST POP POP POP POP JUMP JUMPDEST PUSH2 0x11E1 PUSH2 0x1269 JUMP JUMPDEST PUSH1 0x1 PUSH1 0x1 PUSH1 0xA0 SHL SUB DUP2 AND PUSH2 0x125D JUMPI PUSH1 0x40 MLOAD PUSH3 0x461BCD PUSH1 0xE5 SHL DUP2 MSTORE PUSH1 0x20 PUSH1 0x4 DUP3 ADD MSTORE PUSH1 0x26 PUSH1 0x24 DUP3 ADD MSTORE PUSH32 0x4F776E61626C653A206E6577206F776E657220697320746865207A65726F2061 PUSH1 0x44 DUP3 ADD MSTORE PUSH32 0x6464726573730000000000000000000000000000000000000000000000000000 PUSH1 0x64 DUP3 ADD MSTORE PUSH1 0x84 ADD PUSH2 0x534 JUMP JUMPDEST PUSH2 0x1266 DUP2 PUSH2 0x12C3 JUMP JUMPDEST POP JUMP JUMPDEST PUSH1 0x0 SLOAD PUSH1 0x1 PUSH1 0x1 PUSH1 0xA0 SHL SUB AND CALLER EQ PUSH2 0x7F8 JUMPI PUSH1 0x40 MLOAD PUSH3 0x461BCD PUSH1 0xE5 SHL DUP2 MSTORE PUSH1 0x20 PUSH1 0x4 DUP3 ADD DUP2 SWAP1 MSTORE PUSH1 0x24 DUP3 ADD MSTORE PUSH32 0x4F776E61626C653A2063616C6C6572206973206E6F7420746865206F776E6572 PUSH1 0x44 DUP3 ADD MSTORE PUSH1 0x64 ADD PUSH2 0x534 JUMP JUMPDEST PUSH1 0x0 DUP1 SLOAD PUSH1 0x1 PUSH1 0x1 PUSH1 0xA0 SHL SUB DUP4 DUP2 AND PUSH20 0xFFFFFFFFFFFFFFFFFFFFFFFFFFFFFFFFFFFFFFFF NOT DUP4 AND DUP2 OR DUP5 SSTORE PUSH1 0x40 MLOAD SWAP2 SWAP1 SWAP3 AND SWAP3 DUP4 SWAP2 PUSH32 0x8BE0079C531659141344CD1FD0A4F28419497F9722A3DAAFE3B4186F6B6457E0 SWAP2 SWAP1 LOG3 POP POP JUMP JUMPDEST PUSH1 0x0 PUSH1 0x8 SLOAD PUSH1 0x7 SLOAD PUSH2 0x1332 SWAP2 SWAP1 PUSH2 0x1502 JUMP JUMPDEST SWAP1 POP DUP1 ISZERO PUSH2 0x1266 JUMPI PUSH1 0x7 SLOAD ISZERO PUSH2 0x1376 JUMPI PUSH2 0x134D DUP2 PUSH1 0x2 PUSH2 0x14CC JUMP JUMPDEST PUSH1 0x3 SLOAD DUP3 PUSH1 0x7 SLOAD PUSH2 0x135E SWAP2 SWAP1 PUSH2 0x14CC JUMP JUMPDEST PUSH2 0x1368 SWAP2 SWAP1 PUSH2 0x14CC JUMP JUMPDEST PUSH2 0x1372 SWAP2 SWAP1 PUSH2 0x1515 JUMP JUMPDEST PUSH1 0x3 SSTORE JUMPDEST PUSH1 0x8 SLOAD ISZERO PUSH2 0x1266 JUMPI PUSH2 0x1389 DUP2 PUSH1 0x2 PUSH2 0x14CC JUMP JUMPDEST PUSH1 0x4 SLOAD DUP3 PUSH1 0x8 SLOAD PUSH2 0x139A SWAP2 SWAP1 PUSH2 0x14CC JUMP JUMPDEST PUSH2 0x13A4 SWAP2 SWAP1 PUSH2 0x14CC JUMP JUMPDEST PUSH2 0x13AE SWAP2 SWAP1 PUSH2 0x1515 JUMP JUMPDEST PUSH1 0x4 SSTORE POP JUMP JUMPDEST PUSH1 0x0 PUSH1 0x20 DUP3 DUP5 SUB SLT ISZERO PUSH2 0x13C6 JUMPI PUSH1 0x0 DUP1 REVERT JUMPDEST DUP2 CALLDATALOAD PUSH1 0x1 PUSH1 0x1 PUSH1 0xA0 SHL SUB DUP2 AND DUP2 EQ PUSH2 0x13DD JUMPI PUSH1 0x0 DUP1 REVERT JUMPDEST SWAP4 SWAP3 POP POP POP JUMP JUMPDEST PUSH4 0x4E487B71 PUSH1 0xE0 SHL PUSH1 0x0 MSTORE PUSH1 0x21 PUSH1 0x4 MSTORE PUSH1 0x24 PUSH1 0x0 REVERT JUMPDEST PUSH1 0x20 DUP2 ADD PUSH1 0x2 DUP4 LT PUSH2 0x141C JUMPI PUSH4 0x4E487B71 PUSH1 0xE0 SHL PUSH1 0x0 MSTORE PUSH1 0x21 PUSH1 0x4 MSTORE PUSH1 0x24 PUSH1 0x0 REVERT JUMPDEST SWAP2 SWAP1 MSTORE SWAP1 JUMP JUMPDEST DUP1 CALLDATALOAD PUSH1 0x2 DUP2 LT PUSH2 0x1431 JUMPI PUSH1 0x0 DUP1 REVERT JUMPDEST SWAP2 SWAP1 POP JUMP JUMPDEST PUSH1 0x0 PUSH1 0x20 DUP3 DUP5 SUB SLT ISZERO PUSH2 0x1448 JUMPI PUSH1 0x0 DUP1 REVERT JUMPDEST PUSH2 0x13DD DUP3 PUSH2 0x1422 JUMP JUMPDEST PUSH1 0x0 PUSH1 0x20 DUP3 DUP5 SUB SLT ISZERO PUSH2 0x1463 JUMPI PUSH1 0x0 DUP1 REVERT JUMPDEST POP CALLDATALOAD SWAP2 SWAP1 POP JUMP JUMPDEST PUSH1 0x0 DUP1 PUSH1 0x40 DUP4 DUP6 SUB SLT ISZERO PUSH2 0x147D JUMPI PUSH1 0x0 DUP1 REVERT JUMPDEST PUSH2 0x1486 DUP4 PUSH2 0x1422 JUMP JUMPDEST SWAP5 PUSH1 0x20 SWAP4 SWAP1 SWAP4 ADD CALLDATALOAD SWAP4 POP POP POP JUMP JUMPDEST PUSH1 0x0 PUSH1 0x20 DUP3 DUP5 SUB SLT ISZERO PUSH2 0x14A6 JUMPI PUSH1 0x0 DUP1 REVERT JUMPDEST DUP2 MLOAD DUP1 ISZERO ISZERO DUP2 EQ PUSH2 0x13DD JUMPI PUSH1 0x0 DUP1 REVERT JUMPDEST PUSH4 0x4E487B71 PUSH1 0xE0 SHL PUSH1 0x0 MSTORE PUSH1 0x11 PUSH1 0x4 MSTORE PUSH1 0x24 PUSH1 0x0 REVERT JUMPDEST DUP1 DUP3 MUL DUP2 ISZERO DUP3 DUP3 DIV DUP5 EQ OR PUSH2 0x14E3 JUMPI PUSH2 0x14E3 PUSH2 0x14B6 JUMP JUMPDEST SWAP3 SWAP2 POP POP JUMP JUMPDEST PUSH1 0x0 PUSH1 0x20 DUP3 DUP5 SUB SLT ISZERO PUSH2 0x14FB JUMPI PUSH1 0x0 DUP1 REVERT JUMPDEST POP MLOAD SWAP2 SWAP1 POP JUMP JUMPDEST DUP1 DUP3 ADD DUP1 DUP3 GT ISZERO PUSH2 0x14E3 JUMPI PUSH2 0x14E3 PUSH2 0x14B6 JUMP JUMPDEST PUSH1 0x0 DUP3 PUSH2 0x1532 JUMPI PUSH4 0x4E487B71 PUSH1 0xE0 SHL PUSH1 0x0 MSTORE PUSH1 0x12 PUSH1 0x4 MSTORE PUSH1 0x24 PUSH1 0x0 REVERT JUMPDEST POP DIV SWAP1 JUMP INVALID LOG2 PUSH5 0x6970667358 0x22 SLT KECCAK256 DUP9 0xE1 STOP 0xD1 0x2E 0xCD SWAP4 SWAP14 PUSH29 0xA5C02665A4CBC75F707646443BB046F3360EEAA71E640264736F6C6343 STOP ADDMOD SGT STOP CALLER PUSH1 0x80 PUSH1 0x40 MSTORE CALLVALUE DUP1 ISZERO PUSH3 0x11 JUMPI PUSH1 0x0 DUP1 REVERT JUMPDEST POP PUSH1 0x40 MLOAD PUSH3 0x1B0B CODESIZE SUB DUP1 PUSH3 0x1B0B DUP4 CODECOPY DUP2 ADD PUSH1 0x40 DUP2 SWAP1 MSTORE PUSH3 0x34 SWAP2 PUSH3 0x566 JUMP JUMPDEST DUP3 DUP3 PUSH1 0x3 PUSH3 0x44 DUP4 DUP3 PUSH3 0x667 JUMP JUMPDEST POP PUSH1 0x4 PUSH3 0x53 DUP3 DUP3 PUSH3 0x667 JUMP JUMPDEST POP PUSH3 0x65 SWAP2 POP PUSH1 0x0 SWAP1 POP CALLER PUSH3 0xA8 JUMP JUMPDEST PUSH3 0x80 PUSH1 0x0 DUP1 MLOAD PUSH1 0x20 PUSH3 0x1AEB DUP4 CODECOPY DUP2 MLOAD SWAP2 MSTORE CALLER PUSH3 0xA8 JUMP JUMPDEST PUSH3 0x9F CALLER PUSH3 0x99 DUP4 PUSH8 0xDE0B6B3A7640000 PUSH3 0x749 JUMP JUMPDEST PUSH3 0x133 JUMP JUMPDEST POP POP POP PUSH3 0x857 JUMP JUMPDEST PUSH3 0xB4 DUP3 DUP3 PUSH3 0x15F JUMP JUMPDEST PUSH3 0x12F JUMPI PUSH1 0x0 DUP3 DUP2 MSTORE PUSH1 0x5 PUSH1 0x20 SWAP1 DUP2 MSTORE PUSH1 0x40 DUP1 DUP4 KECCAK256 PUSH1 0x1 PUSH1 0x1 PUSH1 0xA0 SHL SUB DUP6 AND DUP5 MSTORE SWAP1 SWAP2 MSTORE SWAP1 KECCAK256 DUP1 SLOAD PUSH1 0xFF NOT AND PUSH1 0x1 OR SWAP1 SSTORE PUSH3 0xEE CALLER SWAP1 JUMP JUMPDEST PUSH1 0x1 PUSH1 0x1 PUSH1 0xA0 SHL SUB AND DUP2 PUSH1 0x1 PUSH1 0x1 PUSH1 0xA0 SHL SUB AND DUP4 PUSH32 0x2F8788117E7EFF1D82E926EC794901D17C78024A50270940304540A733656F0D PUSH1 0x40 MLOAD PUSH1 0x40 MLOAD DUP1 SWAP2 SUB SWAP1 LOG4 JUMPDEST POP POP JUMP JUMPDEST PUSH1 0x0 DUP1 MLOAD PUSH1 0x20 PUSH3 0x1AEB DUP4 CODECOPY DUP2 MLOAD SWAP2 MSTORE PUSH3 0x14E DUP2 PUSH3 0x18C JUMP JUMPDEST PUSH3 0x15A DUP4 DUP4 PUSH3 0x19B JUMP JUMPDEST POP POP POP JUMP JUMPDEST PUSH1 0x0 DUP3 DUP2 MSTORE PUSH1 0x5 PUSH1 0x20 SWAP1 DUP2 MSTORE PUSH1 0x40 DUP1 DUP4 KECCAK256 PUSH1 0x1 PUSH1 0x1 PUSH1 0xA0 SHL SUB DUP6 AND DUP5 MSTORE SWAP1 SWAP2 MSTORE SWAP1 KECCAK256 SLOAD PUSH1 0xFF AND JUMPDEST SWAP3 SWAP2 POP POP JUMP JUMPDEST PUSH3 0x198 DUP2 CALLER PUSH3 0x262 JUMP JUMPDEST POP JUMP JUMPDEST PUSH1 0x1 PUSH1 0x1 PUSH1 0xA0 SHL SUB DUP3 AND PUSH3 0x1F7 JUMPI PUSH1 0x40 MLOAD PUSH3 0x461BCD PUSH1 0xE5 SHL DUP2 MSTORE PUSH1 0x20 PUSH1 0x4 DUP3 ADD MSTORE PUSH1 0x1F PUSH1 0x24 DUP3 ADD MSTORE PUSH32 0x45524332303A206D696E7420746F20746865207A65726F206164647265737300 PUSH1 0x44 DUP3 ADD MSTORE PUSH1 0x64 ADD JUMPDEST PUSH1 0x40 MLOAD DUP1 SWAP2 SUB SWAP1 REVERT JUMPDEST DUP1 PUSH1 0x2 PUSH1 0x0 DUP3 DUP3 SLOAD PUSH3 0x20B SWAP2 SWAP1 PUSH3 0x763 JUMP JUMPDEST SWAP1 SWAP2 SSTORE POP POP PUSH1 0x1 PUSH1 0x1 PUSH1 0xA0 SHL SUB DUP3 AND PUSH1 0x0 DUP2 DUP2 MSTORE PUSH1 0x20 DUP2 DUP2 MSTORE PUSH1 0x40 DUP1 DUP4 KECCAK256 DUP1 SLOAD DUP7 ADD SWAP1 SSTORE MLOAD DUP5 DUP2 MSTORE PUSH32 0xDDF252AD1BE2C89B69C2B068FC378DAA952BA7F163C4A11628F55A4DF523B3EF SWAP2 ADD PUSH1 0x40 MLOAD DUP1 SWAP2 SUB SWAP1 LOG3 POP POP JUMP JUMPDEST PUSH3 0x26E DUP3 DUP3 PUSH3 0x15F JUMP JUMPDEST PUSH3 0x12F JUMPI PUSH3 0x27E DUP2 PUSH3 0x2C6 JUMP JUMPDEST PUSH3 0x28B DUP4 PUSH1 0x20 PUSH3 0x2D9 JUMP JUMPDEST PUSH1 0x40 MLOAD PUSH1 0x20 ADD PUSH3 0x29E SWAP3 SWAP2 SWAP1 PUSH3 0x779 JUMP JUMPDEST PUSH1 0x40 DUP1 MLOAD PUSH1 0x1F NOT DUP2 DUP5 SUB ADD DUP2 MSTORE SWAP1 DUP3 SWAP1 MSTORE PUSH3 0x461BCD PUSH1 0xE5 SHL DUP3 MSTORE PUSH3 0x1EE SWAP2 PUSH1 0x4 ADD PUSH3 0x7F2 JUMP JUMPDEST PUSH1 0x60 PUSH3 0x186 PUSH1 0x1 PUSH1 0x1 PUSH1 0xA0 SHL SUB DUP4 AND PUSH1 0x14 JUMPDEST PUSH1 0x60 PUSH1 0x0 PUSH3 0x2EA DUP4 PUSH1 0x2 PUSH3 0x749 JUMP JUMPDEST PUSH3 0x2F7 SWAP1 PUSH1 0x2 PUSH3 0x763 JUMP JUMPDEST PUSH1 0x1 PUSH1 0x1 PUSH1 0x40 SHL SUB DUP2 GT ISZERO PUSH3 0x311 JUMPI PUSH3 0x311 PUSH3 0x499 JUMP JUMPDEST PUSH1 0x40 MLOAD SWAP1 DUP1 DUP3 MSTORE DUP1 PUSH1 0x1F ADD PUSH1 0x1F NOT AND PUSH1 0x20 ADD DUP3 ADD PUSH1 0x40 MSTORE DUP1 ISZERO PUSH3 0x33C JUMPI PUSH1 0x20 DUP3 ADD DUP2 DUP1 CALLDATASIZE DUP4 CALLDATACOPY ADD SWAP1 POP JUMPDEST POP SWAP1 POP PUSH1 0x3 PUSH1 0xFC SHL DUP2 PUSH1 0x0 DUP2 MLOAD DUP2 LT PUSH3 0x35A JUMPI PUSH3 0x35A PUSH3 0x827 JUMP JUMPDEST PUSH1 0x20 ADD ADD SWAP1 PUSH1 0x1 PUSH1 0x1 PUSH1 0xF8 SHL SUB NOT AND SWAP1 DUP2 PUSH1 0x0 BYTE SWAP1 MSTORE8 POP PUSH1 0xF PUSH1 0xFB SHL DUP2 PUSH1 0x1 DUP2 MLOAD DUP2 LT PUSH3 0x38C JUMPI PUSH3 0x38C PUSH3 0x827 JUMP JUMPDEST PUSH1 0x20 ADD ADD SWAP1 PUSH1 0x1 PUSH1 0x1 PUSH1 0xF8 SHL SUB NOT AND SWAP1 DUP2 PUSH1 0x0 BYTE SWAP1 MSTORE8 POP PUSH1 0x0 PUSH3 0x3B2 DUP5 PUSH1 0x2 PUSH3 0x749 JUMP JUMPDEST PUSH3 0x3BF SWAP1 PUSH1 0x1 PUSH3 0x763 JUMP JUMPDEST SWAP1 POP JUMPDEST PUSH1 0x1 DUP2 GT ISZERO PUSH3 0x441 JUMPI PUSH16 0x181899199A1A9B1B9C1CB0B131B232B3 PUSH1 0x81 SHL DUP6 PUSH1 0xF AND PUSH1 0x10 DUP2 LT PUSH3 0x3F7 JUMPI PUSH3 0x3F7 PUSH3 0x827 JUMP JUMPDEST BYTE PUSH1 0xF8 SHL DUP3 DUP3 DUP2 MLOAD DUP2 LT PUSH3 0x410 JUMPI PUSH3 0x410 PUSH3 0x827 JUMP JUMPDEST PUSH1 0x20 ADD ADD SWAP1 PUSH1 0x1 PUSH1 0x1 PUSH1 0xF8 SHL SUB NOT AND SWAP1 DUP2 PUSH1 0x0 BYTE SWAP1 MSTORE8 POP PUSH1 0x4 SWAP5 SWAP1 SWAP5 SHR SWAP4 PUSH3 0x439 DUP2 PUSH3 0x83D JUMP JUMPDEST SWAP1 POP PUSH3 0x3C2 JUMP JUMPDEST POP DUP4 ISZERO PUSH3 0x492 JUMPI PUSH1 0x40 MLOAD PUSH3 0x461BCD PUSH1 0xE5 SHL DUP2 MSTORE PUSH1 0x20 PUSH1 0x4 DUP3 ADD DUP2 SWAP1 MSTORE PUSH1 0x24 DUP3 ADD MSTORE PUSH32 0x537472696E67733A20686578206C656E67746820696E73756666696369656E74 PUSH1 0x44 DUP3 ADD MSTORE PUSH1 0x64 ADD PUSH3 0x1EE JUMP JUMPDEST SWAP4 SWAP3 POP POP POP JUMP JUMPDEST PUSH4 0x4E487B71 PUSH1 0xE0 SHL PUSH1 0x0 MSTORE PUSH1 0x41 PUSH1 0x4 MSTORE PUSH1 0x24 PUSH1 0x0 REVERT JUMPDEST PUSH1 0x0 JUMPDEST DUP4 DUP2 LT ISZERO PUSH3 0x4CC JUMPI DUP2 DUP2 ADD MLOAD DUP4 DUP3 ADD MSTORE PUSH1 0x20 ADD PUSH3 0x4B2 JUMP JUMPDEST POP POP PUSH1 0x0 SWAP2 ADD MSTORE JUMP JUMPDEST PUSH1 0x0 DUP3 PUSH1 0x1F DUP4 ADD SLT PUSH3 0x4E7 JUMPI PUSH1 0x0 DUP1 REVERT JUMPDEST DUP2 MLOAD PUSH1 0x1 PUSH1 0x1 PUSH1 0x40 SHL SUB DUP1 DUP3 GT ISZERO PUSH3 0x504 JUMPI PUSH3 0x504 PUSH3 0x499 JUMP JUMPDEST PUSH1 0x40 MLOAD PUSH1 0x1F DUP4 ADD PUSH1 0x1F NOT SWAP1 DUP2 AND PUSH1 0x3F ADD AND DUP2 ADD SWAP1 DUP3 DUP3 GT DUP2 DUP4 LT OR ISZERO PUSH3 0x52F JUMPI PUSH3 0x52F PUSH3 0x499 JUMP JUMPDEST DUP2 PUSH1 0x40 MSTORE DUP4 DUP2 MSTORE DUP7 PUSH1 0x20 DUP6 DUP9 ADD ADD GT ISZERO PUSH3 0x549 JUMPI PUSH1 0x0 DUP1 REVERT JUMPDEST PUSH3 0x55C DUP5 PUSH1 0x20 DUP4 ADD PUSH1 0x20 DUP10 ADD PUSH3 0x4AF JUMP JUMPDEST SWAP7 SWAP6 POP POP POP POP POP POP JUMP JUMPDEST PUSH1 0x0 DUP1 PUSH1 0x0 PUSH1 0x60 DUP5 DUP7 SUB SLT ISZERO PUSH3 0x57C JUMPI PUSH1 0x0 DUP1 REVERT JUMPDEST DUP4 MLOAD PUSH1 0x1 PUSH1 0x1 PUSH1 0x40 SHL SUB DUP1 DUP3 GT ISZERO PUSH3 0x594 JUMPI PUSH1 0x0 DUP1 REVERT JUMPDEST PUSH3 0x5A2 DUP8 DUP4 DUP9 ADD PUSH3 0x4D5 JUMP JUMPDEST SWAP5 POP PUSH1 0x20 DUP7 ADD MLOAD SWAP2 POP DUP1 DUP3 GT ISZERO PUSH3 0x5B9 JUMPI PUSH1 0x0 DUP1 REVERT JUMPDEST POP PUSH3 0x5C8 DUP7 DUP3 DUP8 ADD PUSH3 0x4D5 JUMP JUMPDEST SWAP3 POP POP PUSH1 0x40 DUP5 ADD MLOAD SWAP1 POP SWAP3 POP SWAP3 POP SWAP3 JUMP JUMPDEST PUSH1 0x1 DUP2 DUP2 SHR SWAP1 DUP3 AND DUP1 PUSH3 0x5EE JUMPI PUSH1 0x7F DUP3 AND SWAP2 POP JUMPDEST PUSH1 0x20 DUP3 LT DUP2 SUB PUSH3 0x60F JUMPI PUSH4 0x4E487B71 PUSH1 0xE0 SHL PUSH1 0x0 MSTORE PUSH1 0x22 PUSH1 0x4 MSTORE PUSH1 0x24 PUSH1 0x0 REVERT JUMPDEST POP SWAP2 SWAP1 POP JUMP JUMPDEST PUSH1 0x1F DUP3 GT ISZERO PUSH3 0x15A JUMPI PUSH1 0x0 DUP2 DUP2 MSTORE PUSH1 0x20 DUP2 KECCAK256 PUSH1 0x1F DUP6 ADD PUSH1 0x5 SHR DUP2 ADD PUSH1 0x20 DUP7 LT ISZERO PUSH3 0x63E JUMPI POP DUP1 JUMPDEST PUSH1 0x1F DUP6 ADD PUSH1 0x5 SHR DUP3 ADD SWAP2 POP JUMPDEST DUP2 DUP2 LT ISZERO PUSH3 0x65F JUMPI DUP3 DUP2 SSTORE PUSH1 0x1 ADD PUSH3 0x64A JUMP JUMPDEST POP POP POP POP POP POP JUMP JUMPDEST DUP2 MLOAD PUSH1 0x1 PUSH1 0x1 PUSH1 0x40 SHL SUB DUP2 GT ISZERO PUSH3 0x683 JUMPI PUSH3 0x683 PUSH3 0x499 JUMP JUMPDEST PUSH3 0x69B DUP2 PUSH3 0x694 DUP5 SLOAD PUSH3 0x5D9 JUMP JUMPDEST DUP5 PUSH3 0x615 JUMP JUMPDEST PUSH1 0x20 DUP1 PUSH1 0x1F DUP4 GT PUSH1 0x1 DUP2 EQ PUSH3 0x6D3 JUMPI PUSH1 0x0 DUP5 ISZERO PUSH3 0x6BA JUMPI POP DUP6 DUP4 ADD MLOAD JUMPDEST PUSH1 0x0 NOT PUSH1 0x3 DUP7 SWAP1 SHL SHR NOT AND PUSH1 0x1 DUP6 SWAP1 SHL OR DUP6 SSTORE PUSH3 0x65F JUMP JUMPDEST PUSH1 0x0 DUP6 DUP2 MSTORE PUSH1 0x20 DUP2 KECCAK256 PUSH1 0x1F NOT DUP7 AND SWAP2 JUMPDEST DUP3 DUP2 LT ISZERO PUSH3 0x704 JUMPI DUP9 DUP7 ADD MLOAD DUP3 SSTORE SWAP5 DUP5 ADD SWAP5 PUSH1 0x1 SWAP1 SWAP2 ADD SWAP1 DUP5 ADD PUSH3 0x6E3 JUMP JUMPDEST POP DUP6 DUP3 LT ISZERO PUSH3 0x723 JUMPI DUP8 DUP6 ADD MLOAD PUSH1 0x0 NOT PUSH1 0x3 DUP9 SWAP1 SHL PUSH1 0xF8 AND SHR NOT AND DUP2 SSTORE JUMPDEST POP POP POP POP POP PUSH1 0x1 SWAP1 DUP2 SHL ADD SWAP1 SSTORE POP JUMP JUMPDEST PUSH4 0x4E487B71 PUSH1 0xE0 SHL PUSH1 0x0 MSTORE PUSH1 0x11 PUSH1 0x4 MSTORE PUSH1 0x24 PUSH1 0x0 REVERT JUMPDEST DUP1 DUP3 MUL DUP2 ISZERO DUP3 DUP3 DIV DUP5 EQ OR PUSH3 0x186 JUMPI PUSH3 0x186 PUSH3 0x733 JUMP JUMPDEST DUP1 DUP3 ADD DUP1 DUP3 GT ISZERO PUSH3 0x186 JUMPI PUSH3 0x186 PUSH3 0x733 JUMP JUMPDEST PUSH32 0x416363657373436F6E74726F6C3A206163636F756E7420000000000000000000 DUP2 MSTORE PUSH1 0x0 DUP4 MLOAD PUSH3 0x7B3 DUP2 PUSH1 0x17 DUP6 ADD PUSH1 0x20 DUP9 ADD PUSH3 0x4AF JUMP JUMPDEST PUSH17 0x1034B99036B4B9B9B4B733903937B6329 PUSH1 0x7D SHL PUSH1 0x17 SWAP2 DUP5 ADD SWAP2 DUP3 ADD MSTORE DUP4 MLOAD PUSH3 0x7E6 DUP2 PUSH1 0x28 DUP5 ADD PUSH1 0x20 DUP9 ADD PUSH3 0x4AF JUMP JUMPDEST ADD PUSH1 0x28 ADD SWAP5 SWAP4 POP POP POP POP JUMP JUMPDEST PUSH1 0x20 DUP2 MSTORE PUSH1 0x0 DUP3 MLOAD DUP1 PUSH1 0x20 DUP5 ADD MSTORE PUSH3 0x813 DUP2 PUSH1 0x40 DUP6 ADD PUSH1 0x20 DUP8 ADD PUSH3 0x4AF JUMP JUMPDEST PUSH1 0x1F ADD PUSH1 0x1F NOT AND SWAP2 SWAP1 SWAP2 ADD PUSH1 0x40 ADD SWAP3 SWAP2 POP POP JUMP JUMPDEST PUSH4 0x4E487B71 PUSH1 0xE0 SHL PUSH1 0x0 MSTORE PUSH1 0x32 PUSH1 0x4 MSTORE PUSH1 0x24 PUSH1 0x0 REVERT JUMPDEST PUSH1 0x0 DUP2 PUSH3 0x84F JUMPI PUSH3 0x84F PUSH3 0x733 JUMP JUMPDEST POP PUSH1 0x0 NOT ADD SWAP1 JUMP JUMPDEST PUSH2 0x1284 DUP1 PUSH3 0x867 PUSH1 0x0 CODECOPY PUSH1 0x0 RETURN INVALID PUSH1 0x80 PUSH1 0x40 MSTORE CALLVALUE DUP1 ISZERO PUSH2 0x10 JUMPI PUSH1 0x0 DUP1 REVERT JUMPDEST POP PUSH1 0x4 CALLDATASIZE LT PUSH2 0x177 JUMPI PUSH1 0x0 CALLDATALOAD PUSH1 0xE0 SHR DUP1 PUSH4 0x40C10F19 GT PUSH2 0xD8 JUMPI DUP1 PUSH4 0xA217FDDF GT PUSH2 0x8C JUMPI DUP1 PUSH4 0xD5391393 GT PUSH2 0x66 JUMPI DUP1 PUSH4 0xD5391393 EQ PUSH2 0x31C JUMPI DUP1 PUSH4 0xD547741F EQ PUSH2 0x343 JUMPI DUP1 PUSH4 0xDD62ED3E EQ PUSH2 0x356 JUMPI PUSH1 0x0 DUP1 REVERT JUMPDEST DUP1 PUSH4 0xA217FDDF EQ PUSH2 0x2EE JUMPI DUP1 PUSH4 0xA457C2D7 EQ PUSH2 0x2F6 JUMPI DUP1 PUSH4 0xA9059CBB EQ PUSH2 0x309 JUMPI PUSH1 0x0 DUP1 REVERT JUMPDEST DUP1 PUSH4 0x740371CC GT PUSH2 0xBD JUMPI DUP1 PUSH4 0x740371CC EQ PUSH2 0x29A JUMPI DUP1 PUSH4 0x91D14854 EQ PUSH2 0x2AD JUMPI DUP1 PUSH4 0x95D89B41 EQ PUSH2 0x2E6 JUMPI PUSH1 0x0 DUP1 REVERT JUMPDEST DUP1 PUSH4 0x40C10F19 EQ PUSH2 0x25E JUMPI DUP1 PUSH4 0x70A08231 EQ PUSH2 0x271 JUMPI PUSH1 0x0 DUP1 REVERT JUMPDEST DUP1 PUSH4 0x248A9CA3 GT PUSH2 0x12F JUMPI DUP1 PUSH4 0x313CE567 GT PUSH2 0x114 JUMPI DUP1 PUSH4 0x313CE567 EQ PUSH2 0x229 JUMPI DUP1 PUSH4 0x36568ABE EQ PUSH2 0x238 JUMPI DUP1 PUSH4 0x39509351 EQ PUSH2 0x24B JUMPI PUSH1 0x0 DUP1 REVERT JUMPDEST DUP1 PUSH4 0x248A9CA3 EQ PUSH2 0x1F1 JUMPI DUP1 PUSH4 0x2F2FF15D EQ PUSH2 0x214 JUMPI PUSH1 0x0 DUP1 REVERT JUMPDEST DUP1 PUSH4 0x95EA7B3 GT PUSH2 0x160 JUMPI DUP1 PUSH4 0x95EA7B3 EQ PUSH2 0x1B9 JUMPI DUP1 PUSH4 0x18160DDD EQ PUSH2 0x1CC JUMPI DUP1 PUSH4 0x23B872DD EQ PUSH2 0x1DE JUMPI PUSH1 0x0 DUP1 REVERT JUMPDEST DUP1 PUSH4 0x1FFC9A7 EQ PUSH2 0x17C JUMPI DUP1 PUSH4 0x6FDDE03 EQ PUSH2 0x1A4 JUMPI JUMPDEST PUSH1 0x0 DUP1 REVERT JUMPDEST PUSH2 0x18F PUSH2 0x18A CALLDATASIZE PUSH1 0x4 PUSH2 0xF6B JUMP JUMPDEST PUSH2 0x38F JUMP JUMPDEST PUSH1 0x40 MLOAD SWAP1 ISZERO ISZERO DUP2 MSTORE PUSH1 0x20 ADD JUMPDEST PUSH1 0x40 MLOAD DUP1 SWAP2 SUB SWAP1 RETURN JUMPDEST PUSH2 0x1AC PUSH2 0x428 JUMP JUMPDEST PUSH1 0x40 MLOAD PUSH2 0x19B SWAP2 SWAP1 PUSH2 0xFD1 JUMP JUMPDEST PUSH2 0x18F PUSH2 0x1C7 CALLDATASIZE PUSH1 0x4 PUSH2 0x1020 JUMP JUMPDEST PUSH2 0x4BA JUMP JUMPDEST PUSH1 0x2 SLOAD JUMPDEST PUSH1 0x40 MLOAD SWAP1 DUP2 MSTORE PUSH1 0x20 ADD PUSH2 0x19B JUMP JUMPDEST PUSH2 0x18F PUSH2 0x1EC CALLDATASIZE PUSH1 0x4 PUSH2 0x104A JUMP JUMPDEST PUSH2 0x4D2 JUMP JUMPDEST PUSH2 0x1D0 PUSH2 0x1FF CALLDATASIZE PUSH1 0x4 PUSH2 0x1086 JUMP JUMPDEST PUSH1 0x0 SWAP1 DUP2 MSTORE PUSH1 0x5 PUSH1 0x20 MSTORE PUSH1 0x40 SWAP1 KECCAK256 PUSH1 0x1 ADD SLOAD SWAP1 JUMP JUMPDEST PUSH2 0x227 PUSH2 0x222 CALLDATASIZE PUSH1 0x4 PUSH2 0x109F JUMP JUMPDEST PUSH2 0x4F6 JUMP JUMPDEST STOP JUMPDEST PUSH1 0x40 MLOAD PUSH1 0x12 DUP2 MSTORE PUSH1 0x20 ADD PUSH2 0x19B JUMP JUMPDEST PUSH2 0x227 PUSH2 0x246 CALLDATASIZE PUSH1 0x4 PUSH2 0x109F JUMP JUMPDEST PUSH2 0x520 JUMP JUMPDEST PUSH2 0x18F PUSH2 0x259 CALLDATASIZE PUSH1 0x4 PUSH2 0x1020 JUMP JUMPDEST PUSH2 0x5B1 JUMP JUMPDEST PUSH2 0x227 PUSH2 0x26C CALLDATASIZE PUSH1 0x4 PUSH2 0x1020 JUMP JUMPDEST PUSH2 0x5F0 JUMP JUMPDEST PUSH2 0x1D0 PUSH2 0x27F CALLDATASIZE PUSH1 0x4 PUSH2 0x10CB JUMP JUMPDEST PUSH1 0x1 PUSH1 0x1 PUSH1 0xA0 SHL SUB AND PUSH1 0x0 SWAP1 DUP2 MSTORE PUSH1 0x20 DUP2 SWAP1 MSTORE PUSH1 0x40 SWAP1 KECCAK256 SLOAD SWAP1 JUMP JUMPDEST PUSH2 0x227 PUSH2 0x2A8 CALLDATASIZE PUSH1 0x4 PUSH2 0x10E6 JUMP JUMPDEST PUSH2 0x624 JUMP JUMPDEST PUSH2 0x18F PUSH2 0x2BB CALLDATASIZE PUSH1 0x4 PUSH2 0x109F JUMP JUMPDEST PUSH1 0x0 SWAP2 DUP3 MSTORE PUSH1 0x5 PUSH1 0x20 SWAP1 DUP2 MSTORE PUSH1 0x40 DUP1 DUP5 KECCAK256 PUSH1 0x1 PUSH1 0x1 PUSH1 0xA0 SHL SUB SWAP4 SWAP1 SWAP4 AND DUP5 MSTORE SWAP2 SWAP1 MSTORE SWAP1 KECCAK256 SLOAD PUSH1 0xFF AND SWAP1 JUMP JUMPDEST PUSH2 0x1AC PUSH2 0x64E JUMP JUMPDEST PUSH2 0x1D0 PUSH1 0x0 DUP2 JUMP JUMPDEST PUSH2 0x18F PUSH2 0x304 CALLDATASIZE PUSH1 0x4 PUSH2 0x1020 JUMP JUMPDEST PUSH2 0x65D JUMP JUMPDEST PUSH2 0x18F PUSH2 0x317 CALLDATASIZE PUSH1 0x4 PUSH2 0x1020 JUMP JUMPDEST PUSH2 0x707 JUMP JUMPDEST PUSH2 0x1D0 PUSH32 0x9F2DF0FED2C77648DE5860A4CC508CD0818C85B8B8A1AB4CEEEF8D981C8956A6 DUP2 JUMP JUMPDEST PUSH2 0x227 PUSH2 0x351 CALLDATASIZE PUSH1 0x4 PUSH2 0x109F JUMP JUMPDEST PUSH2 0x715 JUMP JUMPDEST PUSH2 0x1D0 PUSH2 0x364 CALLDATASIZE PUSH1 0x4 PUSH2 0x10E6 JUMP JUMPDEST PUSH1 0x1 PUSH1 0x1 PUSH1 0xA0 SHL SUB SWAP2 DUP3 AND PUSH1 0x0 SWAP1 DUP2 MSTORE PUSH1 0x1 PUSH1 0x20 SWAP1 DUP2 MSTORE PUSH1 0x40 DUP1 DUP4 KECCAK256 SWAP4 SWAP1 SWAP5 AND DUP3 MSTORE SWAP2 SWAP1 SWAP2 MSTORE KECCAK256 SLOAD SWAP1 JUMP JUMPDEST PUSH1 0x0 PUSH32 0xFFFFFFFF00000000000000000000000000000000000000000000000000000000 DUP3 AND PUSH32 0x7965DB0B00000000000000000000000000000000000000000000000000000000 EQ DUP1 PUSH2 0x422 JUMPI POP PUSH32 0x1FFC9A700000000000000000000000000000000000000000000000000000000 PUSH32 0xFFFFFFFF00000000000000000000000000000000000000000000000000000000 DUP4 AND EQ JUMPDEST SWAP3 SWAP2 POP POP JUMP JUMPDEST PUSH1 0x60 PUSH1 0x3 DUP1 SLOAD PUSH2 0x437 SWAP1 PUSH2 0x1110 JUMP JUMPDEST DUP1 PUSH1 0x1F ADD PUSH1 0x20 DUP1 SWAP2 DIV MUL PUSH1 0x20 ADD PUSH1 0x40 MLOAD SWAP1 DUP2 ADD PUSH1 0x40 MSTORE DUP1 SWAP3 SWAP2 SWAP1 DUP2 DUP2 MSTORE PUSH1 0x20 ADD DUP3 DUP1 SLOAD PUSH2 0x463 SWAP1 PUSH2 0x1110 JUMP JUMPDEST DUP1 ISZERO PUSH2 0x4B0 JUMPI DUP1 PUSH1 0x1F LT PUSH2 0x485 JUMPI PUSH2 0x100 DUP1 DUP4 SLOAD DIV MUL DUP4 MSTORE SWAP2 PUSH1 0x20 ADD SWAP2 PUSH2 0x4B0 JUMP JUMPDEST DUP3 ADD SWAP2 SWAP1 PUSH1 0x0 MSTORE PUSH1 0x20 PUSH1 0x0 KECCAK256 SWAP1 JUMPDEST DUP2 SLOAD DUP2 MSTORE SWAP1 PUSH1 0x1 ADD SWAP1 PUSH1 0x20 ADD DUP1 DUP4 GT PUSH2 0x493 JUMPI DUP3 SWAP1 SUB PUSH1 0x1F AND DUP3 ADD SWAP2 JUMPDEST POP POP POP POP POP SWAP1 POP SWAP1 JUMP JUMPDEST PUSH1 0x0 CALLER PUSH2 0x4C8 DUP2 DUP6 DUP6 PUSH2 0x73A JUMP JUMPDEST POP PUSH1 0x1 SWAP4 SWAP3 POP POP POP JUMP JUMPDEST PUSH1 0x0 CALLER PUSH2 0x4E0 DUP6 DUP3 DUP6 PUSH2 0x892 JUMP JUMPDEST PUSH2 0x4EB DUP6 DUP6 DUP6 PUSH2 0x91E JUMP JUMPDEST POP PUSH1 0x1 SWAP5 SWAP4 POP POP POP POP JUMP JUMPDEST PUSH1 0x0 DUP3 DUP2 MSTORE PUSH1 0x5 PUSH1 0x20 MSTORE PUSH1 0x40 SWAP1 KECCAK256 PUSH1 0x1 ADD SLOAD PUSH2 0x511 DUP2 PUSH2 0xB0B JUMP JUMPDEST PUSH2 0x51B DUP4 DUP4 PUSH2 0xB18 JUMP JUMPDEST POP POP POP JUMP JUMPDEST PUSH1 0x1 PUSH1 0x1 PUSH1 0xA0 SHL SUB DUP2 AND CALLER EQ PUSH2 0x5A3 JUMPI PUSH1 0x40 MLOAD PUSH3 0x461BCD PUSH1 0xE5 SHL DUP2 MSTORE PUSH1 0x20 PUSH1 0x4 DUP3 ADD MSTORE PUSH1 0x2F PUSH1 0x24 DUP3 ADD MSTORE PUSH32 0x416363657373436F6E74726F6C3A2063616E206F6E6C792072656E6F756E6365 PUSH1 0x44 DUP3 ADD MSTORE PUSH32 0x20726F6C657320666F722073656C660000000000000000000000000000000000 PUSH1 0x64 DUP3 ADD MSTORE PUSH1 0x84 ADD JUMPDEST PUSH1 0x40 MLOAD DUP1 SWAP2 SUB SWAP1 REVERT JUMPDEST PUSH2 0x5AD DUP3 DUP3 PUSH2 0xBBA JUMP JUMPDEST POP POP JUMP JUMPDEST CALLER PUSH1 0x0 DUP2 DUP2 MSTORE PUSH1 0x1 PUSH1 0x20 SWAP1 DUP2 MSTORE PUSH1 0x40 DUP1 DUP4 KECCAK256 PUSH1 0x1 PUSH1 0x1 PUSH1 0xA0 SHL SUB DUP8 AND DUP5 MSTORE SWAP1 SWAP2 MSTORE DUP2 KECCAK256 SLOAD SWAP1 SWAP2 SWAP1 PUSH2 0x4C8 SWAP1 DUP3 SWAP1 DUP7 SWAP1 PUSH2 0x5EB SWAP1 DUP8 SWAP1 PUSH2 0x1160 JUMP JUMPDEST PUSH2 0x73A JUMP JUMPDEST PUSH32 0x9F2DF0FED2C77648DE5860A4CC508CD0818C85B8B8A1AB4CEEEF8D981C8956A6 PUSH2 0x61A DUP2 PUSH2 0xB0B JUMP JUMPDEST PUSH2 0x51B DUP4 DUP4 PUSH2 0xC3D JUMP JUMPDEST PUSH1 0x1 PUSH1 0x1 PUSH1 0xA0 SHL SUB DUP2 AND PUSH1 0x0 SWAP1 DUP2 MSTORE PUSH1 0x20 DUP2 SWAP1 MSTORE PUSH1 0x40 SWAP1 KECCAK256 SLOAD PUSH2 0x648 DUP3 DUP5 DUP4 PUSH2 0x4D2 JUMP JUMPDEST POP POP POP POP JUMP JUMPDEST PUSH1 0x60 PUSH1 0x4 DUP1 SLOAD PUSH2 0x437 SWAP1 PUSH2 0x1110 JUMP JUMPDEST CALLER PUSH1 0x0 DUP2 DUP2 MSTORE PUSH1 0x1 PUSH1 0x20 SWAP1 DUP2 MSTORE PUSH1 0x40 DUP1 DUP4 KECCAK256 PUSH1 0x1 PUSH1 0x1 PUSH1 0xA0 SHL SUB DUP8 AND DUP5 MSTORE SWAP1 SWAP2 MSTORE DUP2 KECCAK256 SLOAD SWAP1 SWAP2 SWAP1 DUP4 DUP2 LT ISZERO PUSH2 0x6FA JUMPI PUSH1 0x40 MLOAD PUSH3 0x461BCD PUSH1 0xE5 SHL DUP2 MSTORE PUSH1 0x20 PUSH1 0x4 DUP3 ADD MSTORE PUSH1 0x25 PUSH1 0x24 DUP3 ADD MSTORE PUSH32 0x45524332303A2064656372656173656420616C6C6F77616E63652062656C6F77 PUSH1 0x44 DUP3 ADD MSTORE PUSH32 0x207A65726F000000000000000000000000000000000000000000000000000000 PUSH1 0x64 DUP3 ADD MSTORE PUSH1 0x84 ADD PUSH2 0x59A JUMP JUMPDEST PUSH2 0x4EB DUP3 DUP7 DUP7 DUP5 SUB PUSH2 0x73A JUMP JUMPDEST PUSH1 0x0 CALLER PUSH2 0x4C8 DUP2 DUP6 DUP6 PUSH2 0x91E JUMP JUMPDEST PUSH1 0x0 DUP3 DUP2 MSTORE PUSH1 0x5 PUSH1 0x20 MSTORE PUSH1 0x40 SWAP1 KECCAK256 PUSH1 0x1 ADD SLOAD PUSH2 0x730 DUP2 PUSH2 0xB0B JUMP JUMPDEST PUSH2 0x51B DUP4 DUP4 PUSH2 0xBBA JUMP JUMPDEST PUSH1 0x1 PUSH1 0x1 PUSH1 0xA0 SHL SUB DUP4 AND PUSH2 0x7B5 JUMPI PUSH1 0x40 MLOAD PUSH3 0x461BCD PUSH1 0xE5 SHL DUP2 MSTORE PUSH1 0x20 PUSH1 0x4 DUP3 ADD MSTORE PUSH1 0x24 DUP1 DUP3 ADD MSTORE PUSH32 0x45524332303A20617070726F76652066726F6D20746865207A65726F20616464 PUSH1 0x44 DUP3 ADD MSTORE PUSH32 0x7265737300000000000000000000000000000000000000000000000000000000 PUSH1 0x64 DUP3 ADD MSTORE PUSH1 0x84 ADD PUSH2 0x59A JUMP JUMPDEST PUSH1 0x1 PUSH1 0x1 PUSH1 0xA0 SHL SUB DUP3 AND PUSH2 0x831 JUMPI PUSH1 0x40 MLOAD PUSH3 0x461BCD PUSH1 0xE5 SHL DUP2 MSTORE PUSH1 0x20 PUSH1 0x4 DUP3 ADD MSTORE PUSH1 0x22 PUSH1 0x24 DUP3 ADD MSTORE PUSH32 0x45524332303A20617070726F766520746F20746865207A65726F206164647265 PUSH1 0x44 DUP3 ADD MSTORE PUSH32 0x7373000000000000000000000000000000000000000000000000000000000000 PUSH1 0x64 DUP3 ADD MSTORE PUSH1 0x84 ADD PUSH2 0x59A JUMP JUMPDEST PUSH1 0x1 PUSH1 0x1 PUSH1 0xA0 SHL SUB DUP4 DUP2 AND PUSH1 0x0 DUP2 DUP2 MSTORE PUSH1 0x1 PUSH1 0x20 SWAP1 DUP2 MSTORE PUSH1 0x40 DUP1 DUP4 KECCAK256 SWAP5 DUP8 AND DUP1 DUP5 MSTORE SWAP5 DUP3 MSTORE SWAP2 DUP3 SWAP1 KECCAK256 DUP6 SWAP1 SSTORE SWAP1 MLOAD DUP5 DUP2 MSTORE PUSH32 0x8C5BE1E5EBEC7D5BD14F71427D1E84F3DD0314C0F7B2291E5B200AC8C7C3B925 SWAP2 ADD PUSH1 0x40 MLOAD DUP1 SWAP2 SUB SWAP1 LOG3 POP POP POP JUMP JUMPDEST PUSH1 0x1 PUSH1 0x1 PUSH1 0xA0 SHL SUB DUP4 DUP2 AND PUSH1 0x0 SWAP1 DUP2 MSTORE PUSH1 0x1 PUSH1 0x20 SWAP1 DUP2 MSTORE PUSH1 0x40 DUP1 DUP4 KECCAK256 SWAP4 DUP7 AND DUP4 MSTORE SWAP3 SWAP1 MSTORE KECCAK256 SLOAD PUSH1 0x0 NOT DUP2 EQ PUSH2 0x648 JUMPI DUP2 DUP2 LT ISZERO PUSH2 0x911 JUMPI PUSH1 0x40 MLOAD PUSH3 0x461BCD PUSH1 0xE5 SHL DUP2 MSTORE PUSH1 0x20 PUSH1 0x4 DUP3 ADD MSTORE PUSH1 0x1D PUSH1 0x24 DUP3 ADD MSTORE PUSH32 0x45524332303A20696E73756666696369656E7420616C6C6F77616E6365000000 PUSH1 0x44 DUP3 ADD MSTORE PUSH1 0x64 ADD PUSH2 0x59A JUMP JUMPDEST PUSH2 0x648 DUP5 DUP5 DUP5 DUP5 SUB PUSH2 0x73A JUMP JUMPDEST PUSH1 0x1 PUSH1 0x1 PUSH1 0xA0 SHL SUB DUP4 AND PUSH2 0x99A JUMPI PUSH1 0x40 MLOAD PUSH3 0x461BCD PUSH1 0xE5 SHL DUP2 MSTORE PUSH1 0x20 PUSH1 0x4 DUP3 ADD MSTORE PUSH1 0x25 PUSH1 0x24 DUP3 ADD MSTORE PUSH32 0x45524332303A207472616E736665722066726F6D20746865207A65726F206164 PUSH1 0x44 DUP3 ADD MSTORE PUSH32 0x6472657373000000000000000000000000000000000000000000000000000000 PUSH1 0x64 DUP3 ADD MSTORE PUSH1 0x84 ADD PUSH2 0x59A JUMP JUMPDEST PUSH1 0x1 PUSH1 0x1 PUSH1 0xA0 SHL SUB DUP3 AND PUSH2 0xA16 JUMPI PUSH1 0x40 MLOAD PUSH3 0x461BCD PUSH1 0xE5 SHL DUP2 MSTORE PUSH1 0x20 PUSH1 0x4 DUP3 ADD MSTORE PUSH1 0x23 PUSH1 0x24 DUP3 ADD MSTORE PUSH32 0x45524332303A207472616E7366657220746F20746865207A65726F2061646472 PUSH1 0x44 DUP3 ADD MSTORE PUSH32 0x6573730000000000000000000000000000000000000000000000000000000000 PUSH1 0x64 DUP3 ADD MSTORE PUSH1 0x84 ADD PUSH2 0x59A JUMP JUMPDEST PUSH1 0x1 PUSH1 0x1 PUSH1 0xA0 SHL SUB DUP4 AND PUSH1 0x0 SWAP1 DUP2 MSTORE PUSH1 0x20 DUP2 SWAP1 MSTORE PUSH1 0x40 SWAP1 KECCAK256 SLOAD DUP2 DUP2 LT ISZERO PUSH2 0xAA5 JUMPI PUSH1 0x40 MLOAD PUSH3 0x461BCD PUSH1 0xE5 SHL DUP2 MSTORE PUSH1 0x20 PUSH1 0x4 DUP3 ADD MSTORE PUSH1 0x26 PUSH1 0x24 DUP3 ADD MSTORE PUSH32 0x45524332303A207472616E7366657220616D6F756E7420657863656564732062 PUSH1 0x44 DUP3 ADD MSTORE PUSH32 0x616C616E63650000000000000000000000000000000000000000000000000000 PUSH1 0x64 DUP3 ADD MSTORE PUSH1 0x84 ADD PUSH2 0x59A JUMP JUMPDEST PUSH1 0x1 PUSH1 0x1 PUSH1 0xA0 SHL SUB DUP5 DUP2 AND PUSH1 0x0 DUP2 DUP2 MSTORE PUSH1 0x20 DUP2 DUP2 MSTORE PUSH1 0x40 DUP1 DUP4 KECCAK256 DUP8 DUP8 SUB SWAP1 SSTORE SWAP4 DUP8 AND DUP1 DUP4 MSTORE SWAP2 DUP5 SWAP1 KECCAK256 DUP1 SLOAD DUP8 ADD SWAP1 SSTORE SWAP3 MLOAD DUP6 DUP2 MSTORE SWAP1 SWAP3 PUSH32 0xDDF252AD1BE2C89B69C2B068FC378DAA952BA7F163C4A11628F55A4DF523B3EF SWAP2 ADD PUSH1 0x40 MLOAD DUP1 SWAP2 SUB SWAP1 LOG3 PUSH2 0x648 JUMP JUMPDEST PUSH2 0xB15 DUP2 CALLER PUSH2 0xCFC JUMP JUMPDEST POP JUMP JUMPDEST PUSH1 0x0 DUP3 DUP2 MSTORE PUSH1 0x5 PUSH1 0x20 SWAP1 DUP2 MSTORE PUSH1 0x40 DUP1 DUP4 KECCAK256 PUSH1 0x1 PUSH1 0x1 PUSH1 0xA0 SHL SUB DUP6 AND DUP5 MSTORE SWAP1 SWAP2 MSTORE SWAP1 KECCAK256 SLOAD PUSH1 0xFF AND PUSH2 0x5AD JUMPI PUSH1 0x0 DUP3 DUP2 MSTORE PUSH1 0x5 PUSH1 0x20 SWAP1 DUP2 MSTORE PUSH1 0x40 DUP1 DUP4 KECCAK256 PUSH1 0x1 PUSH1 0x1 PUSH1 0xA0 SHL SUB DUP6 AND DUP5 MSTORE SWAP1 SWAP2 MSTORE SWAP1 KECCAK256 DUP1 SLOAD PUSH1 0xFF NOT AND PUSH1 0x1 OR SWAP1 SSTORE PUSH2 0xB76 CALLER SWAP1 JUMP JUMPDEST PUSH1 0x1 PUSH1 0x1 PUSH1 0xA0 SHL SUB AND DUP2 PUSH1 0x1 PUSH1 0x1 PUSH1 0xA0 SHL SUB AND DUP4 PUSH32 0x2F8788117E7EFF1D82E926EC794901D17C78024A50270940304540A733656F0D PUSH1 0x40 MLOAD PUSH1 0x40 MLOAD DUP1 SWAP2 SUB SWAP1 LOG4 POP POP JUMP JUMPDEST PUSH1 0x0 DUP3 DUP2 MSTORE PUSH1 0x5 PUSH1 0x20 SWAP1 DUP2 MSTORE PUSH1 0x40 DUP1 DUP4 KECCAK256 PUSH1 0x1 PUSH1 0x1 PUSH1 0xA0 SHL SUB DUP6 AND DUP5 MSTORE SWAP1 SWAP2 MSTORE SWAP1 KECCAK256 SLOAD PUSH1 0xFF AND ISZERO PUSH2 0x5AD JUMPI PUSH1 0x0 DUP3 DUP2 MSTORE PUSH1 0x5 PUSH1 0x20 SWAP1 DUP2 MSTORE PUSH1 0x40 DUP1 DUP4 KECCAK256 PUSH1 0x1 PUSH1 0x1 PUSH1 0xA0 SHL SUB DUP6 AND DUP1 DUP6 MSTORE SWAP3 MSTORE DUP1 DUP4 KECCAK256 DUP1 SLOAD PUSH1 0xFF NOT AND SWAP1 SSTORE MLOAD CALLER SWAP3 DUP6 SWAP2 PUSH32 0xF6391F5C32D9C69D2A47EA670B442974B53935D1EDC7FD64EB21E047A839171B SWAP2 SWAP1 LOG4 POP POP JUMP JUMPDEST PUSH1 0x1 PUSH1 0x1 PUSH1 0xA0 SHL SUB DUP3 AND PUSH2 0xC93 JUMPI PUSH1 0x40 MLOAD PUSH3 0x461BCD PUSH1 0xE5 SHL DUP2 MSTORE PUSH1 0x20 PUSH1 0x4 DUP3 ADD MSTORE PUSH1 0x1F PUSH1 0x24 DUP3 ADD MSTORE PUSH32 0x45524332303A206D696E7420746F20746865207A65726F206164647265737300 PUSH1 0x44 DUP3 ADD MSTORE PUSH1 0x64 ADD PUSH2 0x59A JUMP JUMPDEST DUP1 PUSH1 0x2 PUSH1 0x0 DUP3 DUP3 SLOAD PUSH2 0xCA5 SWAP2 SWAP1 PUSH2 0x1160 JUMP JUMPDEST SWAP1 SWAP2 SSTORE POP POP PUSH1 0x1 PUSH1 0x1 PUSH1 0xA0 SHL SUB DUP3 AND PUSH1 0x0 DUP2 DUP2 MSTORE PUSH1 0x20 DUP2 DUP2 MSTORE PUSH1 0x40 DUP1 DUP4 KECCAK256 DUP1 SLOAD DUP7 ADD SWAP1 SSTORE MLOAD DUP5 DUP2 MSTORE PUSH32 0xDDF252AD1BE2C89B69C2B068FC378DAA952BA7F163C4A11628F55A4DF523B3EF SWAP2 ADD PUSH1 0x40 MLOAD DUP1 SWAP2 SUB SWAP1 LOG3 POP POP JUMP JUMPDEST PUSH1 0x0 DUP3 DUP2 MSTORE PUSH1 0x5 PUSH1 0x20 SWAP1 DUP2 MSTORE PUSH1 0x40 DUP1 DUP4 KECCAK256 PUSH1 0x1 PUSH1 0x1 PUSH1 0xA0 SHL SUB DUP6 AND DUP5 MSTORE SWAP1 SWAP2 MSTORE SWAP1 KECCAK256 SLOAD PUSH1 0xFF AND PUSH2 0x5AD JUMPI PUSH2 0xD2F DUP2 PUSH2 0xD71 JUMP JUMPDEST PUSH2 0xD3A DUP4 PUSH1 0x20 PUSH2 0xD83 JUMP JUMPDEST PUSH1 0x40 MLOAD PUSH1 0x20 ADD PUSH2 0xD4B SWAP3 SWAP2 SWAP1 PUSH2 0x1173 JUMP JUMPDEST PUSH1 0x40 DUP1 MLOAD PUSH1 0x1F NOT DUP2 DUP5 SUB ADD DUP2 MSTORE SWAP1 DUP3 SWAP1 MSTORE PUSH3 0x461BCD PUSH1 0xE5 SHL DUP3 MSTORE PUSH2 0x59A SWAP2 PUSH1 0x4 ADD PUSH2 0xFD1 JUMP JUMPDEST PUSH1 0x60 PUSH2 0x422 PUSH1 0x1 PUSH1 0x1 PUSH1 0xA0 SHL SUB DUP4 AND PUSH1 0x14 JUMPDEST PUSH1 0x60 PUSH1 0x0 PUSH2 0xD92 DUP4 PUSH1 0x2 PUSH2 0x11F4 JUMP JUMPDEST PUSH2 0xD9D SWAP1 PUSH1 0x2 PUSH2 0x1160 JUMP JUMPDEST PUSH8 0xFFFFFFFFFFFFFFFF DUP2 GT ISZERO PUSH2 0xDB5 JUMPI PUSH2 0xDB5 PUSH2 0x120B JUMP JUMPDEST PUSH1 0x40 MLOAD SWAP1 DUP1 DUP3 MSTORE DUP1 PUSH1 0x1F ADD PUSH1 0x1F NOT AND PUSH1 0x20 ADD DUP3 ADD PUSH1 0x40 MSTORE DUP1 ISZERO PUSH2 0xDDF JUMPI PUSH1 0x20 DUP3 ADD DUP2 DUP1 CALLDATASIZE DUP4 CALLDATACOPY ADD SWAP1 POP JUMPDEST POP SWAP1 POP PUSH32 0x3000000000000000000000000000000000000000000000000000000000000000 DUP2 PUSH1 0x0 DUP2 MLOAD DUP2 LT PUSH2 0xE16 JUMPI PUSH2 0xE16 PUSH2 0x1221 JUMP JUMPDEST PUSH1 0x20 ADD ADD SWAP1 PUSH1 0x1 PUSH1 0x1 PUSH1 0xF8 SHL SUB NOT AND SWAP1 DUP2 PUSH1 0x0 BYTE SWAP1 MSTORE8 POP PUSH32 0x7800000000000000000000000000000000000000000000000000000000000000 DUP2 PUSH1 0x1 DUP2 MLOAD DUP2 LT PUSH2 0xE61 JUMPI PUSH2 0xE61 PUSH2 0x1221 JUMP JUMPDEST PUSH1 0x20 ADD ADD SWAP1 PUSH1 0x1 PUSH1 0x1 PUSH1 0xF8 SHL SUB NOT AND SWAP1 DUP2 PUSH1 0x0 BYTE SWAP1 MSTORE8 POP PUSH1 0x0 PUSH2 0xE85 DUP5 PUSH1 0x2 PUSH2 0x11F4 JUMP JUMPDEST PUSH2 0xE90 SWAP1 PUSH1 0x1 PUSH2 0x1160 JUMP JUMPDEST SWAP1 POP JUMPDEST PUSH1 0x1 DUP2 GT ISZERO PUSH2 0xF15 JUMPI PUSH32 0x3031323334353637383961626364656600000000000000000000000000000000 DUP6 PUSH1 0xF AND PUSH1 0x10 DUP2 LT PUSH2 0xED1 JUMPI PUSH2 0xED1 PUSH2 0x1221 JUMP JUMPDEST BYTE PUSH1 0xF8 SHL DUP3 DUP3 DUP2 MLOAD DUP2 LT PUSH2 0xEE7 JUMPI PUSH2 0xEE7 PUSH2 0x1221 JUMP JUMPDEST PUSH1 0x20 ADD ADD SWAP1 PUSH1 0x1 PUSH1 0x1 PUSH1 0xF8 SHL SUB NOT AND SWAP1 DUP2 PUSH1 0x0 BYTE SWAP1 MSTORE8 POP PUSH1 0x4 SWAP5 SWAP1 SWAP5 SHR SWAP4 PUSH2 0xF0E DUP2 PUSH2 0x1237 JUMP JUMPDEST SWAP1 POP PUSH2 0xE93 JUMP JUMPDEST POP DUP4 ISZERO PUSH2 0xF64 JUMPI PUSH1 0x40 MLOAD PUSH3 0x461BCD PUSH1 0xE5 SHL DUP2 MSTORE PUSH1 0x20 PUSH1 0x4 DUP3 ADD DUP2 SWAP1 MSTORE PUSH1 0x24 DUP3 ADD MSTORE PUSH32 0x537472696E67733A20686578206C656E67746820696E73756666696369656E74 PUSH1 0x44 DUP3 ADD MSTORE PUSH1 0x64 ADD PUSH2 0x59A JUMP JUMPDEST SWAP4 SWAP3 POP POP POP JUMP JUMPDEST PUSH1 0x0 PUSH1 0x20 DUP3 DUP5 SUB SLT ISZERO PUSH2 0xF7D JUMPI PUSH1 0x0 DUP1 REVERT JUMPDEST DUP2 CALLDATALOAD PUSH32 0xFFFFFFFF00000000000000000000000000000000000000000000000000000000 DUP2 AND DUP2 EQ PUSH2 0xF64 JUMPI PUSH1 0x0 DUP1 REVERT JUMPDEST PUSH1 0x0 JUMPDEST DUP4 DUP2 LT ISZERO PUSH2 0xFC8 JUMPI DUP2 DUP2 ADD MLOAD DUP4 DUP3 ADD MSTORE PUSH1 0x20 ADD PUSH2 0xFB0 JUMP JUMPDEST POP POP PUSH1 0x0 SWAP2 ADD MSTORE JUMP JUMPDEST PUSH1 0x20 DUP2 MSTORE PUSH1 0x0 DUP3 MLOAD DUP1 PUSH1 0x20 DUP5 ADD MSTORE PUSH2 0xFF0 DUP2 PUSH1 0x40 DUP6 ADD PUSH1 0x20 DUP8 ADD PUSH2 0xFAD JUMP JUMPDEST PUSH1 0x1F ADD PUSH1 0x1F NOT AND SWAP2 SWAP1 SWAP2 ADD PUSH1 0x40 ADD SWAP3 SWAP2 POP POP JUMP JUMPDEST DUP1 CALLDATALOAD PUSH1 0x1 PUSH1 0x1 PUSH1 0xA0 SHL SUB DUP2 AND DUP2 EQ PUSH2 0x101B JUMPI PUSH1 0x0 DUP1 REVERT JUMPDEST SWAP2 SWAP1 POP JUMP JUMPDEST PUSH1 0x0 DUP1 PUSH1 0x40 DUP4 DUP6 SUB SLT ISZERO PUSH2 0x1033 JUMPI PUSH1 0x0 DUP1 REVERT JUMPDEST PUSH2 0x103C DUP4 PUSH2 0x1004 JUMP JUMPDEST SWAP5 PUSH1 0x20 SWAP4 SWAP1 SWAP4 ADD CALLDATALOAD SWAP4 POP POP POP JUMP JUMPDEST PUSH1 0x0 DUP1 PUSH1 0x0 PUSH1 0x60 DUP5 DUP7 SUB SLT ISZERO PUSH2 0x105F JUMPI PUSH1 0x0 DUP1 REVERT JUMPDEST PUSH2 0x1068 DUP5 PUSH2 0x1004 JUMP JUMPDEST SWAP3 POP PUSH2 0x1076 PUSH1 0x20 DUP6 ADD PUSH2 0x1004 JUMP JUMPDEST SWAP2 POP PUSH1 0x40 DUP5 ADD CALLDATALOAD SWAP1 POP SWAP3 POP SWAP3 POP SWAP3 JUMP JUMPDEST PUSH1 0x0 PUSH1 0x20 DUP3 DUP5 SUB SLT ISZERO PUSH2 0x1098 JUMPI PUSH1 0x0 DUP1 REVERT JUMPDEST POP CALLDATALOAD SWAP2 SWAP1 POP JUMP JUMPDEST PUSH1 0x0 DUP1 PUSH1 0x40 DUP4 DUP6 SUB SLT ISZERO PUSH2 0x10B2 JUMPI PUSH1 0x0 DUP1 REVERT JUMPDEST DUP3 CALLDATALOAD SWAP2 POP PUSH2 0x10C2 PUSH1 0x20 DUP5 ADD PUSH2 0x1004 JUMP JUMPDEST SWAP1 POP SWAP3 POP SWAP3 SWAP1 POP JUMP JUMPDEST PUSH1 0x0 PUSH1 0x20 DUP3 DUP5 SUB SLT ISZERO PUSH2 0x10DD JUMPI PUSH1 0x0 DUP1 REVERT JUMPDEST PUSH2 0xF64 DUP3 PUSH2 0x1004 JUMP JUMPDEST PUSH1 0x0 DUP1 PUSH1 0x40 DUP4 DUP6 SUB SLT ISZERO PUSH2 0x10F9 JUMPI PUSH1 0x0 DUP1 REVERT JUMPDEST PUSH2 0x1102 DUP4 PUSH2 0x1004 JUMP JUMPDEST SWAP2 POP PUSH2 0x10C2 PUSH1 0x20 DUP5 ADD PUSH2 0x1004 JUMP JUMPDEST PUSH1 0x1 DUP2 DUP2 SHR SWAP1 DUP3 AND DUP1 PUSH2 0x1124 JUMPI PUSH1 0x7F DUP3 AND SWAP2 POP JUMPDEST PUSH1 0x20 DUP3 LT DUP2 SUB PUSH2 0x1144 JUMPI PUSH4 0x4E487B71 PUSH1 0xE0 SHL PUSH1 0x0 MSTORE PUSH1 0x22 PUSH1 0x4 MSTORE PUSH1 0x24 PUSH1 0x0 REVERT JUMPDEST POP SWAP2 SWAP1 POP JUMP JUMPDEST PUSH4 0x4E487B71 PUSH1 0xE0 SHL PUSH1 0x0 MSTORE PUSH1 0x11 PUSH1 0x4 MSTORE PUSH1 0x24 PUSH1 0x0 REVERT JUMPDEST DUP1 DUP3 ADD DUP1 DUP3 GT ISZERO PUSH2 0x422 JUMPI PUSH2 0x422 PUSH2 0x114A JUMP JUMPDEST PUSH32 0x416363657373436F6E74726F6C3A206163636F756E7420000000000000000000 DUP2 MSTORE PUSH1 0x0 DUP4 MLOAD PUSH2 0x11AB DUP2 PUSH1 0x17 DUP6 ADD PUSH1 0x20 DUP9 ADD PUSH2 0xFAD JUMP JUMPDEST PUSH32 0x206973206D697373696E6720726F6C6520000000000000000000000000000000 PUSH1 0x17 SWAP2 DUP5 ADD SWAP2 DUP3 ADD MSTORE DUP4 MLOAD PUSH2 0x11E8 DUP2 PUSH1 0x28 DUP5 ADD PUSH1 0x20 DUP9 ADD PUSH2 0xFAD JUMP JUMPDEST ADD PUSH1 0x28 ADD SWAP5 SWAP4 POP POP POP POP JUMP JUMPDEST DUP1 DUP3 MUL DUP2 ISZERO DUP3 DUP3 DIV DUP5 EQ OR PUSH2 0x422 JUMPI PUSH2 0x422 PUSH2 0x114A JUMP JUMPDEST PUSH4 0x4E487B71 PUSH1 0xE0 SHL PUSH1 0x0 MSTORE PUSH1 0x41 PUSH1 0x4 MSTORE PUSH1 0x24 PUSH1 0x0 REVERT JUMPDEST PUSH4 0x4E487B71 PUSH1 0xE0 SHL PUSH1 0x0 MSTORE PUSH1 0x32 PUSH1 0x4 MSTORE PUSH1 0x24 PUSH1 0x0 REVERT JUMPDEST PUSH1 0x0 DUP2 PUSH2 0x1246 JUMPI PUSH2 0x1246 PUSH2 0x114A JUMP JUMPDEST POP PUSH1 0x0 NOT ADD SWAP1 JUMP INVALID LOG2 PUSH5 0x6970667358 0x22 SLT KECCAK256 0xF8 DUP1 0xEA 0xC2 JUMP DUP10 EXTCODECOPY 0xFB LOG4 PUSH9 0x19BFA10DF34058BEBC DUP4 DUP15 BYTE DUP1 0x4C 0xC SWAP1 0xB5 PUSH19 0x7390616D64736F6C634300081300339F2DF0FE 0xD2 0xC7 PUSH23 0x48DE5860A4CC508CD0818C85B8B8A1AB4CEEEF8D981C89 JUMP 0xA6 LOG2 PUSH5 0x6970667358 0x22 SLT KECCAK256 0x2F PUSH11 0x868E52DA60E1396168D42E DUP9 PUSH10 0xD4CC70B5BAB2727D15A0 0x5E 0x1F TIMESTAMP SWAP5 PUSH21 0xC79964736F6C634300081300330000000000000000 "},"methodIdentifiers":{"createNewBet(uint256,uint256,uint256,uint256,address)":"b2410ded","deployedContracts(uint256)":"9ad1ee10","owner()":"8da5cb5b","totalBetsDeployed()":"161fa31e","transferOwnershipExt(address,address)":"9e4e145d"}}}}}