{
  "_format": "hh-sol-artifact-1",
  "contractName": "BetToken",
  "sourceName": "contracts/token/BetToken.sol",
  "abi": [
    {
      "inputs": [
        {
          "internalType": "string",
          "name": "_TokenName",
          "type": "string"
        },
        {
          "internalType": "string",
          "name": "_TokenSymbol",
          "type": "string"
        },
        {
          "internalType": "uint256",
          "name": "_totalShares",
          "type": "uint256"
        }
      ],
      "stateMutability": "nonpayable",
      "type": "constructor"
    },
    {
      "anonymous": false,
      "inputs": [
        {
          "indexed": true,
          "internalType": "address",
          "name": "owner",
          "type": "address"
        },
        {
          "indexed": true,
          "internalType": "address",
          "name": "spender",
          "type": "address"
        },
        {
          "indexed": false,
          "internalType": "uint256",
          "name": "value",
          "type": "uint256"
        }
      ],
      "name": "Approval",
      "type": "event"
    },
    {
      "anonymous": false,
      "inputs": [
        {
          "indexed": true,
          "internalType": "bytes32",
          "name": "role",
          "type": "bytes32"
        },
        {
          "indexed": true,
          "internalType": "bytes32",
          "name": "previousAdminRole",
          "type": "bytes32"
        },
        {
          "indexed": true,
          "internalType": "bytes32",
          "name": "newAdminRole",
          "type": "bytes32"
        }
      ],
      "name": "RoleAdminChanged",
      "type": "event"
    },
    {
      "anonymous": false,
      "inputs": [
        {
          "indexed": true,
          "internalType": "bytes32",
          "name": "role",
          "type": "bytes32"
        },
        {
          "indexed": true,
          "internalType": "address",
          "name": "account",
          "type": "address"
        },
        {
          "indexed": true,
          "internalType": "address",
          "name": "sender",
          "type": "address"
        }
      ],
      "name": "RoleGranted",
      "type": "event"
    },
    {
      "anonymous": false,
      "inputs": [
        {
          "indexed": true,
          "internalType": "bytes32",
          "name": "role",
          "type": "bytes32"
        },
        {
          "indexed": true,
          "internalType": "address",
          "name": "account",
          "type": "address"
        },
        {
          "indexed": true,
          "internalType": "address",
          "name": "sender",
          "type": "address"
        }
      ],
      "name": "RoleRevoked",
      "type": "event"
    },
    {
      "anonymous": false,
      "inputs": [
        {
          "indexed": true,
          "internalType": "address",
          "name": "from",
          "type": "address"
        },
        {
          "indexed": true,
          "internalType": "address",
          "name": "to",
          "type": "address"
        },
        {
          "indexed": false,
          "internalType": "uint256",
          "name": "value",
          "type": "uint256"
        }
      ],
      "name": "Transfer",
      "type": "event"
    },
    {
      "inputs": [],
      "name": "DEFAULT_ADMIN_ROLE",
      "outputs": [
        {
          "internalType": "bytes32",
          "name": "",
          "type": "bytes32"
        }
      ],
      "stateMutability": "view",
      "type": "function"
    },
    {
      "inputs": [],
      "name": "MINTER_ROLE",
      "outputs": [
        {
          "internalType": "bytes32",
          "name": "",
          "type": "bytes32"
        }
      ],
      "stateMutability": "view",
      "type": "function"
    },
    {
      "inputs": [
        {
          "internalType": "address",
          "name": "to",
          "type": "address"
        },
        {
          "internalType": "address",
          "name": "_ownerAddress",
          "type": "address"
        }
      ],
      "name": "_sellToken",
      "outputs": [],
      "stateMutability": "nonpayable",
      "type": "function"
    },
    {
      "inputs": [
        {
          "internalType": "address",
          "name": "owner",
          "type": "address"
        },
        {
          "internalType": "address",
          "name": "spender",
          "type": "address"
        }
      ],
      "name": "allowance",
      "outputs": [
        {
          "internalType": "uint256",
          "name": "",
          "type": "uint256"
        }
      ],
      "stateMutability": "view",
      "type": "function"
    },
    {
      "inputs": [
        {
          "internalType": "address",
          "name": "spender",
          "type": "address"
        },
        {
          "internalType": "uint256",
          "name": "amount",
          "type": "uint256"
        }
      ],
      "name": "approve",
      "outputs": [
        {
          "internalType": "bool",
          "name": "",
          "type": "bool"
        }
      ],
      "stateMutability": "nonpayable",
      "type": "function"
    },
    {
      "inputs": [
        {
          "internalType": "address",
          "name": "account",
          "type": "address"
        }
      ],
      "name": "balanceOf",
      "outputs": [
        {
          "internalType": "uint256",
          "name": "",
          "type": "uint256"
        }
      ],
      "stateMutability": "view",
      "type": "function"
    },
    {
      "inputs": [],
      "name": "decimals",
      "outputs": [
        {
          "internalType": "uint8",
          "name": "",
          "type": "uint8"
        }
      ],
      "stateMutability": "view",
      "type": "function"
    },
    {
      "inputs": [
        {
          "internalType": "address",
          "name": "spender",
          "type": "address"
        },
        {
          "internalType": "uint256",
          "name": "subtractedValue",
          "type": "uint256"
        }
      ],
      "name": "decreaseAllowance",
      "outputs": [
        {
          "internalType": "bool",
          "name": "",
          "type": "bool"
        }
      ],
      "stateMutability": "nonpayable",
      "type": "function"
    },
    {
      "inputs": [
        {
          "internalType": "bytes32",
          "name": "role",
          "type": "bytes32"
        }
      ],
      "name": "getRoleAdmin",
      "outputs": [
        {
          "internalType": "bytes32",
          "name": "",
          "type": "bytes32"
        }
      ],
      "stateMutability": "view",
      "type": "function"
    },
    {
      "inputs": [
        {
          "internalType": "bytes32",
          "name": "role",
          "type": "bytes32"
        },
        {
          "internalType": "address",
          "name": "account",
          "type": "address"
        }
      ],
      "name": "grantRole",
      "outputs": [],
      "stateMutability": "nonpayable",
      "type": "function"
    },
    {
      "inputs": [
        {
          "internalType": "bytes32",
          "name": "role",
          "type": "bytes32"
        },
        {
          "internalType": "address",
          "name": "account",
          "type": "address"
        }
      ],
      "name": "hasRole",
      "outputs": [
        {
          "internalType": "bool",
          "name": "",
          "type": "bool"
        }
      ],
      "stateMutability": "view",
      "type": "function"
    },
    {
      "inputs": [
        {
          "internalType": "address",
          "name": "spender",
          "type": "address"
        },
        {
          "internalType": "uint256",
          "name": "addedValue",
          "type": "uint256"
        }
      ],
      "name": "increaseAllowance",
      "outputs": [
        {
          "internalType": "bool",
          "name": "",
          "type": "bool"
        }
      ],
      "stateMutability": "nonpayable",
      "type": "function"
    },
    {
      "inputs": [
        {
          "internalType": "address",
          "name": "to",
          "type": "address"
        },
        {
          "internalType": "uint256",
          "name": "amount",
          "type": "uint256"
        }
      ],
      "name": "mint",
      "outputs": [],
      "stateMutability": "nonpayable",
      "type": "function"
    },
    {
      "inputs": [],
      "name": "name",
      "outputs": [
        {
          "internalType": "string",
          "name": "",
          "type": "string"
        }
      ],
      "stateMutability": "view",
      "type": "function"
    },
    {
      "inputs": [
        {
          "internalType": "bytes32",
          "name": "role",
          "type": "bytes32"
        },
        {
          "internalType": "address",
          "name": "account",
          "type": "address"
        }
      ],
      "name": "renounceRole",
      "outputs": [],
      "stateMutability": "nonpayable",
      "type": "function"
    },
    {
      "inputs": [
        {
          "internalType": "bytes32",
          "name": "role",
          "type": "bytes32"
        },
        {
          "internalType": "address",
          "name": "account",
          "type": "address"
        }
      ],
      "name": "revokeRole",
      "outputs": [],
      "stateMutability": "nonpayable",
      "type": "function"
    },
    {
      "inputs": [
        {
          "internalType": "bytes4",
          "name": "interfaceId",
          "type": "bytes4"
        }
      ],
      "name": "supportsInterface",
      "outputs": [
        {
          "internalType": "bool",
          "name": "",
          "type": "bool"
        }
      ],
      "stateMutability": "view",
      "type": "function"
    },
    {
      "inputs": [],
      "name": "symbol",
      "outputs": [
        {
          "internalType": "string",
          "name": "",
          "type": "string"
        }
      ],
      "stateMutability": "view",
      "type": "function"
    },
    {
      "inputs": [],
      "name": "totalSupply",
      "outputs": [
        {
          "internalType": "uint256",
          "name": "",
          "type": "uint256"
        }
      ],
      "stateMutability": "view",
      "type": "function"
    },
    {
      "inputs": [
        {
          "internalType": "address",
          "name": "to",
          "type": "address"
        },
        {
          "internalType": "uint256",
          "name": "amount",
          "type": "uint256"
        }
      ],
      "name": "transfer",
      "outputs": [
        {
          "internalType": "bool",
          "name": "",
          "type": "bool"
        }
      ],
      "stateMutability": "nonpayable",
      "type": "function"
    },
    {
      "inputs": [
        {
          "internalType": "address",
          "name": "from",
          "type": "address"
        },
        {
          "internalType": "address",
          "name": "to",
          "type": "address"
        },
        {
          "internalType": "uint256",
          "name": "amount",
          "type": "uint256"
        }
      ],
      "name": "transferFrom",
      "outputs": [
        {
          "internalType": "bool",
          "name": "",
          "type": "bool"
        }
      ],
      "stateMutability": "nonpayable",
      "type": "function"
    }
  ],
  "bytecode": "0x60806040523480156200001157600080fd5b5060405162001b0b38038062001b0b833981016040819052620000349162000566565b8282600362000044838262000667565b50600462000053828262000667565b506200006591506000905033620000a8565b6200008060008051602062001aeb83398151915233620000a8565b6200009f336200009983670de0b6b3a764000062000749565b62000133565b50505062000857565b620000b482826200015f565b6200012f5760008281526005602090815260408083206001600160a01b03851684529091529020805460ff19166001179055620000ee3390565b6001600160a01b0316816001600160a01b0316837f2f8788117e7eff1d82e926ec794901d17c78024a50270940304540a733656f0d60405160405180910390a45b5050565b60008051602062001aeb8339815191526200014e816200018c565b6200015a83836200019b565b505050565b60008281526005602090815260408083206001600160a01b038516845290915290205460ff165b92915050565b62000198813362000262565b50565b6001600160a01b038216620001f75760405162461bcd60e51b815260206004820152601f60248201527f45524332303a206d696e7420746f20746865207a65726f20616464726573730060448201526064015b60405180910390fd5b80600260008282546200020b919062000763565b90915550506001600160a01b038216600081815260208181526040808320805486019055518481527fddf252ad1be2c89b69c2b068fc378daa952ba7f163c4a11628f55a4df523b3ef910160405180910390a35050565b6200026e82826200015f565b6200012f576200027e81620002c6565b6200028b836020620002d9565b6040516020016200029e92919062000779565b60408051601f198184030181529082905262461bcd60e51b8252620001ee91600401620007f2565b6060620001866001600160a01b03831660145b60606000620002ea83600262000749565b620002f790600262000763565b6001600160401b0381111562000311576200031162000499565b6040519080825280601f01601f1916602001820160405280156200033c576020820181803683370190505b509050600360fc1b816000815181106200035a576200035a62000827565b60200101906001600160f81b031916908160001a905350600f60fb1b816001815181106200038c576200038c62000827565b60200101906001600160f81b031916908160001a9053506000620003b284600262000749565b620003bf90600162000763565b90505b600181111562000441576f181899199a1a9b1b9c1cb0b131b232b360811b85600f1660108110620003f757620003f762000827565b1a60f81b82828151811062000410576200041062000827565b60200101906001600160f81b031916908160001a90535060049490941c9362000439816200083d565b9050620003c2565b508315620004925760405162461bcd60e51b815260206004820181905260248201527f537472696e67733a20686578206c656e67746820696e73756666696369656e746044820152606401620001ee565b9392505050565b634e487b7160e01b600052604160045260246000fd5b60005b83811015620004cc578181015183820152602001620004b2565b50506000910152565b600082601f830112620004e757600080fd5b81516001600160401b038082111562000504576200050462000499565b604051601f8301601f19908116603f011681019082821181831017156200052f576200052f62000499565b816040528381528660208588010111156200054957600080fd5b6200055c846020830160208901620004af565b9695505050505050565b6000806000606084860312156200057c57600080fd5b83516001600160401b03808211156200059457600080fd5b620005a287838801620004d5565b94506020860151915080821115620005b957600080fd5b50620005c886828701620004d5565b925050604084015190509250925092565b600181811c90821680620005ee57607f821691505b6020821081036200060f57634e487b7160e01b600052602260045260246000fd5b50919050565b601f8211156200015a57600081815260208120601f850160051c810160208610156200063e5750805b601f850160051c820191505b818110156200065f578281556001016200064a565b505050505050565b81516001600160401b0381111562000683576200068362000499565b6200069b81620006948454620005d9565b8462000615565b602080601f831160018114620006d35760008415620006ba5750858301515b600019600386901b1c1916600185901b1785556200065f565b600085815260208120601f198616915b828110156200070457888601518255948401946001909101908401620006e3565b5085821015620007235787850151600019600388901b60f8161c191681555b5050505050600190811b01905550565b634e487b7160e01b600052601160045260246000fd5b808202811582820484141762000186576200018662000733565b8082018082111562000186576200018662000733565b7f416363657373436f6e74726f6c3a206163636f756e7420000000000000000000815260008351620007b3816017850160208801620004af565b7001034b99036b4b9b9b4b733903937b6329607d1b6017918401918201528351620007e6816028840160208801620004af565b01602801949350505050565b602081526000825180602084015262000813816040850160208701620004af565b601f01601f19169190910160400192915050565b634e487b7160e01b600052603260045260246000fd5b6000816200084f576200084f62000733565b506000190190565b61128480620008676000396000f3fe608060405234801561001057600080fd5b50600436106101775760003560e01c806340c10f19116100d8578063a217fddf1161008c578063d539139311610066578063d53913931461031c578063d547741f14610343578063dd62ed3e1461035657600080fd5b8063a217fddf146102ee578063a457c2d7146102f6578063a9059cbb1461030957600080fd5b8063740371cc116100bd578063740371cc1461029a57806391d14854146102ad57806395d89b41146102e657600080fd5b806340c10f191461025e57806370a082311461027157600080fd5b8063248a9ca31161012f578063313ce56711610114578063313ce5671461022957806336568abe14610238578063395093511461024b57600080fd5b8063248a9ca3146101f15780632f2ff15d1461021457600080fd5b8063095ea7b311610160578063095ea7b3146101b957806318160ddd146101cc57806323b872dd146101de57600080fd5b806301ffc9a71461017c57806306fdde03146101a4575b600080fd5b61018f61018a366004610f6b565b61038f565b60405190151581526020015b60405180910390f35b6101ac610428565b60405161019b9190610fd1565b61018f6101c7366004611020565b6104ba565b6002545b60405190815260200161019b565b61018f6101ec36600461104a565b6104d2565b6101d06101ff366004611086565b60009081526005602052604090206001015490565b61022761022236600461109f565b6104f6565b005b6040516012815260200161019b565b61022761024636600461109f565b610520565b61018f610259366004611020565b6105b1565b61022761026c366004611020565b6105f0565b6101d061027f3660046110cb565b6001600160a01b031660009081526020819052604090205490565b6102276102a83660046110e6565b610624565b61018f6102bb36600461109f565b60009182526005602090815260408084206001600160a01b0393909316845291905290205460ff1690565b6101ac61064e565b6101d0600081565b61018f610304366004611020565b61065d565b61018f610317366004611020565b610707565b6101d07f9f2df0fed2c77648de5860a4cc508cd0818c85b8b8a1ab4ceeef8d981c8956a681565b61022761035136600461109f565b610715565b6101d06103643660046110e6565b6001600160a01b03918216600090815260016020908152604080832093909416825291909152205490565b60007fffffffff0000000000000000000000000000000000000000000000000000000082167f7965db0b00000000000000000000000000000000000000000000000000000000148061042257507f01ffc9a7000000000000000000000000000000000000000000000000000000007fffffffff000000000000000000000000000000000000000000000000000000008316145b92915050565b60606003805461043790611110565b80601f016020809104026020016040519081016040528092919081815260200182805461046390611110565b80156104b05780601f10610485576101008083540402835291602001916104b0565b820191906000526020600020905b81548152906001019060200180831161049357829003601f168201915b5050505050905090565b6000336104c881858561073a565b5060019392505050565b6000336104e0858285610892565b6104eb85858561091e565b506001949350505050565b60008281526005602052604090206001015461051181610b0b565b61051b8383610b18565b505050565b6001600160a01b03811633146105a35760405162461bcd60e51b815260206004820152602f60248201527f416363657373436f6e74726f6c3a2063616e206f6e6c792072656e6f756e636560448201527f20726f6c657320666f722073656c66000000000000000000000000000000000060648201526084015b60405180910390fd5b6105ad8282610bba565b5050565b3360008181526001602090815260408083206001600160a01b03871684529091528120549091906104c890829086906105eb908790611160565b61073a565b7f9f2df0fed2c77648de5860a4cc508cd0818c85b8b8a1ab4ceeef8d981c8956a661061a81610b0b565b61051b8383610c3d565b6001600160a01b0381166000908152602081905260409020546106488284836104d2565b50505050565b60606004805461043790611110565b3360008181526001602090815260408083206001600160a01b0387168452909152812054909190838110156106fa5760405162461bcd60e51b815260206004820152602560248201527f45524332303a2064656372656173656420616c6c6f77616e63652062656c6f7760448201527f207a65726f000000000000000000000000000000000000000000000000000000606482015260840161059a565b6104eb828686840361073a565b6000336104c881858561091e565b60008281526005602052604090206001015461073081610b0b565b61051b8383610bba565b6001600160a01b0383166107b55760405162461bcd60e51b8152602060048201526024808201527f45524332303a20617070726f76652066726f6d20746865207a65726f2061646460448201527f7265737300000000000000000000000000000000000000000000000000000000606482015260840161059a565b6001600160a01b0382166108315760405162461bcd60e51b815260206004820152602260248201527f45524332303a20617070726f766520746f20746865207a65726f20616464726560448201527f7373000000000000000000000000000000000000000000000000000000000000606482015260840161059a565b6001600160a01b0383811660008181526001602090815260408083209487168084529482529182902085905590518481527f8c5be1e5ebec7d5bd14f71427d1e84f3dd0314c0f7b2291e5b200ac8c7c3b925910160405180910390a3505050565b6001600160a01b03838116600090815260016020908152604080832093861683529290522054600019811461064857818110156109115760405162461bcd60e51b815260206004820152601d60248201527f45524332303a20696e73756666696369656e7420616c6c6f77616e6365000000604482015260640161059a565b610648848484840361073a565b6001600160a01b03831661099a5760405162461bcd60e51b815260206004820152602560248201527f45524332303a207472616e736665722066726f6d20746865207a65726f20616460448201527f6472657373000000000000000000000000000000000000000000000000000000606482015260840161059a565b6001600160a01b038216610a165760405162461bcd60e51b815260206004820152602360248201527f45524332303a207472616e7366657220746f20746865207a65726f206164647260448201527f6573730000000000000000000000000000000000000000000000000000000000606482015260840161059a565b6001600160a01b03831660009081526020819052604090205481811015610aa55760405162461bcd60e51b815260206004820152602660248201527f45524332303a207472616e7366657220616d6f756e742065786365656473206260448201527f616c616e63650000000000000000000000000000000000000000000000000000606482015260840161059a565b6001600160a01b03848116600081815260208181526040808320878703905593871680835291849020805487019055925185815290927fddf252ad1be2c89b69c2b068fc378daa952ba7f163c4a11628f55a4df523b3ef910160405180910390a3610648565b610b158133610cfc565b50565b60008281526005602090815260408083206001600160a01b038516845290915290205460ff166105ad5760008281526005602090815260408083206001600160a01b03851684529091529020805460ff19166001179055610b763390565b6001600160a01b0316816001600160a01b0316837f2f8788117e7eff1d82e926ec794901d17c78024a50270940304540a733656f0d60405160405180910390a45050565b60008281526005602090815260408083206001600160a01b038516845290915290205460ff16156105ad5760008281526005602090815260408083206001600160a01b0385168085529252808320805460ff1916905551339285917ff6391f5c32d9c69d2a47ea670b442974b53935d1edc7fd64eb21e047a839171b9190a45050565b6001600160a01b038216610c935760405162461bcd60e51b815260206004820152601f60248201527f45524332303a206d696e7420746f20746865207a65726f206164647265737300604482015260640161059a565b8060026000828254610ca59190611160565b90915550506001600160a01b038216600081815260208181526040808320805486019055518481527fddf252ad1be2c89b69c2b068fc378daa952ba7f163c4a11628f55a4df523b3ef910160405180910390a35050565b60008281526005602090815260408083206001600160a01b038516845290915290205460ff166105ad57610d2f81610d71565b610d3a836020610d83565b604051602001610d4b929190611173565b60408051601f198184030181529082905262461bcd60e51b825261059a91600401610fd1565b60606104226001600160a01b03831660145b60606000610d928360026111f4565b610d9d906002611160565b67ffffffffffffffff811115610db557610db561120b565b6040519080825280601f01601f191660200182016040528015610ddf576020820181803683370190505b5090507f300000000000000000000000000000000000000000000000000000000000000081600081518110610e1657610e16611221565b60200101906001600160f81b031916908160001a9053507f780000000000000000000000000000000000000000000000000000000000000081600181518110610e6157610e61611221565b60200101906001600160f81b031916908160001a9053506000610e858460026111f4565b610e90906001611160565b90505b6001811115610f15577f303132333435363738396162636465660000000000000000000000000000000085600f1660108110610ed157610ed1611221565b1a60f81b828281518110610ee757610ee7611221565b60200101906001600160f81b031916908160001a90535060049490941c93610f0e81611237565b9050610e93565b508315610f645760405162461bcd60e51b815260206004820181905260248201527f537472696e67733a20686578206c656e67746820696e73756666696369656e74604482015260640161059a565b9392505050565b600060208284031215610f7d57600080fd5b81357fffffffff0000000000000000000000000000000000000000000000000000000081168114610f6457600080fd5b60005b83811015610fc8578181015183820152602001610fb0565b50506000910152565b6020815260008251806020840152610ff0816040850160208701610fad565b601f01601f19169190910160400192915050565b80356001600160a01b038116811461101b57600080fd5b919050565b6000806040838503121561103357600080fd5b61103c83611004565b946020939093013593505050565b60008060006060848603121561105f57600080fd5b61106884611004565b925061107660208501611004565b9150604084013590509250925092565b60006020828403121561109857600080fd5b5035919050565b600080604083850312156110b257600080fd5b823591506110c260208401611004565b90509250929050565b6000602082840312156110dd57600080fd5b610f6482611004565b600080604083850312156110f957600080fd5b61110283611004565b91506110c260208401611004565b600181811c9082168061112457607f821691505b60208210810361114457634e487b7160e01b600052602260045260246000fd5b50919050565b634e487b7160e01b600052601160045260246000fd5b808201808211156104225761042261114a565b7f416363657373436f6e74726f6c3a206163636f756e74200000000000000000008152600083516111ab816017850160208801610fad565b7f206973206d697373696e6720726f6c652000000000000000000000000000000060179184019182015283516111e8816028840160208801610fad565b01602801949350505050565b80820281158282048414176104225761042261114a565b634e487b7160e01b600052604160045260246000fd5b634e487b7160e01b600052603260045260246000fd5b6000816112465761124661114a565b50600019019056fea2646970667358221220f880eac256893cfba46819bfa10df34058bebc838e1a804c0c90b5727390616d64736f6c634300081300339f2df0fed2c77648de5860a4cc508cd0818c85b8b8a1ab4ceeef8d981c8956a6",
  "linkReferences": {},
  "deployedLinkReferences": {}
}