{
  "_format": "hh-sol-artifact-1",
  "contractName": "Faucet",
  "sourceName": "contracts/core/Faucet.sol",
  "abi": [
    {
      "inputs": [
        {
          "internalType": "address",
          "name": "_betToken",
          "type": "address"
        }
      ],
      "stateMutability": "nonpayable",
      "type": "constructor"
    },
    {
      "inputs": [],
      "name": "CLAIM_AMOUNT",
      "outputs": [
        {
          "internalType": "uint256",
          "name": "",
          "type": "uint256"
        }
      ],
      "stateMutability": "view",
      "type": "function"
    },
    {
      "inputs": [],
      "name": "_getFaucetBalance",
      "outputs": [
        {
          "internalType": "uint256",
          "name": "",
          "type": "uint256"
        }
      ],
      "stateMutability": "view",
      "type": "function"
    },
    {
      "inputs": [],
      "name": "betToken",
      "outputs": [
        {
          "internalType": "contract IERC20",
          "name": "",
          "type": "address"
        }
      ],
      "stateMutability": "view",
      "type": "function"
    },
    {
      "inputs": [],
      "name": "claimTokens",
      "outputs": [],
      "stateMutability": "nonpayable",
      "type": "function"
    },
    {
      "inputs": [
        {
          "internalType": "address",
          "name": "",
          "type": "address"
        }
      ],
      "name": "lastClaimed",
      "outputs": [
        {
          "internalType": "uint256",
          "name": "",
          "type": "uint256"
        }
      ],
      "stateMutability": "view",
      "type": "function"
    }
  ],
  "bytecode": "0x608060405268056bc75e2d6310000060025534801561001d57600080fd5b506040516104ec3803806104ec83398101604081905261003c91610061565b600180546001600160a01b0319166001600160a01b0392909216919091179055610091565b60006020828403121561007357600080fd5b81516001600160a01b038116811461008a57600080fd5b9392505050565b61044c806100a06000396000f3fe608060405234801561001057600080fd5b50600436106100675760003560e01c806348c54b9d1161005057806348c54b9d146100a857806378691f16146100b2578063c5c0e3e2146100dd57600080fd5b8063013eba921461006c578063270ef3851461009f575b600080fd5b61008c61007a366004610371565b60006020819052908152604090205481565b6040519081526020015b60405180910390f35b61008c60025481565b6100b06100e5565b005b6001546100c5906001600160a01b031681565b6040516001600160a01b039091168152602001610096565b61008c6102e1565b33600090815260208190526040902054620151809061010490426103a1565b116101565760405162461bcd60e51b815260206004820152601f60248201527f596f752063616e277420636c61696d2074686174206672657175656e746c790060448201526064015b60405180910390fd5b6001546002546040517f095ea7b300000000000000000000000000000000000000000000000000000000815230600482015260248101919091526001600160a01b039091169063095ea7b3906044016020604051808303816000875af11580156101c4573d6000803e3d6000fd5b505050506040513d601f19601f820116820180604052508101906101e891906103db565b6102345760405162461bcd60e51b815260206004820152600f60248201527f417070726f76616c206661696c65640000000000000000000000000000000000604482015260640161014d565b6001546002546040517f23b872dd00000000000000000000000000000000000000000000000000000000815230600482015233602482015260448101919091526001600160a01b03909116906323b872dd906064016020604051808303816000875af11580156102a8573d6000803e3d6000fd5b505050506040513d601f19601f820116820180604052508101906102cc91906103db565b50336000908152602081905260409020429055565b6001546040517f70a0823100000000000000000000000000000000000000000000000000000000815230600482015260009182916001600160a01b03909116906370a0823190602401602060405180830381865afa158015610347573d6000803e3d6000fd5b505050506040513d601f19601f8201168201806040525081019061036b91906103fd565b92915050565b60006020828403121561038357600080fd5b81356001600160a01b038116811461039a57600080fd5b9392505050565b8181038181111561036b577f4e487b7100000000000000000000000000000000000000000000000000000000600052601160045260246000fd5b6000602082840312156103ed57600080fd5b8151801515811461039a57600080fd5b60006020828403121561040f57600080fd5b505191905056fea2646970667358221220fb532382f1800a8622f1676bef413c43f266641bd0968cb0da4b670763fef86664736f6c63430008130033",
  "linkReferences": {},
  "deployedLinkReferences": {}
}